:020000040800F2
:10000000800700209D0100086D130008390E0008CC
:1000100069100008550D00085B1B00080000000077
:10002000000000000000000000000000ED150008C6
:10003000590D00080000000029140008DD16000812
:10004000B7010008B7010008B7010008B7010008B0
:10005000B7010008B7010008B7010008B7010008A0
:10006000B7010008B7010008B7010008B701000890
:10007000B7010008B7010008B7010008B701000880
:10008000B7010008B7010008B7010008B701000870
:10009000B7010008B7010008B7010008B701000860
:1000A000B7010008B7010008B7010008B701000850
:1000B00049170008B7010008B7010008B701000898
:1000C000B7010008B7010008B7010008B701000830
:1000D000B70100084D180008B7010008B701000873
:1000E000B7010008B7010008B7010008B701000810
:1000F000B7010008B7010008B7010008B701000800
:10010000B7010008B7010008B7010008B7010008EF
:10011000B7010008B7010008B7010008B7010008DF
:10012000B7010008B7010008B7010008B7010008CF
:10013000B7010008B7010008B7010008B7010008BF
:10014000B7010008B7010008B7010008B7010008AF
:10015000B7010008B7010008B7010008B70100089F
:10016000B7010008B7010008B7010008B70100088F
:10017000B7010008B7010008B7010008B70100087F
:10018000B7010008B7010008DFF80CD000F086FBCB
:1001900000480047153100088007002006488047C6
:1001A00006480047FEE7FEE7FEE7FEE7FEE7FEE75C
:1001B000FEE7FEE7FEE7FEE7E1160008890100081A
:1001C00001804280436070472DE9F04F82B046685D
:1001D00053680193058847884B8800200090088861
:1001E000874201BFB2F800C06545528893421EBFE6
:1001F0006FF0020002B0BDE8F08F9FED412A4FEA98
:10020000970EC7F3400B00BFDDE9000202EB800A46
:100210004A6898464FF00009B0EE420AB4465FEAD9
:100220000E0025D092ED001ADCED001A02EB8302DD
:10023000DCED010A01EE810A92ED001A02EB830265
:10024000401ED2ED001A02EB830200EE810A9CED03
:10025000021ADCED030A00040CF1100C000C01EE94
:10026000210A92ED001A02EB830200EE810AD9D135
:1002700017F0030026D0ACF10404A2EB830210F0C7
:10028000010F08D002EB8302D4ED010A92ED001AAF
:10029000241D00EE810A5FEA0B0013D002EB830CF1
:1002A000D4ED010A9CED001A02EBC302401E00EEE1
:1002B000810AD4ED020A92ED001A04F1080400EE5E
:1002C000810AEBD109F10100AAEC010A1FFA80F9B9
:1002D000486800EB8902A8F101001FFA80F8B8F124
:1002E000000F99D1009806EB8706184480B2009061
:1002F000681E05042D0C87D102B00020BDE8F08FE8
:100300000000000010B49FED310A5FEA910C1ED08E
:10031000BCF1004F3DD2BCF1000FC4BF03466446A0
:1003200015DD00BFD3ED000A00EEA00AD3ED010AEF
:1003300000EEA00AD3ED020A00EEA00AD3ED030AF4
:100340001033641E00EEA00AECD100EB0C1011F08B
:1003500003011AD0B1F1004F30D2002915DD001F82
:1003600011F0010F04D0D0ED010A001D00EEA00A2B
:1003700049080AD0D0ED010A00EEA00AD0ED020A29
:100380000830491E00EEA00AF4D182ED000A10BC2C
:100390007047D0ED000A00EEA00AD0ED010A00EE91
:1003A000A00AD0ED020A00EEA00AD0ED030A103038
:1003B000BCF1010C00EEA00AEBD1C8E7F0EC010A99
:1003C000491E00EEA00AF9D1DFE70000000000009E
:1003D00000F0004230F000400AD0C10D01F560711C
:1003E000C0F3160042EA0151C208400711437047AA
:1003F00000200146704701F0004330B421F0004175
:1004000050EA010206D00A0DA2F56072C1F3130191
:10041000002A02DC30BC00207047440F44EAC104CB
:10042000C100E01830BC00EBC25000F047B830B556
:100430000B46014600202022012409E021FA02F5A2
:100440009D4205D303FA02F5491B04FA02F528443C
:10045000151EA2F10102F1DC30BD2DE9F05F054669
:10046000002092469B4688460646814640241BE073
:10047000284641464746224600F031FA53465A463E
:10048000C01A914110D311461846224600F018FABE
:100490002D1A67EB01084F4622460120002100F08B
:1004A0000FFA17EB00094E41201EA4F10104DFDC16
:1004B000484631462A464346BDE8F09F0029A8BF7A
:1004C0007047401C490008BF20F00100704710B47D
:1004D000B0FA80FC00FA0CF050EA010404BF10BC32
:1004E000704749B1CCF1200421FA04F411FA0CF15F
:1004F00018BF012121430843A3EB0C01CB1D4FEA98
:1005000000614FEA102042BF002010BC704700EB92
:10051000C35010440029A4BF10BC7047401C4900C0
:1005200008BF20F0010010BC70472DE9FE4F804647
:1005300081EA0300C00F0C46009021F0004123F037
:100540000045B8EB0200A94105D24046214690463D
:100550001C460B46024623F00040104347D0270DAF
:10056000C7F30A00C3F30A510290401A01904028D1
:100570006BDAC3F3130040F4801B0098924620B15D
:100580000023D2EB030A63EB0B0B01985946C0F131
:100590004002504600F094F906460D465046594632
:1005A000019A00F0ACF910EB08006141002487EAE1
:1005B000115284EAE7731A4340D0009A62B3019A59
:1005C000012A4FEA075215DC001B61EB02014FF0D4
:1005D000004202EA0752CDE90042001C41F58011B9
:1005E00032462B4600F0ACF903B0BDE8F08F404630
:1005F0002146F9E7001B61EB0201001C41F5801365
:1006000000185B412018A2F5001747EB030140EAF0
:10061000D570B6196D4111E06D084FEA360645EA0E
:10062000C0754FEA0752001B61EB0201001C41F547
:10063000801149084FEA30000019514132462B46DB
:1006400003B0BDE8F04F00F06CB900980122400003
:100650000023D0EB020263EBE073009821464FEADF
:10066000E074B8EB000061EB0401E9E783F00043BC
:100670005BE781F0004158E72DE9FE4F81EA030472
:1006800004F0004421F0004100944FF0000B23F0EF
:10069000004350EA01045ED052EA03045BD0C3F386
:1006A0000A54C1F30A552C44A4F2F3340194A0FB7C
:1006B0000254C1F3130141F48011C3F3130343F453
:1006C000801301FB024400FB034E840A970A44EAAC
:1006D000815447EA8357A4FB076802958D0A05FBFE
:1006E00007854FEA932C04FB0C542705029D4FEA23
:1006F000065847EA1637B5EB08056EEB070C870E70
:10070000920E47EA811742EA8312A7FB0201B6EB79
:100710000B0164EB00042B0D43EA0C335E1844EB31
:100720001C50DA465146E7FB0201C5F313044FEAB9
:100730000B3343EA14534FEA0432019C43EA0603A5
:10074000A4F10C040294009CCDE900B400F0F8F888
:1007500003B0BDE8F08F00200146F9E72DE9F04D28
:1007600081EA030404F0004B21F0004514464FF0E9
:10077000000A23F0004150EA050220D054EA0102A9
:100780001DD0C5F30A570246C5F31303C1F3130086
:10079000C1F30A5640F4801543F48013A7EB060812
:1007A000101BD64608F2FD3873EB050002D308F1A2
:1007B000010801E092185B41B8F1000F03DA002054
:1007C0000146BDE8F08D00204FF4801106468446B6
:1007D0000EE0171B73EB050705D3121B63EB050334
:1007E00006434CEA010C49084FEA300092185B417D
:1007F00050EA0107EDD152EA030012D082EA040068
:1008000083EA0501084305D0101BAB4106D2012243
:10081000002306E000224FF0004302E06FF00102E7
:1008200053101AEB06004CEB085110EB0A0041EB99
:100830000B01BDE8F04D00F074B8C1F30A52C1F3EA
:10084000130140F2FF3341F480119A4202DA002092
:100850000146704740F233439A42A2F2334202DC2F
:10086000524200F03CB800F02BB8000030B5041E36
:1008700071F1000404DB4FF00044404264EB0101DD
:10088000141E73F1000405DB1C464FF00043524276
:1008900063EB0403994208BF904230BD064C074DFC
:1008A00006E0E06840F0010394E807009847103440
:1008B000AC42F6D3FFF76CFCD03D0008F03D0008D9
:1008C000202A04DB203A00FA02F100207047914010
:1008D000C2F1200320FA03F3194390407047202A05
:1008E00004DB203A21FA02F00021704721FA02F3DA
:1008F000D040C2F120029140084319467047202A97
:1009000006DBCB17203A41FA02F043EAE07306E037
:1009100041FA02F3D040C2F1200291400843194647
:10092000704710B5141E73F1000408DA401C41F141
:10093000000192185B411A4301D120F0010010BD63
:100940002DE9F04D92469B4611B1B1FA81F202E0D9
:10095000B0FA80F220329046FFF7B2FF04460F460D
:1009600040EA0A0041EA0B0153465A46084313D0B5
:10097000114653EA010019D0C8F140025046FFF772
:10098000AEFF05460E46504659464246FFF798FFD1
:10099000084305D0012004E020463946BDE8F08D2B
:1009A0000020054346EAE0762C4337430A98630566
:1009B000E40AA0EB08000022FD0A44EA47540A308A
:1009C00002D500200146E9E7010510196941DDE97A
:1009D000084500196941BDE8F04DA2E72DE9F04D49
:1009E00000231A461B1A8A4103DB00200146BDE89A
:1009F000F08DC1F30A52C1F3130141F480154FF099
:100A0000000BD10702D100186D41521E0027044689
:100A100040F2FF11384601EB620A3E46804602462C
:100A200000204FF48011FFF75AFFC2197141BB1823
:100A300046EB0100B4EB030C75EB000C04D3E41A95
:100A400065EB000517460E46241908F101006D41BB
:100A500080463428E3DDF91946EB0600091BA8415E
:100A600003D24FF0FF32134601E0002213461BEB86
:100A7000070046EB0A51BDE8F04DFFF752BF0000FA
:100A800010B504460F230A2218210B4802F08AFFF2
:100A900010221821084802F01BFA20701122182198
:100AA000054802F015FA607011221821024802F080
:100AB0000FFAA07010BD00000054004010B52DEDDD
:100AC000028B2C4A2C492D4802F09AFB2CA001F0F5
:100AD00047F837A001F044F8002411E0274800EB64
:100AE000840090ED000A10EE101A0846FFF770FC23
:100AF00041EC180B53EC182B2EA001F031F8641CBC
:100B0000032CEBDB2CA001F02BF8002411E01A4899
:100B100000EB840090ED000A10EE101A0846FFF773
:100B200057FC41EC180B53EC182B22A001F018F8DD
:100B3000641C032CEBDB22A001F012F8002411E06E
:100B40000C4800EB840090ED000A10EE101A0846E5
:100B5000FFF73EFC41EC180B53EC182B15A000F0EE
:100B6000FFFF641C032CEBDB10A000F0F9FFBDECD1
:100B7000028B10BDB0000020C8000020BC00002087
:100B80002D2D2D2D2D2D2D2D2D2D2D2D496E6974B5
:100B9000616C2041646A7573742056616C75652DB3
:100BA0002D2D2D2D2D2D2D2D2D2D2D2D0A0000001F
:100BB00061633A00256609000A67793A000000007F
:100BC0000A6D61673A00000070B590B004460D46AA
:100BD000164694ED020A60EE000A94ED030A94EDC5
:100BE000031A40EE010AB7EE000AB0EE001A01EE59
:100BF000600A8DED070A94ED010AD4ED020A20EE99
:100C0000200AD4ED000A94ED031A00EEC10AF0EEBA
:100C1000000A20EE200A8DED080A94ED010AD4EDB9
:100C2000030A20EE200AD4ED000A94ED021A00EE29
:100C3000810AF0EE000A20EE200A8DED090A94EDFB
:100C4000010AD4ED020A20EE200AD4ED000A94ED48
:100C5000031A00EE810AF0EE000A20EE200A8DED64
:100C60000A0A94ED010A20EE000AD4ED030A94ED7D
:100C7000031A00EE810AF7EE000AB0EE001A41EE08
:100C8000400ACDED0B0A94ED020AD4ED030A20EEE2
:100C9000200AD4ED000A94ED011A00EE810AF0EE6C
:100CA000000A20EE200A8DED0C0A94ED010AD4ED25
:100CB000030A20EE200AD4ED000A94ED021A00EE99
:100CC000C10AF0EE000A20EE200A8DED0D0A94ED27
:100CD000020AD4ED030A20EE200AD4ED000A94EDB6
:100CE000011A00EE810AF0EE000A20EE200A8DEDD6
:100CF0000E0A94ED010A20EE000AD4ED020A94EDEA
:100D0000021A00EE810AF7EE000AB0EE001A41EE78
:100D1000400ACDED0F0A07AB0322114605A8FFF7E5
:100D20004FFA2B460122032103A8FFF749FA334665
:100D30000122032101A8FFF743FA01AA03A905A88C
:100D4000FFF742FA10B070BD10B500F010FB00F0D4
:100D5000F5FE10BD00BFFEE77047F0B50A46002162
:100D60000023002400BF3DE0012505FA01F31568CA
:100D700005EA03049C4234D105684F000326BE40B7
:100D8000B543056015794E00B540066835430560EA
:100D90001579012D02D01579022D16D185684F00E5
:100DA0000326BE40B543856055794E00B540866840
:100DB00035438560456801268E40B54345604568EA
:100DC00096798E40B6B235434560C5684F0003261C
:100DD000BE40B543C560D5794E00B540C6683543C1
:100DE000C560491C1029BFD3F0BDF0B50023002415
:100DF0004D07ED0E02FA05F3CE1000F1200555F86F
:100E000026504E07F70E0F26BE40B543CF1000F117
:100E1000200646F82750CE1000F1200555F8265040
:100E200045EA0304CE1000F1200545F82640F0BD48
:100E300042694A404261704700BFFEE721B1028823
:100E400042F48062028004E002884FF6FF331A40C9
:100E50000280704770B50246002400250023002060
:100E6000958A138B1B0445EA030626F07F4404EAA7
:100E700001068E4201D1012000E0002070BD21B1A9
:100E8000028842F00102028004E002884FF6FE73FD
:100E90001A4002807047000010B50446134884428F
:100EA00009D10121480500F00DFB00214FF400108D
:100EB00000F008FB18E00E48844209D101218805A2
:100EC00000F000FB00214FF4800000F0FBFA0BE083
:100ED0000848844208D10121C80500F0F3FA002136
:100EE0004FF4000000F0EEFA10BD00000054004086
:100EF00000580040005C004021B1028842F480723A
:100F0000028004E002884FF6FF631A4002807047B7
:100F100021B1028842F40072028004E002884FF698
:100F2000FF531A40028070470CB502460020002390
:100F30000193009300920B0F019321F07F41019BDD
:100F40001BB1009B1433009303E0090C009B183382
:100F50000093009B1B680B400BB1012000E00020B8
:100F60000CBD00002DE9FF4704460D460026B146A2
:100F70000427DFF8CC80A6884FF6C070064068468C
:100F800000F0C0FADDF808802E48B8FBF0F01FFA38
:100F900080F946EA0906A68020884FF6FE710840CF
:100FA000208000262849286888420CD828684000FC
:100FB000B8FBF0F087B2042F00DA04273E4309F1B2
:100FC0000100208427E0E8884BF6FF71884206D1B3
:100FD000286800EB4000B8FBF0F087B209E0286811
:100FE00000EBC00101EB0010B8FBF0F087B247F452
:100FF0008047C7F30B0008B947F0010747F40040EA
:1010000006434FF4967009FB00F04FF47A7190FBA1
:10101000F1F0401C2084A683208840F0010020804D
:1010200026884FF6F5300640A888698908430643AC
:101030002680A889298908432081BDE8FF87000010
:1010400000127A0040420F00A08601000146088A83
:10105000C0B2704712B141F0010101E001F0FE01A0
:10106000018270470182704700BFFEE72DE9F04121
:1010700094B006460D4614461F46DDF8688094ED90
:10108000000ADFED2D0A80EE201A9FED2C0A21EEDA
:10109000000A8DED110AD4ED010A9FED271A80EEAA
:1010A000810ADFED260A20EE200A8DED120A94ED6A
:1010B000020ADFED210A80EE201A9FED200A21EEC0
:1010C000000A8DED130A0321304602F001FB0321D3
:1010D000284602F0FDFA0EAA1949384600F086F8B3
:1010E0000BAA29463846FFF76FFD08A90BA801F0A7
:1010F00071FE02AA08A9384600F078F802A82B462B
:101100000EAA3146009005A801F08AFE05A911A893
:1011100002F0A9FD9FED0B0A11A9384602F01CFD53
:101120000421384602F0D4FA4146384602F072FBF8
:1011300014B0BDE8F081000000003443DB0F4940EB
:1011400040000020CDCCCC3D00B52DED068B85B008
:1011500019481A4B1A4A1B4900901B48FFF786FF93
:10116000154890ED020A10EE101A0846FFF730F904
:1011700041EC180B104890ED010A10EE101A0846C9
:10118000FFF726F941EC190B0B4890ED000A10EE21
:10119000101A0846FFF71CF941EC1A0B8DED028B73
:1011A0008DED009B53EC1A2B08A000F0D9FC05B084
:1011B000BDEC068B00BD0000D400002030000020F4
:1011C00098000020A40000208C0000200A7961779C
:1011D0003A2025662070697463683A20256620727B
:1011E0006F6C6C3A2025660A0000000070B590B064
:1011F00004460D46164694ED020A60EE000A94ED90
:10120000030A94ED031A40EE010AB7EE000AB0EEAD
:10121000001A01EE600A8DED070A94ED010AD4ED83
:10122000020A20EE200AD4ED000A94ED031A00EE23
:10123000810AF0EE000A20EE200A8DED080A94EDF6
:10124000010AD4ED030A20EE200AD4ED000A94ED41
:10125000021A00EEC10AF0EE000A20EE200A8DED1F
:10126000090A94ED010AD4ED020A20EE200AD4ED19
:10127000000A94ED031A00EEC10AF0EE000A20EE17
:10128000200A8DED0A0A94ED010A20EE000AD4ED41
:10129000030A94ED031A00EE810AF7EE000AB0EE9D
:1012A000001A41EE400ACDED0B0A94ED010AD4ED8F
:1012B000030A20EE200AD4ED000A94ED021A00EE93
:1012C000810AF0EE000A20EE200A8DED0C0A94ED62
:1012D000020AD4ED030A20EE200AD4ED000A94EDB0
:1012E000011A00EE810AF0EE000A20EE200A8DEDD0
:1012F0000D0A94ED020AD4ED030A20EE200AD4ED83
:10130000000A94ED011A00EE810AF0EE000A20EEC8
:10131000200A8DED0E0A94ED010A20EE000AD4EDAC
:10132000020A94ED021A00EE810AF7EE000AB0EE0E
:10133000001A41EE400ACDED0F0A07AB0322114619
:1013400005A8FEF73DFF2B460122032103A8FEF767
:1013500037FF33460122032101A8FEF731FF01AA1E
:1013600003A905A8FEF730FF10B070BD704708B59F
:1013700025208DF8000001208DF8010000208DF857
:10138000020001208DF80300684600F011F81C20CF
:101390008DF8000001208DF8010003208DF8020077
:1013A00001208DF80300684600F002F808BD000037
:1013B00070B5002100230F22C4781CB3174C246899
:1013C00004F4E064C4F5E064C4F30721C1F104044B
:1013D000E3B20A4144789C40E1B28478144021434E
:1013E0000C07210E0E4C05786155047804F01F059A
:1013F0000124AC4005786D11AD0005F1E025C5F87C
:10140000004109E0047804F01F050124AC40054DBB
:101410000678761145F8264070BD00000CED00E01E
:1014200000E400E080E100E070470000F0EE400AD8
:10143000B7EE082AF0EE421AB6EE002A20EE822A13
:10144000B0EE421AB0EE600A10EE100A0C49A1EBA1
:10145000600000EE100A61EE002AB7EE082A02EEE4
:10146000C02A22EE002AB0EE420A61EE002AB7EE50
:10147000082A02EEC02A22EE002AB0EE420A704785
:10148000865A375F29B1064A12680243044B1A6034
:1014900004E0034A12688243014B1A60704700005F
:1014A0003038024029B1064A12680243044B1A60E0
:1014B00004E0034A12688243014B1A60704700003F
:1014C0004038024029B1064A12680243044B1A60B0
:1014D00004E0034A12688243014B1A60704700001F
:1014E0002038024029B1064A12680243044B1A60B0
:1014F00004E0034A12688243014B1A6070470000FF
:1015000044380240F0B500210022002402250026C4
:101510000223324F3F6807F00C0121B1042905D0A6
:10152000082937D105E02E4F076036E02D4F0760C0
:1015300033E02A4F3F1F3F68C7F38056274F3F1FB6
:101540003F6807F03F036EB1264FB7FBF3F7DFF8B4
:101550008CC0ACF1040CDCF800C0CCF3881C07FB99
:101560000CF40CE01E4FB7FBF3F7DFF870C0ACF1E2
:10157000040CDCF800C0CCF3881C07FB0CF4174FFC
:101580003F1F3F68C7F301477F1C7D00B4FBF5F7A1
:10159000076002E0124F076000BF00BF0F4F3F68B7
:1015A00007F0F0010909104F7A5C0768D7404760DF
:1015B0000A4F3F6807F4E051890A0B4F7A5C47688D
:1015C000D7408760054F3F6807F46041490B064FDD
:1015D0007A5C4768D740C760F0BD00000838024019
:1015E0000024F40000127A00000000207047000080
:1015F0000CB50020019000903448006840F4803021
:101600003249086000BF3148006800F400300090A3
:101610000198401C0190009818B90198B0F5A04FAE
:10162000F1D12A48006800F4003010B10120009088
:1016300001E0002000900098012846D12348403066
:10164000006840F08050214940310860204800681F
:1016500040F440401E4908601C48083000681B499F
:10166000083108600846006840F4004008600846F9
:10167000006840F4805008601648091F0860081F81
:10168000006840F08070091F086000BF0F480068C4
:1016900000F000700028F9D040F205700E49086093
:1016A0000A480830006820F0030008490831086043
:1016B0000846006840F00200086000BF0348083098
:1016C000006800F00C000828F8D10CBD003802407A
:1016D0000070004008544007003C02407047000082
:1016E00010B51548006840F47000134908601348AD
:1016F000006840F001001149086000200F490831DE
:1017000008600E4800680E4908400C4908600D4802
:10171000091D0860081F006820F48020091F086068
:10172000002006490C310860FFF762FF4FF00060AF
:1017300001498039086010BD88ED00E000380240A2
:10174000FFFFF6FE1030002410B50121880700F0DD
:1017500017F808B102F0D6F90121880700F001F866
:1017600010BDCA430282704721B1028842F00102D3
:10177000028004E002884FF6FE731A400280704730
:1017800030B50246002000230024158A05EA010333
:10179000958905EA010413B10CB1012000E0002095
:1017A00030BD1AB183890B43838102E083898B4367
:1017B0008381704700220288184B98420ED0184B44
:1017C00098420BD0B0F1804F08D0164B984205D00C
:1017D000154B984202D0154B984204D14FF68F73A7
:1017E0001A404B881A43124B984207D0114B98422B
:1017F00004D04FF6FF431A400B891A4302804B680E
:10180000C3620B880385054B984202D0044B984273
:1018100001D18B7A03860123838270470000014047
:10182000000401400004004000080040000C00409B
:1018300000100040001400404FF0FF3141600021D3
:1018400001800181418081727047000010B540F233
:101850002551064800F0B9F830B1044800F074F999
:10186000C4B2204600F004F810BD00000010014092
:1018700010B504462146054800F06BF900BF402131
:10188000024800F095F80028F9D010BD0010014082
:1018900001F40072B2F5007F00D100BFCA4302809C
:1018A000704721B1828942F40052828104E082892A
:1018B0004DF6FF731A408281704700001FB54FF448
:1018C000E13000900020ADF80400ADF80600ADF85E
:1018D0000800ADF80C000C20ADF80A00694610486D
:1018E00000F0C2F8012240F225510D4800F097F8AF
:1018F00001210B48FFF7D5FF69460A4800F0B4F80C
:10190000012240F22551074800F089F801210548DD
:10191000FFF7C7FF40210348FFF7BAFF1FBD0000D4
:1019200000100140004800401CB501210846FFF7A7
:10193000A9FD01211020FFF7D5FD01210220FFF7AD
:10194000A1FD01218804FFF7ADFD072209211648FA
:10195000FFF74BFA07220A211348FFF746FA07223E
:101960000B211248FFF741FA07220A210F48FFF71F
:101970003CFA02208DF805008DF8040000208DF857
:10198000060001208DF807004FF440600090694682
:101990000648FFF7E2F94FF4C0600090694602483C
:1019A000FFF7DBF91CBD000000000240000402400C
:1019B00002460020B1F5007F00D100BF13880B4024
:1019C0000BB1012000E00020704770B502460024F2
:1019D00000230025002040F66A16B14200D100BF66
:1019E000C1F3421501F01F03012606FA03F3012D8E
:1019F00002D19689334006E0022D02D1168A334087
:101A000001E0968A33400C12012606FA04F4168887
:101A1000344013B10CB1012000E0002070BDF0B5DE
:101A20000346002400260025002040F66A17B9422C
:101A300000D100BF1846C1F3421401F01F06012770
:101A400007FA06F5012C01D10C3004E0022C01D17B
:101A5000103000E014301AB107682F43076002E02D
:101A60000768AF430760F0BD2DE9FF4705460E4606
:101A70000024A14600BFA046B08900B100BF2C8A57
:101A800024F44054F08804432C82AC8941F20C6069
:101A90008443B08831890843718908430443AC8189
:101AA000AC8A24F44074B0890443AC826846FFF7E2
:101AB00029FD2048854202D01F48854202D1DDF829
:101AC0000C9001E0DDF80890A88900F4004040B1D6
:101AD00009EBC90000EB091031684900B0FBF1F7D0
:101AE00007E009EBC90000EB091031688900B0FB81
:101AF000F1F76420B7FBF0F004012009642101FB39
:101B00001078A88900F4004040B1322000EBC800F2
:101B1000B0FBF1F000F00700044308E0322000EBD6
:101B200008106421B0FBF1F000F00F0004432C8199
:101B3000BDE8FF87001001400014014010B5FFF719
:101B4000F3FEFFF7BBFE10BD01468888C0F3080016
:101B50007047C1F308028280704700BFFEE70000B3
:101B60000FB4054B10B503A9044A029800F0ACFC71
:101B700010BC5DF814FB0000BD2C000858000020CC
:101B800003B401984100009850EAC12018BF042016
:101B90004A0D18BF40F0010040F2FF72B2EB515FF6
:101BA00008BF40F00200012808BF052002B07047BE
:101BB00070B5C1482DED020B2DED0E8B82B0119D3D
:101BC00025F000449FEDBEDB9FEDBFEB84423EDB82
:101BD000A4F140511098A1F17F6108430FD0BC4897
:101BE000844202DC28D1109830B39DED100B02B076
:101BF000BDEC0E8B02B0BDE8704000F071BB9DEDF6
:101C0000100B53EC1D2B51EC100BFEF735FD9DED29
:101C1000100B41EC180B53EC1E2B51EC100BFEF784
:101C20002BFD53EC182BFEF780FC41EC100B02B09F
:101C3000BDEC0E8B02B070BD012000F08DFB02B038
:101C4000BDEC0E8B02B0BDE8704000F055BBA14862
:101C50009FEDA18B844256DA9DED100BB4F1795FB4
:101C60000ADA51EC100BFFF78BFF042808BF00F0D5
:101C700053FB9DED100BDAE753EC102B51EC100BDE
:101C8000FEF7FAFC41EC190B95480621B0EE490A23
:101C9000F0EE690A784400F0A7FA53EC192B51ECE6
:101CA000100BFEF7E9FC41EC1A0B8E48B0EE490A26
:101CB000F0EE690A0421784400F096FA53EC192BEF
:101CC00051EC100BFEF7D8FC53EC182BFEF72DFC53
:101CD00041EC100B51EC1A0B53EC102BFEF73EFDB0
:101CE000CDE900019DED000B53EC102B9DED100B89
:101CF00051EC100BFEF7C0FC9DED101B53EC112BAB
:101D0000FEF713FCD2E09DED100B51EC100B00F030
:101D1000C9FF53EC182BFEF7ACFC9FED730BCDE91C
:101D2000000153EC102B9DED000B51EC100BFEF756
:101D3000A3FC41EC190B6E480621B0EE490AF0EE07
:101D4000690A784400F050FA53EC192B51EC100B4F
:101D5000FEF792FC41EC1B0B6648B0EE490AF0EE30
:101D6000690A0421784400F03FFA53EC192B51EC36
:101D7000100BFEF781FC53EC182BFEF7D6FB41EC61
:101D80001C0B51EC190B01F085FE41EC180B5A4865
:101D90009FED5BABA04222DC53EC1C2B51EC1B0BE8
:101DA000FEF7DCFCCDE900019DED000B51EC180BBA
:101DB00053EC102BFEF760FC53EC182BFEF7B5FB31
:101DC00053EC1A2BFEF758FC53EC1D2BFEF74EFC80
:101DD00053EC1E2BFEF74DFC41EC100B5FE08DED3C
:101DE000008B002000909DED000B51EC180B53EC84
:101DF000102BFEF79AFB9DED000B41EC1E0B53ECF4
:101E0000102B51EC100BFEF737FC53EC192BFEF79F
:101E100030FC53EC1E2BFEF7A1FC41EC190B53ECEC
:101E20001C2B51EC1B0BFEF799FC41EC1B0B53ECEC
:101E30001A2B51EC190BFEF71FFC53EC1D2BFEF770
:101E400018FC41EC190B53EC1A2B51EC180BFEF754
:101E500013FC53EC1B2BFEF70FFC53EC192BFEF776
:101E600005FC9DED000B41EC180B53EC1A2B51ECCB
:101E7000100BFEF701FC9FED249B53EC192BFEF792
:101E8000F8FB41EC100B51EC180B53EC102BFEF748
:101E9000EDFB53EC192BFEF7ECFB41EC100B002D86
:101EA0003FF7C5AE51EC100B81F0004141EC100B37
:101EB000BDE60000000000000000F03F0000000050
:101EC000075C143326A6913C182D4454FB21F93F9E
:101ED0000000F07F0000E03F000000000000F03F45
:101EE000502000005E200000000000000000E03FE5
:101EF000A21F0000B01F00003333EF3F00000000BE
:101F00000000000000000040182D4454FB21E93F70
:101F100070B59B482DED020B2DED068B079D25F02E
:101F20000044A04218DC9748844202DC0AD106989B
:101F300040B19DED060BBDEC068B02B0BDE87040D4
:101F400000F0CEB9002DCCBF9FED8F0B9FED900B15
:101F5000BDEC068B02B070BD8F48A04215DD8F48E6
:101F6000A042D8BF4FF0FF3458DD9DED060B51EC79
:101F7000100BFFF705FE042808BF00F0CDF99DED1A
:101F8000060BBDEC068B02B070BD9DED060B51EC4F
:101F9000100B00F087FECDE9060181489FED828B92
:101FA000A0423CDD8248A0421FDD00249FED82ABB1
:101FB0009DED060B53EC1A2B51EC100BFEF7B5FA06
:101FC0009DED060B41EC190B53EC1A2B51EC100B49
:101FD000FEF752FB53EC182BFEF748FB53EC192B82
:101FE000FEF7BCFBCDE9060149E09DED060B01249F
:101FF00053EC182B51EC100BFEF797FA9DED060BE6
:1020000041EC190B53EC182B51EC100BFEF72EFB87
:1020100053EC192BFEF7A2FBCDE906012FE068482F
:10202000A0421FDD02249FED689B9DED060B53EC43
:10203000192B51EC100BFEF71FFB53EC182BFEF77E
:1020400074FA9DED060B41EC180B53EC192B51EC77
:10205000100BFEF70BFB53EC182BFEF77FFBCDE9C3
:1020600006010CE09DED060B032453EC102B9FEDB5
:10207000580B51EC100BFEF771FBCDE906019DEDFD
:10208000060B53EC102B51EC100BFEF7F5FA41EC5C
:10209000180B53EC182BFEF7EFFA41EC190B4E48D6
:1020A0000621B0EE490AF0EE690A784400F09CF887
:1020B00053EC182B51EC100BFEF7DEFA41EC180B29
:1020C0004648B0EE490AF0EE690A0521784400F06E
:1020D0008BF853EC192B51EC100BFEF7CDFA41ECB9
:1020E000100B51EC180B53EC102B002C0EDAFEF7F2
:1020F0001CFA9DED061B53EC112BFEF7BDFA9DED6E
:10210000061B53EC112BFEF7B4FA35E0FEF70DFA7F
:102110009DED061B53EC112BFEF7AEFA41EC100BB4
:102120002F48784400EBC40090ED001B51EC100BDD
:1021300053EC112BFEF79AFA9DED061B53EC112B75
:10214000FEF794FA41EC100B2648784400EBC400EB
:1021500090ED001B51EC100B53EC112BFEF789FA9C
:1021600041EC100B002DA2BFBDEC068B02B070BD80
:1021700051EC100B81F0004141EC100B01E7000025
:10218000000010440000F07F182D4454FB21F93F5B
:10219000182D4454FB21F9BF0000DC3F0000203E15
:1021A0000000F33F00000000000000000000F03FCE
:1021B0000000E63F000000000000000000000040BA
:1021C0000080034000000000000000000000F83F15
:1021D000000000000000F0BFF21C0000A81C00007E
:1021E000321C0000EA1B000070B504462DED028B86
:1021F0004D1E00EBC500B0EE408AF0EE608A90ED17
:10220000000B35F0060017D053EC182B51EC100BD7
:10221000FEF732FA41EC100B6D1E04EBC50090ED99
:10222000001B51EC100B53EC112BFEF77EF941EC27
:10223000100B35F00600E7D1022D36D0042D1CD04E
:10224000062D1CBFBDEC028B70BD53EC182B51EC5E
:10225000100BFEF711FA94ED0A1B53EC112BFEF74D
:1022600064F953EC182BFEF707FA94ED081B53ECB6
:10227000112BFEF75AF941EC100B53EC182B51ECD3
:10228000100BFEF7F9F994ED061B53EC112BFEF73A
:102290004CF953EC182BFEF7EFF994ED040B53ECCB
:1022A000102BFEF742F941EC100B53EC182B51ECBC
:1022B000100BFEF7E1F994ED021B53EC112BFEF726
:1022C00034F953EC182BFEF7D7F994ED001B53ECBF
:1022D000112BFEF72AF9BDEC028B41EC100B70BDFF
:1022E00010B553EC102B51EC100BFEF71EF941EC1E
:1022F000100B10BD000000009FED050B10B553EC56
:10230000102B51EC100BFEF729FA41EC100B10BD0D
:1023100000000000000000009FED050B10B553EC1D
:10232000102B51EC100BFEF7A7F941EC100B10BD70
:10233000000000000000001002E008C8121F08C1E1
:10234000002AFAD170477047002001E001C1121F36
:10235000002AFBD170470000014908607047000067
:10236000640000202DE9FF5FDDE90220010DDDF8AA
:1023700038B0024318D044F61050A1F2FF31414367
:102380000D140F98012820D0A5EB0B00401C5FEA2C
:10239000000A4FF00004474EDFF81C91A04650465B
:1023A00016D5CAF1000728E00F98012443A201289E
:1023B00008D0002100980F9BC0E90021C0E902432A
:1023C000BDE8FF9F6FEA0B01F4E7CBF10000DEE709
:1023D000074612E0F80707D02246334640464946F2
:1023E000FEF74AF98046894622463346104619468A
:1023F000FEF742F904460E467F10002FEAD1DDE9D0
:102400000201BAF1000F42464B4602DAFEF734F9F8
:1024100001E0FEF7A3F904460E460022284BFEF722
:1024200025FA03D84FF0FF30014607E00022254B84
:1024300020463146FEF779F8FEF7FFF9102409E04F
:10244000002C0ADB0A220023FEF707F8019B30323A
:102450001A55641E50EA0102F2D1641C019AC4F1BB
:10246000110314440F9A012A03D0012208430DD10D
:102470000AE0084304D000204FF0110B0F9080E7D2
:10248000A3EB0B056D1E0DE05B4504DD4FF0000274
:1024900005F1010504E003DA4FF00002A5F10105A2
:1024A000002AECD000980F99C0E90231C0E900453C
:1024B00086E70000000024400000F03F30000000EC
:1024C0000000F0430000E03F2DE9FF4F95B09B4630
:1024D0008946064600250FE2252877D100242746A5
:1024E000F84A0121059400E0044316F8013F203B1F
:1024F00001FA03F01042F7D130782A2811D06FF09A
:102500002F033078A0F13002092A16D8059A44F03A
:10251000020402EB820203EB42021044761C059097
:10252000EFE759F8042B0592002A03DA504244F4ED
:102530000054059044F00204761C30782E2816D101
:1025400016F8010F44F004042A280DD06FF02F0272
:102550003078A0F13003092B09D807EB870302EB91
:102560004303C718761CF3E759F8047B761C3078D0
:102570006C280FD006DC4C2817D068280DD06A28AC
:1025800014D104E0742810D07A280FD10DE044F45F
:1025900000140AE044F4801401E044F4401472781A
:1025A000824202D104F58014761C761C30786628AD
:1025B0000BD013DC582877D009DC002875D04528CB
:1025C000F6D04628F4D047281AD19DE118E06328B8
:1025D00035D0642879D0652812D195E1702873D060
:1025E00008DC6728F1D069286FD06E280DD06F28DD
:1025F00006D1B5E073282CD0752875D0782874D012
:102600005A46179990476D1C75E1C4F30250022891
:1026100009D003280DD0D9F8001004280DD00D6082
:1026200009F1040967E1D9F80010EA17C1E900527D
:10263000F6E7D9F800100D80F2E70D70F0E719F811
:10264000041B8DF8001000208DF80100EA460120DF
:1026500003E059F804AB4FF0FF3061074FF0000181
:1026600002D40DE008F101018846B9420FDA804535
:10267000F8DB1AF808100029F4D108E008F101018C
:1026800088468142FADB1AF808100029F6D105982D
:102690005B46A0EB080721463846179A00F094FAEB
:1026A000284400EB080507E04DE029E10DE01AF8A9
:1026B000010B5A4617999047B8F10108F7D25B46CB
:1026C00021463846179A13E142E00A220092C4F3E9
:1026D00002524FF0000A022A08D059F804CB032A0C
:1026E0004FEAEC710AD00DE029E02AE009F1070178
:1026F00021F00702F2E802C1914609E00FFA8CFCD2
:102700004FEAEC71042A03D14FFA8CFC4FEAEC71CA
:10271000002907DA0A460021DCF1000C61EB020116
:102720002D2202E0220504D52B228DF8042001225F
:1027300003E0E20701D02022F7E7904659E00A21A2
:1027400002E010220DE010214FF0000A00910BE092
:1027500010224FF0000A44F004040827009203E01E
:1027600008224FF0000A0092C4F30252022A05D058
:1027700059F804CB0021032A08D009E009F1070128
:1027800021F00702F2E802C1914605E01FFA8CFC35
:10279000042A01D10CF0FF0C4FF00008220728D5C5
:1027A000702806D0009B83F0100353EA0A0305D07B
:1027B0000EE040228DF80420012208E05CEA0102CC
:1027C00006D030228DF804208DF8050002229046B4
:1027D000009B83F0080353EA0A030AD15CEA010272
:1027E00001D1620705D530228DF804204FF0010891
:1027F0007F1E582804D034A003900EA802900DE04C
:1028000036A0F9E753466046009AFDF726FE844657
:102810000398825C0298401E029002705CEA0100FC
:10282000F0D1029806A9081A00F1200A600702D523
:1028300024F4803400E00127574502DDA7EB0A00AD
:1028400000E0002000EB0A01009005984144401A86
:102850000590E00306D45B462146179A059800F0E0
:10286000B3F90544002706E001A85A46C05D179950
:1028700090476D1C7F1C4745F6DBE0030CD55B469B
:102880002146179A059800F09FF9054404E030208E
:102890005A46179990476D1C0099481E00900029D0
:1028A000F5DC08E0029802995A460078491C02912A
:1028B000179990476D1CBAF10001AAF1010AF1DCE9
:1028C00065E10000092801003031323334353637F4
:1028D000383961626364656600000000303132336C
:1028E000343536373839414243444546000000000C
:1028F00000F058F90544761C307800287FF4ECADE0
:1029000019B02846BDE8F08F620700D4062709F108
:10291000070222F0070CFCE80223E14603F000481E
:102920005FEA080C02D00FF2702C0DE05FEA045C45
:1029300002D50FF2682C07E05FEAC47C02D00FF2E8
:10294000602C01E0AFF2700C4FF0FF3823F0004331
:10295000CDF850C065280CD006DC452809D04628A3
:102960001DD047283DD13DE0662818D067287ED18C
:1029700038E00021112F01DB112000E0781CCDE9A7
:10298000000106A90EA8FFF7EDFCDDE90F010E9A84
:1029900003910021009207F1010A04914DE04FF0EC
:1029A00000400097CDE9011006A90EA8FFF7DAFC58
:1029B000DDE90F0203920E9B11990022DDF80CA0B5
:1029C0000093049211B9791C00EB010AB7EB0A00DD
:1029D00004D4C0F1FF3007F1010A0490AAEB07000C
:1029E000019044E0012F00DA01270021112F01DDC1
:1029F000112000E03846CDE9000106A90EA8FFF736
:102A0000B1FCDDE90F010E9A0391002104910092BF
:102A1000BA4621070CD40399514500DA8A46BAF127
:102A2000010F05DD009AAAF10101515C302908D09F
:102A3000B84202DA10F1040F06DA0121CDE90110E3
:102A400015E0AAF10101E9E7002805DC0499014439
:102A50000491AAEB000102E0411C514500DD8A46C9
:102A60000499401A401C01904FF00040029020074A
:102A700004D40198504501DBCDF8048000208DF886
:102A80004F0002980DF14F07B0F1004F25D02B20D9
:102A90000E9002984FF0020800280CDA4042029093
:102AA0002D200E9007E00A210298FDF7C0FC30317E
:102AB000029007F8011DB8F10001A8F10108F2DC4D
:102AC00002980028EFD1791E0E980870307800F037
:102AD000200040F0450007F8020D12A8C01B00F1CD
:102AE00007081498007800B1012000EB0A01019852
:102AF00001EBE07105984144401A401E0590E00347
:102B000006D45B462146179A059800F05DF8054407
:102B10001498007818B15A46179990476D1CE00335
:102B200024D55B462146179A059800F04DF80544D8
:102B30001CE00498002807DBDDE90301884203DD7F
:102B40000098405C179901E0179930205A46904749
:102B5000049805F10105401C04900198401E019065
:102B600004D12E205A46179990476D1CBAF10001E6
:102B7000AAF1010ADDDC05E017F8010B5A461799A6
:102B800090476D1CB8F10001A8F10108F4DC5B4628
:102B90002146179A0598ABE62D0000002B00000097
:102BA000200000002DE9F041044600251E4617468E
:102BB000880404D405E039462020B0476D1C641E0B
:102BC000F9D52846BDE8F0812DE9F04104460025FD
:102BD0001E469046C80301D5302700E02027880410
:102BE00004D505E041463846B0476D1C641EF9D552
:102BF0002846BDE8F0810000F0EE400A0A4890ED5A
:102C0000000A30EE200A80ED000A084890ED000A24
:102C100020EE200A064890ED001A0348D0ED001A75
:102C200001EE210A704700005400002050000020EF
:102C30004C00002010B50346002000E0401C0A288C
:102C400005DA0B4C04EB00142468002CF6D10A289A
:102C500000D110BD064C04EB00142360044C04EBBF
:102C60000014A260024C04EB0014616000BFF0E7A6
:102C7000E00000200A2800DB70470021084A02EB30
:102C800000121160064A02EB00129160044A02EB46
:102C900000125160024A02EB0012117300BFEBE711
:102CA000E000002082B0CDE9000121F00040019059
:102CB0009DED000B02B051EC100B704770B504464F
:102CC0000D46A1B20548FEF744FF00BF402103486E
:102CD000FEF76EFE0028F9D0204670BD00100140BE
:102CE00010B5002821D0114B0022001F196803E005
:102CF000814203D80A4649680029F9D152B11368C4
:102D0000841A9C4204D1006818441060104602E006
:102D1000506000E0186039B102680B1A934203D189
:102D20000B681A4402604968416010BD5C000020D5
:102D300010B51F4A1F49204800F0E4FB002433E08F
:102D40001D4800EB840090ED000A1C4800EB840055
:102D5000D0ED000A30EE200A194800EB840080ED27
:102D6000000A144800EB840090ED000A154800EBBF
:102D70008400D0ED000A30EE200A134800EB8400F6
:102D800080ED000A0A4800EB840090ED000A0F482D
:102D900000EB8400D0ED000A20EE200A0C4800EB86
:102DA000840080ED000A641C032CC9DB10BD000008
:102DB000800000207400002068000020BC0000207B
:102DC0008C000020C800002098000020B0000020E7
:102DD000A4000020D0ED000A60EEA00A90ED011AD8
:102DE000D0ED011AB0EE600A01EE210AB5EEC00A7C
:102DF000F1EE10FA04DBF1EEC00AC1ED000A04E0C6
:102E0000DFED060AC1ED000A00BF9FED040A81ED67
:102E1000010A90ED020A81ED020A704700000000ED
:102E200010B5029C91ED010AD2ED020A20EE200AB3
:102E3000D1ED020A92ED011A00EEC10AD3ED010AAA
:102E400094ED021A60EE810A93ED021AD4ED011A94
:102E500041EE610A30EE200A80ED000A91ED020A8F
:102E6000D2ED000A20EE200AD1ED000A92ED021AFE
:102E700000EEC10AD3ED020A94ED001A60EE810A59
:102E800093ED001AD4ED021A41EE610A30EE200AE9
:102E900080ED010A91ED000AD2ED010A20EE200A30
:102EA000D1ED010A92ED001A00EEC10AD3ED000A3D
:102EB00094ED011A60EE810A93ED011AD4ED001A27
:102EC00041EE610A30EE200A80ED020A10BD0000DA
:102ED0002DE9F04106460F4615465548046800BFE7
:102EE000601E040006D04FF400313046FEF71CF897
:102EF0000028F5D12CB901204E490870FF20BDE80B
:102F0000F08101213046FDF7F7FF4948046800BF12
:102F1000601E040005D048493046FDF79BFF00289D
:102F2000F6D024B9012043490870FF20E7E70022CA
:102F300039463046FEF78EF83D48046800BF601EF3
:102F4000040005D03D493046FDF784FF0028F6D047
:102F500024B9012037490870FF20D0E729463046C0
:102F6000FEF780F83248046800BF601E040006D0F7
:102F70003249891C3046FDF76DFF0028F5D024B991
:102F800001202C490870FF20B9E701213046FDF7E8
:102F9000B3FF2748046800BF601E040005D026491F
:102FA0003046FDF757FF0028F6D024B9012021490B
:102FB0000870FF20A3E7012239463046FEF74AF8A1
:102FC0001B48046800BF601E040006D01A49491C53
:102FD0003046FDF73FFF0028F5D024B90120154900
:102FE0000870FF208BE700213046FDF727FF012105
:102FF0003046FDF78DFF0E48046800BF601E0400D8
:1030000006D00D493F313046FDF724FF0028F5D0AA
:1030100024B9012007490870FF2070E73046FEF709
:1030200015F8804601213046FDF708FF404666E767
:103030001400002018000020010003008200070097
:1030400000B58BB001210720FEF71CFA01214805CD
:10305000FEF728FA01214805FEF734FA00214FF463
:103060000010FEF72FFA042206212248FDF7BDFECC
:10307000042207211F48FDF7B8FEC0200990022056
:103080008DF828008DF8290001208DF82A000020F5
:103090008DF82B0009A91748FDF75FFE1648FDF7CC
:1030A000FBFE0020ADF818004BF6FF70ADF81A00DB
:1030B0000020ADF81C004FF48060ADF81E000F48F2
:1030C00005904FF48040ADF8200005A90A48FDF7AF
:1030D00049FF01210848FDF7D2FE01A8FEF712FAC8
:1030E00042F210710198B0FBF1F0054908600BB095
:1030F00000BD00000004024000540040A086010012
:103100001400002010B510210148FDF791FE10BDFC
:103110000008024086B00020039004900590FDF75F
:1031200013FE00F03BFB01210420FEF7ABF9012068
:103130008DF8080000208DF80A0003208DF80900A2
:1031400000208DF80B001020019001A90D48FDF71B
:1031500004FEFFF775FF00F0A7F9FDF7AFFC0022B2
:1031600064210948FFF766FD002264210748FFF744
:1031700061FD002264210648FFF75CFD01E000F0DC
:10318000E7FAFCE70008024005310008312D00088D
:1031900049110008F0B50B30154D20F0070100244F
:1031A000144A0FE003688B420BD38B4205D95E1A99
:1031B00043184768C3E9006700E04368136002C032
:1031C00004E0021D10680028ECD12046002802D13E
:1031D000286808B10020F0BD064A07481060074A79
:1031E000121A22F00702C0E9002401202860D7E764
:1031F000600000205C00002084010020800300208B
:103200002DE9F0432DED068BA1B006460F46904602
:103210009D4A07CA15AB07C39B4A0C3207CA12ABBB
:1032200007C300200F90109011900C900D900E90FD
:1032300018AA1BA91EA800F065F99DED1E0A8DEDC8
:10324000150A9DED1F0A8DED160A9DED200A8DEDE4
:10325000170A9DED1B0A8DED0F0A9DED1C0A8DEDE1
:10326000100A9DED1D0A8DED110A4FF0000971E065
:1032700018AA1BA91EA800F045F9002566E01EA8A3
:1032800000EB850090ED000A15A800EB8500D0ED5D
:10329000000AB4EEE00AF1EE10FA0ADD1EA800EB17
:1032A000850090ED000A15A800EB850080ED000A6E
:1032B00018E01EA800EB850090ED000A12A800EBB4
:1032C0008500D0ED000AB4EEE00AF1EE10FA09D262
:1032D0001EA800EB850090ED000A12A800EB850007
:1032E00080ED000A1BA800EB850090ED000A0FA8F6
:1032F00000EB8500D0ED000AB4EEE00AF1EE10FA22
:103300000ADD1BA800EB850090ED000A0FA800EB7A
:10331000850080ED000A18E01BA800EB850090ED09
:10332000000A0CA800EB8500D0ED000AB4EEE00A1C
:10333000F1EE10FA09D21BA800EB850090ED000A0F
:103340000CA800EB850080ED000A6D1C032D96DBB8
:1033500009F10109B9F1C70F8ADB002449E015A87A
:1033600000EB840090ED000A12A800EB8400D0ED81
:10337000000A30EE200AF0EE000A80EE201A09A8BA
:1033800000EB840080ED001A0FA800EB840090EDA4
:10339000000A0CA800EB8400D0ED000A30EE200AF1
:1033A000F0EE000A80EE201A06A800EB840080ED03
:1033B000001A022C01DB012000E0002000EE100AC0
:1033C000B8EEC00A09A800EB8400D0ED000A30EE88
:1033D000600A06EB840080ED000A06A800EB84007A
:1033E00090ED000AB1EE400A07EB840080ED000A80
:1033F000641C032CB3DB05A8FDF742FB002417E097
:1034000005A8005D803800EE100AB8EEC00AF6EE9E
:10341000000A60EE200A9FED1D1A80EE810AF7EE89
:10342000000A30EE200A08EB840080ED000A641CDC
:10343000032CE5DB9DED0B0A10EE101A0846FCF795
:10344000C7FF41EC180B9DED140A10EE101A084648
:10345000FCF7BEFF41EC190B9DED170A10EE101A98
:103460000846FCF7B5FF41EC1A0B8DED028B8DED94
:10347000009B53EC1A2B06A0FEF772FB21B0BDECAB
:10348000068BBDE8F0830000CC3C00080000004340
:10349000617A206D6178202566206D696E20256631
:1034A000206D69642025660010B500236B22D021B1
:1034B000134800F077FA07231922D021104800F0B2
:1034C00071FA06231A22D0210D4800F06BFA182356
:1034D0001B22D0210A4800F065FA01231C22D021CA
:1034E000074800F05FFA00236A22D021044800F068
:1034F00059FA02233722D021014800F053FA10BDB7
:10350000005400402DE9F04186B006460F46904633
:103510006A4602A904A800F059F8002416E0012028
:1035200000EB440004A9085C11F8141040EA0120E3
:1035300005B200EE105AB8EEC00ADFED220A80EEA6
:10354000201A06EB840080ED001A641C032CE6DBD5
:10355000002416E0012000EB440002A9085C11F8E9
:10356000141040EA012005B200EE105AB8EEC00A6D
:10357000DFED150A80EE201A07EB840080ED001ABB
:10358000641C032CE6DB002416E0012000EB440061
:103590001DF800001DF8141040EA012005B200EEED
:1035A000105AB8EEC00AF0EE080A80EE201A08EBB6
:1035B000840080ED001A641C032CE6DB06B0BDE835
:1035C000F0810000000080463333834170B504462B
:1035D0000D4616463B22D0213C48FFF779FC20706F
:1035E0003C22D0213948FFF773FC60703D22D02186
:1035F0003648FFF76DFCA0703E22D0213348FFF71C
:1036000067FCE0703F22D0213048FFF761FC207159
:103610004022D0212D48FFF75BFC60714322D0216E
:103620002A48FFF755FC28704422D0212748FFF78D
:103630004FFC68704522D0212448FFF749FCA87050
:103640004622D0212148FFF743FCE8704722D021D1
:103650001E48FFF73DFC28714822D0211B48FFF788
:1036600037FC687101230A221821184800F09AF9E2
:1036700000BF022218211548FFF72AFC0128F8D1C3
:10368000042218211148FFF723FC3070032218216F
:103690000E48FFF71DFC7070062218210B48FFF73B
:1036A00017FCB070052218210848FFF711FCF070D4
:1036B000082218210548FFF70BFC3071072218215A
:1036C0000248FFF705FC707170BD00000054004017
:1036D0002DE9F0412DED028B06460D469FED1B0AAC
:1036E000F0EE408AA8464FEA8800FFF753FD0746F0
:1036F0003A4629463046FCF705FE002408E007EB71
:10370000840090ED000A30EE280AF0EE408A641C36
:10371000AC42F4DBB0EE680AFDF788FEB0EE408AFA
:1037200000240AE006EB840090ED000A20EE080A6F
:1037300006EB840080ED000A641CAC42F2DB3846E4
:10374000FFF7CEFABDEC028BBDE8F081000000006F
:1037500010B500241CE0104800EB04100068B0B164
:103760000D4800EB0410007B88B100200A4901EBF2
:1037700004110873084901EB0411086880470648E2
:1037800000EB0410406810B9E0B2FFF773FA641C54
:103790000A2CE0DB10BD0000E00000203EB5002454
:1037A00011E00020194901EB04114860174901EBB1
:1037B00004110873154901EB04118860134901EBEA
:1037C00004110860641C0A2CEBDB01210846FDF79C
:1037D00069FE6846FEF730F80020ADF800001020C2
:1037E000ADF802000020ADF80800094801906946D4
:1037F0004FF08040FDF7DEFF012211469007FDF7F4
:10380000D0FF01218807FDF7AFFF3EBDE00000209B
:103810003F90020070B52DED0A8B04460D4694EDE5
:10382000010AD4ED020A20EE200AD4ED000A94ED3C
:10383000031A00EE810AF0EE000A20EE201A94ED41
:10384000020A20EE000AD4ED030AD4ED031A00EEBA
:10385000A10AF7EE000AF0EE001A41EEC00A81EE6E
:10386000200A10EE106A3046FCF7B2FD41EC1B0B4B
:10387000B0EE4B0AF0EE6B0AFEF74AFBB0EE40AA40
:10388000F0EE60AA51EC1A0BFCF7B5FD09EE100A38
:1038900094ED010AD4ED030A20EE200AD4ED000ACB
:1038A00094ED021A00EEC10AF0EE000A20EE200AA2
:1038B00010EE101A0846FCF78BFD41EC1C0BB0EE25
:1038C0004C0AF0EE6C0AFEF773F9B0EE40BAF0EE77
:1038D00060BA51EC1B0B81F0004141EC1A0BFCF774
:1038E0008AFD08EE900A94ED020AD4ED030A20EE58
:1038F000200AD4ED000A94ED011A00EE810AF0EEE0
:10390000000A20EE201A94ED010A20EE000AD4ED00
:10391000020AD4ED021A00EEA10AF7EE000AF0EE58
:10392000001A41EEC00A81EE200A10EE106A3046FD
:10393000FCF74EFD41EC1B0BB0EE4B0AF0EE6B0AB0
:10394000FEF7E6FAB0EE40AAF0EE60AA51EC1A0BD0
:10395000FCF751FD08EE100ADFED100A89EE200A8F
:10396000DFED0F0A20EE200A85ED000ADFED0B0ADD
:1039700088EEA00ADFED0A0A20EE200A85ED010A92
:10398000DFED060A88EE200ADFED050A20EE200AA8
:1039900085ED020ABDEC0A8B70BD0000DB0F4940CB
:1039A000000034432DE9F0410746884615461E467F
:1039B0003448046800BF601E040006D04FF4003194
:1039C0003846FDF7B1FA0028F5D114B901202E4987
:1039D000087001213846FDF78FFA2A48046800BFB5
:1039E000601E040005D029493846FDF733FA002847
:1039F000F6D014B901202449087000224146384607
:103A0000FDF728FB1F48046800BF601E040005D0B6
:103A10001F493846FDF71EFA0028F6D014B90120D8
:103A20001949087029463846FDF71CFB15480468FB
:103A300000BF601E040006D01549891C3846FDF7FA
:103A400009FA0028F5D014B901200F490870314651
:103A50003846FDF707FB0B48046800BF601E0400F2
:103A600006D00B49891C3846FDF7F4F90028F5D03B
:103A700014B901200449087001213846FDF748FABD
:103A8000BDE8F081140000201800002001000300B0
:103A90008200070000B52DED048B83B041EC190BBB
:103AA000FCF79CFF41EC180B18EE100A18EE901A68
:103AB0008DED008B002818BF0120084320F0004046
:103AC000C0F17F6000F1E040C00F14D019EE101A71
:103AD00019EE900A8DED009B002918BF01210843C3
:103AE00020F00040C0F17F6000F1E040C00F04BF53
:103AF0000120FEF731FC51EC180B03B0BDEC048B38
:103B000000BD0000002021E0124901EB001109680E
:103B1000D9B1104901EB0011896869B901210D4A39
:103B200002EB001211730B4901EB00114968094ABD
:103B300002EB0012916008E0064901EB0011896870
:103B4000491E044A02EB00129160401C0A28DBDB8C
:103B500070470000E00000200FB50022D0ED000A01
:103B6000CDED000AD0ED010ACDED010AD0ED020A3B
:103B7000CDED020AD0ED030ACDED030AF0EE000A06
:103B8000C0EE201AD1ED000AF1EE600A90ED011AA4
:103B900060EE810A91ED011A90ED022A41EE420A8F
:103BA00091ED021A90ED032A41EE420A9DED001AB2
:103BB00001EEA01A80ED001AF0EE000AC0EE201A05
:103BC000D1ED000A90ED001A60EE810A91ED021A23
:103BD00090ED022A41EE020A91ED011A90ED032ABE
:103BE00041EE420A9DED011A01EEA01A80ED011A84
:103BF000F0EE000AC0EE201AD1ED010A90ED001A95
:103C000060EE810A91ED021A90ED012A41EE420A1E
:103C100091ED001A90ED032A41EE020A9DED021A81
:103C200001EEA01A80ED021AF0EE000AC0EE201A92
:103C3000D1ED020A90ED011A60EE810A91ED011AB0
:103C400090ED012A41EE020A91ED022AD0ED022AFE
:103C5000B0EE601A02EE621ADDED030A41EE810A4F
:103C6000C0ED030A0FBD0EB50246D1ED000AB0EE5D
:103C7000600AFEF7C1FF8DED000AD1ED010AB0EE3A
:103C8000600AFEF7B9FF8DED010AD1ED020AB0EE30
:103C9000600AFEF7B1FF8DED020A92ED000ADDED3C
:103CA000000A30EE200A82ED000A92ED010ADDEDF5
:103CB000010A30EE200A82ED010A92ED020ADDEDE2
:103CC000020A30EE200A82ED020A0EBD000000005A
:103CD000000000000000803F000000000000000025
:103CE0000000803F00000000555555555555C53F13
:103CF0007D6FEB0312D6D4BF5544880E55C1C93F22
:103D00003B8F68B52882A4BF88B20175E0EF493FB8
:103D100009F7FD0DE13D023F4B2D8A1C273A03C0F8
:103D2000C88A599CE52A004059018D1B6C06E6BFE4
:103D300082922EB1C5B8B33F4FBB610567ACDD3F82
:103D4000182D4454FB21E93F9BF681D20B73EF3FC2
:103D5000182D4454FB21F93FE2652F227F2B7A3C3A
:103D6000075C143326A6813CBDCBF07A8807703CF3
:103D7000075C143326A6913CC4EB98999999C9BF66
:103D8000711623FEC671BCBF6D9A74AFF2B0B3BF9B
:103D90009AFDDE522DDEADBF2F6C6A2C44B4A2BF5B
:103DA0000D5555555555D53FFF8300922449C23FC7
:103DB0006E204CC5CD45B73F513DD0A0660DB13FFB
:103DC000EB0D76244B7BA93F11DA22E33AAD903F0D
:103DD000F03D0008000000206800000038230008C3
:103DE000583E00086800002018070000482300081B
:103DF0000000000001020304010203040607080991
:103E000001000000000000000000000000000000B1
:103E100000000000000000000000000000000000A2
:103E20000000803F000000000000000000000000D3
:103E300000000000000000000000803F00000000C3
:103E40000000004000000000000000000000000032
:083E500000000000000000006A
:040000050800018965
:00000001FF
