:020000040800F2
:10000000D80400209D01000879030008710300084E
:10001000750300085D020008130B000800000000D3
:100020000000000000000000000000008105000842
:100030006102000800000000350400087106000895
:10004000B7010008B7010008B7010008B7010008B0
:10005000B7010008B7010008B7010008B7010008A0
:10006000B7010008B7010008B7010008B701000890
:10007000B7010008B7010008B7010008B701000880
:10008000B7010008B7010008B7010008B701000870
:10009000B7010008B7010008B7010008B701000860
:1000A000B7010008B7010008B7010008B701000850
:1000B00001070008B7010008B7010008B7010008F0
:1000C000B7010008B7010008B7010008B701000830
:1000D000B701000805080008B7010008B7010008CB
:1000E000B7010008B7010008B7010008B701000810
:1000F000B7010008B7010008B7010008B701000800
:10010000B7010008B7010008B7010008B7010008EF
:10011000B7010008B7010008B7010008B7010008DF
:10012000B7010008B7010008B7010008B7010008CF
:10013000B7010008B7010008B7010008B7010008BF
:10014000B7010008B7010008B7010008B7010008AF
:10015000B7010008B7010008B7010008B70100089F
:10016000B7010008B7010008B7010008B70100088F
:10017000B7010008B7010008B7010008B70100087F
:10018000B7010008B7010008DFF80CD000F018F83C
:1001900000480047B50B0008D804002006488047F7
:1001A00006480047FEE7FEE7FEE7FEE7FEE7FEE75C
:1001B000FEE7FEE7FEE7FEE7990600088901000872
:1001C000064C074D06E0E06840F0010394E80700A4
:1001D00098471034AC42F6D3FFF7DAFF500D000811
:1001E000700D000870B500F0C8F800F083FC1748E7
:1001F0000068174AB0FBF2F1481EB0F1807F00D3CF
:100200001BE0481E4FF0E022506150170F220028DB
:1002100007DA13071D0E0F4B00F00F04241F1D55A6
:1002200003E013071C0E0C4B1C5400BF00204FF0C2
:10023000E02290610720106100BF4FF0E0200069CC
:1002400020F001004FF0E021086170BD1000002097
:100250008096980018ED00E000E400E000BFFEE7A3
:10026000704700001E20094908604FF0E020006937
:1002700040F003004FF0E021086100BF0348006830
:100280000028FBD1014908607047000030000020C1
:10029000F0B50A4600210023002400BF3DE00125FF
:1002A00005FA01F3156805EA03049C4234D1056898
:1002B0004F000326BE40B543056015794E00B5409A
:1002C0000668354305601579012D02D01579022D98
:1002D00016D185684F000326BE40B5438560557929
:1002E0004E00B540866835438560456801268E40DE
:1002F000B5434560456896798E40B6B23543456052
:10030000C5684F000326BE40B543C560D5794E0091
:10031000B540C6683543C560491C1029BFD3F0BD40
:10032000F0B5002300244D07ED0E02FA05F3CE10C0
:1003300000F1200555F826504E07F70E0F26BE4057
:10034000B543CF1000F1200646F82750CE1000F13B
:10035000200555F8265045EA0304CE1000F120058B
:1003600045F82640F0BD0AB1018300E041837047A3
:1003700000BFFEE700BFFEE7704708B525208DF8F7
:10038000000001208DF8010000208DF802000120FE
:100390008DF80300684600F011F81C208DF800006D
:1003A00001208DF8010003208DF8020001208DF856
:1003B0000300684600F002F808BD000070B5002197
:1003C00000230F22C4781CB3174C246804F4E064A3
:1003D000C4F5E064C4F30721C1F10404E3B20A41A7
:1003E00044789C40E1B28478144021430C07210EEC
:1003F0000E4C05786155047804F01F050124AC40CB
:1004000005786D11AD0005F1E025C5F8004109E062
:10041000047804F01F050124AC40054D06787611E0
:1004200045F8264070BD00000CED00E000E400E05F
:1004300080E100E07047000029B1064A12680243DB
:10044000044B1A6004E0034A12688243014B1A60AD
:10045000704700003038024029B1064A1268024352
:10046000044B1A6004E0034A12688243014B1A608D
:10047000704700004038024029B1064A1268024322
:10048000044B1A6004E0034A12688243014B1A606D
:100490007047000044380240F0B5002100220024DB
:1004A000022500260223324F3F6807F00C0121B1DC
:1004B000042905D0082937D105E02E4F076036E022
:1004C0002D4F076033E02A4F3F1F3F68C7F3805628
:1004D000274F3F1F3F6807F03F036EB1264FB7FB22
:1004E000F3F7DFF88CC0ACF1040CDCF800C0CCF3FF
:1004F000881C07FB0CF40CE01E4FB7FBF3F7DFF88A
:1005000070C0ACF1040CDCF800C0CCF3881C07FB15
:100510000CF4174F3F1F3F68C7F301477F1C7D0056
:10052000B4FBF5F7076002E0124F076000BF00BFA1
:100530000F4F3F6807F0F0010909104F7A5C076818
:10054000D74047600A4F3F6807F4E051890A0B4FD4
:100550007A5C4768D7408760054F3F6807F4604181
:10056000490B064F7A5C4768D740C760F0BD000072
:10057000083802400024F40000127A000000002035
:10058000704700000CB500200190009034480068CE
:1005900040F480303249086000BF3148006800F400
:1005A000003000900198401C0190009818B9019803
:1005B000B0F5A04FF1D12A48006800F4003010B126
:1005C0000120009001E0002000900098012846D111
:1005D00023484030006840F0805021494031086095
:1005E0002048006840F440401E4908601C4808301C
:1005F00000681B49083108600846006840F4004064
:1006000008600846006840F4805008601648091FDA
:100610000860081F006840F08070091F086000BF74
:100620000F48006800F000700028F9D040F2057013
:100630000E4908600A480830006820F003000849A5
:10064000083108600846006840F00200086000BFFA
:1006500003480830006800F00C000828F8D10CBDF1
:10066000003802400070004008544007003C02403F
:1006700008480068401E07490860084600680128CD
:1006800007D14FF0E020006920F003004FF0E02197
:10069000086170473000002010B51548006840F42C
:1006A0007000134908601348006840F001001149C8
:1006B000086000200F49083108600E4800680E49A4
:1006C00008400C4908600D48091D0860081F0068B3
:1006D00020F48020091F0860002006490C310860C2
:1006E000FFF750FF4FF0006001498039086010BDEE
:1006F00088ED00E000380240FFFFF6FE10300024D5
:1007000010B50121880700F017F808B100F0F6FADB
:100710000121880700F001F810BDCA43028270472A
:1007200021B1028842F00102028004E002884FF603
:10073000FE731A400280704730B502460020002345
:100740000024158A05EA0103958905EA010413B11D
:100750000CB1012000E0002030BD1AB183890B43A9
:10076000838102E083898B43838170470022028862
:10077000184B98420ED0184B98420BD0B0F1804FD6
:1007800008D0164B984205D0154B984202D0154B15
:10079000984204D14FF68F731A404B881A43124B7C
:1007A000984207D0114B984204D04FF6FF431A40AD
:1007B0000B891A4302804B68C3620B880385054B83
:1007C000984202D0044B984201D18B7A03860123D0
:1007D0008382704700000140000401400004004093
:1007E00000080040000C00400010004000140040D1
:1007F0004FF0FF3141600021018001814180817211
:100800007047000010B540F22551064800F0B9F8D5
:1008100030B1044800F074F9C4B2204600F004F886
:1008200010BD00000010014010B5044621460548E7
:1008300000F06BF900BF4021024800F095F8002855
:10084000F9D010BD0010014001F40072B2F5007F34
:1008500000D100BFCA430280704721B1828942F4AF
:100860000052828104E082894DF6FF731A40828132
:10087000704700001FB54FF4E13000900020ADF844
:100880000400ADF80600ADF80800ADF80C000C202F
:10089000ADF80A006946104800F0C2F8012240F2A3
:1008A00025510D4800F097F801210B48FFF7D5FFBF
:1008B00069460A4800F0B4F8012240F22551074881
:1008C00000F089F801210548FFF7C7FF40210348E0
:1008D000FFF7BAFF1FBD00000010014000480040B4
:1008E0001CB501210846FFF7A7FD01211020FFF7E5
:1008F000C3FD01210220FFF79FFD01218804FFF7BE
:10090000ABFD072209211648FFF70AFD07220A213D
:100910001348FFF705FD07220B211248FFF700FDE2
:1009200007220A210F48FFF7FBFC02208DF8050083
:100930008DF8040000208DF8060001208DF80700D6
:100940004FF44060009069460648FFF7A1FC4FF461
:10095000C060009069460248FFF79AFC1CBD000089
:10096000000002400004024002460020B1F5007F72
:1009700000D100BF13880B400BB1012000E0002024
:10098000704770B50246002400230025002040F681
:100990006A16B14200D100BFC1F3421501F01F0336
:1009A000012606FA03F3012D02D19689334006E0B1
:1009B000022D02D1168A334001E0968A33400C1290
:1009C000012606FA04F41688344013B10CB1012054
:1009D00000E0002070BDF0B503460024002600258D
:1009E000002040F66A17B94200D100BF1846C1F393
:1009F000421401F01F06012707FA06F5012C01D168
:100A00000C3004E0022C01D1103000E014301AB197
:100A100007682F43076002E00768AF430760F0BD37
:100A20002DE9FF4705460E460024A14600BFA0461B
:100A3000B08900B100BF2C8A24F44054F0880443EC
:100A40002C82AC8941F20C608443B0883189084320
:100A5000718908430443AC81AC8A24F44074B089A2
:100A60000443AC826846FFF717FD2048854202D058
:100A70001F48854202D1DDF80C9001E0DDF80890B6
:100A8000A88900F4004040B109EBC90000EB09104F
:100A900031684900B0FBF1F707E009EBC90000EB52
:100AA000091031688900B0FBF1F76420B7FBF0F062
:100AB00004012009642101FB1078A88900F400409A
:100AC00040B1322000EBC800B0FBF1F000F00700AD
:100AD000044308E0322000EB08106421B0FBF1F081
:100AE00000F00F0004432C81BDE8FF870010014097
:100AF0000014014010B5FFF7F3FEFFF7BBFE10BD79
:100B000001468888C0F308007047C1F3080282805C
:100B1000704700BFFEE702E008C8121F08C1002AA4
:100B2000FAD170477047002001E001C1121F002A6E
:100B3000FBD170470A2800DB70470021084A02EB0E
:100B400000121160064A02EB00129160044A02EBA7
:100B500000125160024A02EB0012117300BFEBE772
:100B60003400002000B587B001210820FFF764FCA5
:100B7000C020059001208DF8180002208DF8190082
:100B800001208DF81A008DF81B0005A90748FFF712
:100B90007FFB01A8FFF780FC42F210710198B0FBC7
:100BA000F1F00349086007B000BD0000000C0240EE
:100BB0002800002086B00020039004900590FFF7E5
:100BC00011FB00F05FF801210420FFF735FC012044
:100BD0008DF8080000208DF80A0003208DF8090028
:100BE00000208DF80B001020019001A91048FFF79C
:100BF0004FFBFFF7B7FF19E000F01EF8012280213C
:100C00000C48FFF7B0FB002240210A48FFF7ABFB7E
:100C1000FFF728FB002280210648FFF7A4FBFFF71F
:100C200021FB002240210348FFF79DFBE4E7000081
:100C300000080240000C024010B500241CE01048DF
:100C400000EB04100068B0B10D4800EB0410007B0D
:100C500088B100200A4901EB04110873084901EB2F
:100C6000041108688047064800EB0410406810B97A
:100C7000E0B2FFF75FFF641C0A2CE0DB10BD000050
:100C8000340000203EB5002411E00020194901EB9A
:100C900004114860174901EB04110873154901EB71
:100CA00004118860134901EB04110860641C0A2CCC
:100CB000EBDB01210846FFF7CFFB6846FFF798FD05
:100CC0000020ADF800001020ADF802000020ADF8C3
:100CD00008000948019069464FF08040FFF746FD43
:100CE000012211469007FFF738FD01218807FFF721
:100CF00017FD3EBD340000203F900200002021E09F
:100D0000124901EB00110968D9B1104901EB00113A
:100D1000896869B901210D4A02EB001211730B4970
:100D200001EB00114968094A02EB0012916008E0EA
:100D3000064901EB00118968491E044A02EB0012C2
:100D40009160401C0A28DBDB704700003400002063
:100D5000700D00080000002034000000160B000891
:100D6000A40D000834000020A4040000260B000895
:100D70000000000001020304010203040607080941
:100D8000007A030A000000000000000001020304D2
:100D90000607080901000000000000000000000034
:040DA000000000004F
:040000050800018965
:00000001FF
