:020000040800F2
:10000000100400209D010008D5020008CD02000860
:10001000D1020008F1010008AB0800080000000050
:100020000000000000000000000000009D04000827
:10003000F501000800000000710300088D050008AC
:10004000B7010008B7010008B7010008B7010008B0
:10005000B7010008B7010008B7010008B7010008A0
:10006000B7010008B7010008B7010008B701000890
:10007000B7010008B7010008B7010008B701000880
:10008000B7010008B7010008B7010008B701000870
:10009000B7010008B7010008B7010008B701000860
:1000A000B7010008B7010008B7010008B701000850
:1000B000B7010008B7010008B7010008B701000840
:1000C000B7010008B7010008B7010008B701000830
:1000D000B7010008F9050008B7010008B7010008DA
:1000E000B7010008B7010008B7010008B701000810
:1000F000B7010008B7010008B7010008B701000800
:10010000B7010008B7010008B7010008B7010008EF
:10011000B7010008B7010008B7010008B7010008DF
:10012000B7010008B7010008B7010008B7010008CF
:10013000B7010008B7010008B7010008B7010008BF
:10014000B7010008B7010008B7010008B7010008AF
:10015000B7010008B7010008B7010008B70100089F
:10016000B7010008B7010008B7010008B70100088F
:10017000B7010008B7010008B7010008B70100087F
:10018000B7010008B7010008DFF80CD000F018F83C
:1001900000480047CD0800081004002006488047AA
:1001A00006480047FEE7FEE7FEE7FEE7FEE7FEE75C
:1001B000FEE7FEE7FEE7FEE791050008890100087B
:1001C000064C074D06E0E06840F0010394E80700A4
:1001D00098471034AC42F6D3FFF7DAFFD408000892
:1001E000F408000810B500F076F800F04FFB10BDE1
:1001F00000BFFEE77047F0B50A4600210023002447
:1002000000BF3DE0012505FA01F3156805EA030486
:100210009C4234D105684F000326BE40B5430560BB
:1002200015794E00B5400668354305601579012DF6
:1002300002D01579022D16D185684F000326BE40E5
:10024000B543856055794E00B54086683543856075
:10025000456801268E40B5434560456896798E40D5
:10026000B6B235434560C5684F000326BE40B5436E
:10027000C560D5794E00B540C6683543C560491C98
:100280001029BFD3F0BDF0B5002300244D07ED0EBB
:1002900002FA05F3CE1000F1200555F826504E075E
:1002A000F70E0F26BE40B543CF1000F1200646F8EA
:1002B0002750CE1000F1200555F8265045EA0304DA
:1002C000CE1000F1200545F82640F0BD00BFFEE746
:1002D00000BFFEE7704708B525208DF8000001201B
:1002E0008DF8010000208DF8020001208DF8030038
:1002F000684600F001F808BD70B5002100230F2208
:10030000C4781CB3174C246804F4E064C4F5E064BA
:10031000C4F30721C1F10404E3B20A4144789C40CC
:10032000E1B28478144021430C07210E0E4C05786D
:100330006155047804F01F050124AC4005786D1167
:10034000AD0005F1E025C5F8004109E0047804F0AE
:100350001F050124AC40054D0678761145F826406E
:1003600070BD00000CED00E000E400E080E100E082
:100370007047000029B1064A12680243044B1A6014
:1003800004E0034A12688243014B1A607047000080
:100390003038024029B1064A12680243044B1A6001
:1003A00004E0034A12688243014B1A607047000060
:1003B00044380240F0B50021002200240225002626
:1003C0000223324F3F6807F00C0121B1042905D008
:1003D000082937D105E02E4F076036E02D4F076022
:1003E00033E02A4F3F1F3F68C7F38056274F3F1F18
:1003F0003F6807F03F036EB1264FB7FBF3F7DFF816
:100400008CC0ACF1040CDCF800C0CCF3881C07FBFA
:100410000CF40CE01E4FB7FBF3F7DFF870C0ACF143
:10042000040CDCF800C0CCF3881C07FB0CF4174F5D
:100430003F1F3F68C7F301477F1C7D00B4FBF5F702
:10044000076002E0124F076000BF00BF0F4F3F6818
:1004500007F0F0010909104F7A5C0768D740476040
:100460000A4F3F6807F4E051890A0B4F7A5C4768EE
:10047000D7408760054F3F6807F46041490B064F3E
:100480007A5C4768D740C760F0BD0000083802407A
:100490000024F40040787D01000000207047000037
:1004A0000CB50020019000903448006840F4803082
:1004B0003249086000BF3148006800F40030009005
:1004C0000198401C0190009818B90198B0F5A04F10
:1004D000F1D12A48006800F4003010B101200090EA
:1004E00001E0002000900098012846D123484030C8
:1004F000006840F080502149403108602048006881
:1005000040F440401E4908601C48083000681B4900
:10051000083108600846006840F40040086008465A
:10052000006840F4A05008601648091F0860081FC2
:10053000006840F08070091F086000BF0F48006825
:1005400000F000700028F9D040F205700E490860F4
:100550000A480830006820F00300084908310860A4
:100560000846006840F00200086000BF03480830F9
:10057000006800F00C000828F8D10CBD00380240DB
:100580000070004019544007003C024070470000D2
:1005900010B51548006840F470001349086013480E
:1005A000006840F001001149086000200F4908313F
:1005B00008600E4800680E4908400C4908600D4864
:1005C000091D0860081F006820F48020091F0860CA
:1005D000002006490C310860FFF762FF4FF0006011
:1005E00001498039086010BD88ED00E00038024004
:1005F000FFFFF6FE1030002410B540F225510648EA
:1006000000F08BF830B1044800F046F9C4B220463F
:1006100000F004F810BD00000010014010B50446C1
:1006200000BF8021084800F06BF80028F9D021466F
:10063000054800F036F900BF4021034800F060F89B
:100640000028F9D010BD00000010014021B18289BE
:1006500042F40052828104E082894DF6FF731A4011
:10066000828170471FB54FF4E13000900020ADF853
:100670000400ADF80600ADF80800ADF80C000C2041
:10068000ADF80A006946074800F096F8012240F2EA
:100690002551044800F06BF801210248FFF7D6FF0E
:1006A0001FBD0000001001401CB501210846FFF7E6
:1006B00061FE01211020FFF76DFE072209210F487E
:1006C000FFF7E1FD07220A210C48FFF7DCFD4FF49C
:1006D0000070009002208DF805008DF804000020C5
:1006E0008DF8060069460548FFF785FD4FF48060E8
:1006F000009069460148FFF77EFD1CBD00000240E6
:1007000002460020B1F5007F00D100BF13880B40E6
:100710000BB1012000E00020704770B502460024B4
:1007200000230025002040F66A16B14200D100BF28
:10073000C1F3421501F01F03012606FA03F3012D50
:1007400002D19689334006E0022D02D1168A334049
:1007500001E0968A33400C12012606FA04F416884A
:10076000344013B10CB1012000E0002070BDF0B5A1
:100770000346002400260025002040F66A17B942EF
:1007800000D100BF1846C1F3421401F01F06012733
:1007900007FA06F5012C01D10C3004E0022C01D13E
:1007A000103000E014301AB107682F43076002E0F0
:1007B0000768AF430760F0BD2DE9FF4705460E46C9
:1007C0000024A14600BFA046B08900B100BF2C8A1A
:1007D00024F44054F08804432C82AC8941F20C602C
:1007E0008443B08831890843718908430443AC814C
:1007F000AC8A24F44074B0890443AC826846FFF7A5
:10080000D9FD2048854202D01F48854202D1DDF83B
:100810000C9001E0DDF80890A88900F4004040B198
:1008200009EBC90000EB091031684900B0FBF1F792
:1008300007E009EBC90000EB091031688900B0FB43
:10084000F1F76420B7FBF0F004012009642101FBFB
:100850001078A88900F4004040B1322000EBC800B5
:10086000B0FBF1F000F00700044308E0322000EB99
:1008700008106421B0FBF1F000F00F0004432C815C
:10088000BDE8FF87001001400014014010B5FFF7DC
:100890000BFFFFF7E7FE10BD01468888C0F3080094
:1008A0007047C1F308028280704700BFFEE702E094
:1008B00008C8121F08C1002AFAD1704770470020EB
:1008C00001E001C1121F002AFBD17047FFF78AFC2B
:1008D00000BFFEE7F4080008000000201000000040
:1008E000AE08000804090008100000200004000001
:1008F000BE08000800000000010203040102030416
:0409000006070809D5
:040000050800018965
:00000001FF
