:020000040800F2
:10000000E80700209D010008391100082D0F0008A5
:10001000310F0008350C0008E31A0008000000004A
:100020000000000000000000000000005115000862
:100030008F0C00080000000075120008411600082F
:10004000B7010008B7010008B7010008B7010008B0
:10005000B7010008B7010008B7010008B7010008A0
:10006000B7010008B7010008B7010008B701000890
:10007000B7010008B7010008B7010008B701000880
:10008000B7010008B7010008B7010008B701000870
:10009000B7010008B7010008B7010008B701000860
:1000A000B7010008B7010008B7010008B701000850
:1000B000D1160008B7010008B7010008B701000811
:1000C000B7010008B7010008B7010008B701000830
:1000D000B7010008D5170008B7010008B7010008EC
:1000E000B7010008B7010008B7010008B701000810
:1000F000B7010008B7010008B7010008B701000800
:10010000B7010008B7010008B7010008B7010008EF
:10011000B7010008B7010008B7010008B7010008DF
:10012000B7010008B7010008B7010008B7010008CF
:10013000B7010008B7010008B7010008B7010008BF
:10014000B7010008B7010008B7010008B7010008AF
:10015000B7010008B7010008B7010008B70100089F
:10016000B7010008B7010008B7010008B70100088F
:10017000B7010008B7010008B7010008B70100087F
:10018000B7010008B7010008DFF80CD000F00EFC42
:1001900000480047E92F0008E8070020064880478C
:1001A00006480047FEE7FEE7FEE7FEE7FEE7FEE75C
:1001B000FEE7FEE7FEE7FEE7691600088901000892
:1001C0009FED1A1AF5EE000A40EE010ABDEEE00AB4
:1001D000F5EEC00A10EE100AF1EE10FA38BF401E1C
:1001E00000EE100A1349F7EE001AB8EEC00A30EE1E
:1001F000C00ADFED0F0A20EE200AFCEEC00A10EE66
:10020000900AC0F3080000EE900A01EB8000F8EEBF
:10021000600A90ED011A70EE600A90ED000A71EE2E
:10022000E01A21EE800A00EE810A704783F9223E2F
:1002300000000044AC3A0008DFED190AB5EEC00A30
:1002400060EE200ABDEEE01A11EE100AF1EE10FA8F
:1002500038BF401E00EE100A1349F7EE001AB8EE40
:10026000C00A30EEC00ADFED0F0A60EE200ABCEED5
:10027000E00A10EE100AC0F3080000EE100A01EBCD
:100280008000B8EE400A90ED011A70EEC00A90EDC1
:10029000000A71EEE01A21EE800A00EE810A704732
:1002A00083F9223E00000044AC3A000801804280FD
:1002B000436070472DE9F04F82B046685368019360
:1002C000058847884B88002000900888874201BF36
:1002D000B2F800C06545528893421EBF6FF002001D
:1002E00002B0BDE8F08F9FED412A4FEA970EC7F3A9
:1002F000400B00BFDDE9000202EB800A4A68984625
:100300004FF00009B0EE420AB4465FEA0E0025D075
:1003100092ED001ADCED001A02EB8302DCED010A1B
:1003200001EE810A92ED001A02EB8302401ED2ED2B
:10033000001A02EB830200EE810A9CED021ADCED4A
:10034000030A00040CF1100C000C01EE210A92EDDE
:10035000001A02EB830200EE810AD9D117F00300E4
:1003600026D0ACF10404A2EB830210F0010F08D0F8
:1003700002EB8302D4ED010A92ED001A241D00EE77
:10038000810A5FEA0B0013D002EB830CD4ED010A63
:100390009CED001A02EBC302401E00EE810AD4ED70
:1003A000020A92ED001A04F1080400EE810AEBD172
:1003B00009F10100AAEC010A1FFA80F9486800EB74
:1003C0008902A8F101001FFA80F8B8F1000F99D155
:1003D000009806EB8706184480B20090681E05045A
:1003E0002D0C87D102B00020BDE8F08F0000000086
:1003F00010B49FED310A5FEA910C1ED0BCF1004FA2
:100400003DD2BCF1000FC4BF0346644615DD00BFFA
:10041000D3ED000A00EEA00AD3ED010A00EEA00A17
:10042000D3ED020A00EEA00AD3ED030A1033641ED6
:1004300000EEA00AECD100EB0C1011F003011AD071
:10044000B1F1004F30D2002915DD001F11F0010F6E
:1004500004D0D0ED010A001D00EEA00A49080AD020
:10046000D0ED010A00EEA00AD0ED020A0830491EC4
:1004700000EEA00AF4D182ED000A10BC7047D0ED66
:10048000000A00EEA00AD0ED010A00EEA00AD0EDAD
:10049000020A00EEA00AD0ED030A1030BCF1010CF4
:1004A00000EEA00AEBD1C8E7F0EC010A491E00EE0D
:1004B000A00AF9D1DFE700000000000040EA0103D4
:1004C0009B0703D009E008C9121F08C0042AFAD20A
:1004D00003E011F8013B00F8013B521EF9D27047CE
:1004E00000F0004230F000400AD0C10D01F560710B
:1004F000C0F3160042EA0151C20840071143704799
:1005000000200146704701F0004330B421F0004163
:1005100050EA010206D00A0DA2F56072C1F3130180
:10052000002A02DC30BC00207047440F44EAC104BA
:10053000C100E01830BC00EBC25000F047B830B545
:100540000B46014600202022012409E021FA02F591
:100550009D4205D303FA02F5491B04FA02F528442B
:10056000151EA2F10102F1DC30BD2DE9F05F054658
:10057000002092469B4688460646814640241BE062
:10058000284641464746224600F031FA53465A462D
:10059000C01A914110D311461846224600F018FAAD
:1005A0002D1A67EB01084F4622460120002100F07A
:1005B0000FFA17EB00094E41201EA4F10104DFDC05
:1005C000484631462A464346BDE8F09F0029A8BF69
:1005D0007047401C490008BF20F00100704710B46C
:1005E000B0FA80FC00FA0CF050EA010404BF10BC21
:1005F000704749B1CCF1200421FA04F411FA0CF14E
:1006000018BF012121430843A3EB0C01CB1D4FEA86
:1006100000614FEA102042BF002010BC704700EB81
:10062000C35010440029A4BF10BC7047401C4900AF
:1006300008BF20F0010010BC70472DE9FE4F804636
:1006400081EA0300C00F0C46009021F0004123F026
:100650000045B8EB0200A94105D24046214690462C
:100660001C460B46024623F00040104347D0270D9E
:10067000C7F30A00C3F30A510290401A01904028C0
:100680006BDAC3F3130040F4801B0098924620B14C
:100690000023D2EB030A63EB0B0B01985946C0F120
:1006A0004002504600F094F906460D465046594621
:1006B000019A00F0ACF910EB08006141002487EAD0
:1006C000115284EAE7731A4340D0009A62B3019A48
:1006D000012A4FEA075215DC001B61EB02014FF0C3
:1006E000004202EA0752CDE90042001C41F58011A8
:1006F00032462B4600F0ACF903B0BDE8F08F40461F
:100700002146F9E7001B61EB0201001C41F5801353
:1007100000185B412018A2F5001747EB030140EADF
:10072000D570B6196D4111E06D084FEA360645EAFD
:10073000C0754FEA0752001B61EB0201001C41F536
:10074000801149084FEA30000019514132462B46CA
:1007500003B0BDE8F04F00F06CB9009801224000F2
:100760000023D0EB020263EBE073009821464FEACE
:10077000E074B8EB000061EB0401E9E783F00043AB
:100780005BE781F0004158E72DE9FE4F81EA030461
:1007900004F0004421F0004100944FF0000B23F0DE
:1007A000004350EA01045ED052EA03045BD0C3F375
:1007B0000A54C1F30A552C44A4F2F3340194A0FB6B
:1007C0000254C1F3130141F48011C3F3130343F442
:1007D000801301FB024400FB034E840A970A44EA9B
:1007E000815447EA8357A4FB076802958D0A05FBED
:1007F00007854FEA932C04FB0C542705029D4FEA12
:10080000065847EA1637B5EB08056EEB070C870E5E
:10081000920E47EA811742EA8312A7FB0201B6EB68
:100820000B0164EB00042B0D43EA0C335E1844EB20
:100830001C50DA465146E7FB0201C5F313044FEAA8
:100840000B3343EA14534FEA0432019C43EA060394
:10085000A4F10C040294009CCDE900B400F0F8F877
:1008600003B0BDE8F08F00200146F9E72DE9F04D17
:1008700081EA030404F0004B21F0004514464FF0D8
:10088000000A23F0004150EA050220D054EA010298
:100890001DD0C5F30A570246C5F31303C1F3130075
:1008A000C1F30A5640F4801543F48013A7EB060801
:1008B000101BD64608F2FD3873EB050002D308F191
:1008C000010801E092185B41B8F1000F03DA002043
:1008D0000146BDE8F08D00204FF4801106468446A5
:1008E0000EE0171B73EB050705D3121B63EB050323
:1008F00006434CEA010C49084FEA300092185B416C
:1009000050EA0107EDD152EA030012D082EA040056
:1009100083EA0501084305D0101BAB4106D2012232
:10092000002306E000224FF0004302E06FF00102D6
:1009300053101AEB06004CEB085110EB0A0041EB88
:100940000B01BDE8F04D00F074B8C1F30A52C1F3D9
:10095000130140F2FF3341F480119A4202DA002081
:100960000146704740F233439A42A2F2334202DC1E
:10097000524200F03CB800F02BB8000030B5041E25
:1009800071F1000404DB4FF00044404264EB0101CC
:10099000141E73F1000405DB1C464FF00043524265
:1009A00063EB0403994208BF904230BD064C074DEB
:1009B00006E0E06840F0010394E80700984710342F
:1009C000AC42F6D3FFF7E4FB0043000820430008E5
:1009D000202A04DB203A00FA02F1002070479140FF
:1009E000C2F1200320FA03F3194390407047202AF4
:1009F00004DB203A21FA02F00021704721FA02F3C9
:100A0000D040C2F120029140084319467047202A85
:100A100006DBCB17203A41FA02F043EAE07306E026
:100A200041FA02F3D040C2F1200291400843194636
:100A3000704710B5141E73F1000408DA401C41F130
:100A4000000192185B411A4301D120F0010010BD52
:100A50002DE9F04D92469B4611B1B1FA81F202E0C8
:100A6000B0FA80F220329046FFF7B2FF04460F46FC
:100A700040EA0A0041EA0B0153465A46084313D0A4
:100A8000114653EA010019D0C8F140025046FFF761
:100A9000AEFF05460E46504659464246FFF798FFC0
:100AA000084305D0012004E020463946BDE8F08D1A
:100AB0000020054346EAE0762C4337430A98630555
:100AC000E40AA0EB08000022FD0A44EA47540A3079
:100AD00002D500200146E9E7010510196941DDE969
:100AE000084500196941BDE8F04DA2E72DE9F04D38
:100AF00000231A461B1A8A4103DB00200146BDE889
:100B0000F08DC1F30A52C1F3130141F480154FF087
:100B1000000BD10702D100186D41521E0027044678
:100B200040F2FF11384601EB620A3E46804602461B
:100B300000204FF48011FFF75AFFC2197141BB1812
:100B400046EB0100B4EB030C75EB000C04D3E41A84
:100B500065EB000517460E46241908F101006D41AA
:100B600080463428E3DDF91946EB0600091BA8414D
:100B700003D24FF0FF32134601E0002213461BEB75
:100B8000070046EB0A51BDE8F04DFFF752BF10B524
:100B900004460F220A21182002F040FD10211820DF
:100BA00002F0CCF820701121182002F0C7F8607014
:100BB0001121182002F0C2F8A07010BD70B500F02D
:100BC000BCFA00F07FFF17480068174AB0FBF2F14B
:100BD000481EB0F1807F00D31BE0481E4FF0E0229A
:100BE000506150170F22002807DA13071D0E0F4B14
:100BF00000F00F04241F1D5503E013071C0E0C4BBF
:100C00001C5400BF00204FF0E022906107201061CB
:100C100000BF4FF0E020006920F001004FF0E0211C
:100C2000086170BD100000208096980018ED00E06B
:100C300000E400E000BFFEE790ED010AD1ED020AFA
:100C400020EE200AD0ED020A91ED011A00EEC10A51
:100C500082ED000A90ED020AD1ED000A20EE200A92
:100C6000D0ED000A91ED021A00EEC10A82ED010AF0
:100C700090ED000AD1ED010A20EE200AD0ED010A24
:100C800091ED001A00EEC10A82ED020A704770472A
:100C90001E20094908604FF0E020006940F0030081
:100CA0004FF0E021086100BF034800680028FBD135
:100CB000014908607047000024000020F0EE401A4F
:100CC0000A4890ED000A30EE210A80ED000A08483B
:100CD00090ED000A20EE210A064890ED002A034814
:100CE000D0ED002A02EE220A7047000034000020F6
:100CF0003C0000203800002031B52DED040B2DED17
:100D00000A8B0446DDED0C0A9FED4A1A80EE810A3B
:100D1000DFED490A20EE200AB0EE40BADDED0B0A05
:100D20009FED441A80EE810ADFED430A20EE200A8F
:100D3000F0EE40BADDED0A0A9FED3E1A80EE810A20
:100D4000DFED3D0A20EE200AB0EE40CAB0EE000A08
:100D5000CBEE000AF0EE60CAB0EE6C0AFFF730FA94
:100D6000B0EE408AB0EE000ACBEE000AF0EE60CAA8
:100D7000B0EE6C0AFFF760FAF0EE408AB0EE000ABF
:100D8000CBEE800AF0EE60CAB0EE6C0AFFF718FAFC
:100D9000B0EE409AB0EE000ACBEE800AF0EE60CAE8
:100DA000B0EE6C0AFFF748FAF0EE409AB0EE000A97
:100DB000CCEE000AF0EE60CAB0EE6C0AFFF700FA63
:100DC000B0EE40AAB0EE000ACCEE000AF0EE60CA27
:100DD000B0EE6C0AFFF730FAF0EE40AA28EE090AEE
:100DE00020EE0A0A68EEA90A00EEAA0A84ED000ABB
:100DF00028EE890A20EE0A0A68EE290A00EEEA0ABD
:100E000084ED010A28EE290A20EE0A0A68EE890A12
:100E100000EEAA0A84ED020A28EE090A20EE2A0A48
:100E200068EEA90A00EE8A0A84ED030ABDEC0A8B7B
:100E300005B030BD00003443DB0F4940F0B50A4631
:100E400000210023002400BF3DE0012505FA01F345
:100E5000156805EA03049C4234D105684F00032657
:100E6000BE40B543056015794E00B5400668354370
:100E700005601579012D02D01579022D16D18568EE
:100E80004F000326BE40B543856055794E00B540FE
:100E9000866835438560456801268E40B5434560C8
:100EA000456896798E40B6B235434560C5684F00B7
:100EB0000326BE40B543C560D5794E00B540C6682F
:100EC0003543C560491C1029BFD3F0BDF0B50023E0
:100ED00000244D07ED0E02FA05F3CE1000F12005B7
:100EE00055F826504E07F70E0F26BE40B543CF10DB
:100EF00000F1200646F82750CE1000F1200555F8E5
:100F0000265045EA0304CE1000F1200545F826409E
:100F1000F0BD0246002013690B400BB1012000E038
:100F20000020704742694A404261704700BFFEE7B7
:100F300000BFFEE710B598B004460321204600F03C
:100F400059F9032104F1180000F054F915AA1F49BA
:100F500004F1A40000F0C7FD12AA04F1180104F185
:100F6000C80000F0C0FD0FA912A801F0C1FE0CAA34
:100F70000FA904F1A40000F0B6FD0CA804F11803B9
:100F800015AA2146009004F18C0001F083FE204652
:100F900002F035FD204602F066FC042104F1480011
:100FA00000F028F904F18000282204F158010A9089
:100FB0006846FFF783FA04F148000FC800F05CF9B7
:100FC000204602F0A5FB18B010BD0000280000204C
:100FD00010B50248FFF7AEFF10BD00005000002022
:100FE00073B52DED040B2DED028B04460E4604F176
:100FF000800002A90EC90EC0443894ED221AD4ED27
:10100000210A94ED200AFFF777FE204602F080FBCC
:1010100000EE106AB8EE400AF7EE000A80EE801A81
:1010200084ED281A02F086F904F13C0204F1300143
:1010300004F1240002F05CF82DA000F073FD38A04C
:1010400000F070FD002513E004F1240000EB8500A2
:1010500090ED000A10EE101A0846FFF741FA41EC35
:10106000180B53EC182B2FA000F05CFD681CC5B2C8
:10107000032DE9DB2CA000F055FD002513E004F161
:10108000300000EB850090ED000A10EE101A0846C3
:10109000FFF726FA41EC180B53EC182B21A000F0B7
:1010A00041FD681CC5B2032DE9DB21A000F03AFD2B
:1010B000002513E004F13C0000EB850090ED000AF0
:1010C00010EE101A0846FFF70BFA41EC180B53EC20
:1010D000182B14A000F026FD681CC5B2032DE9DB17
:1010E0000EA000F01FFDBDEC028B06B070BD00002D
:1010F0002D2D2D2D2D2D2D2D2D2D2D2D496E697440
:10110000616C2041646A7573742056616C75652D3D
:101110002D2D2D2D2D2D2D2D2D2D2D2D0A000000A9
:1011200061633A00256609000A67793A0000000009
:101130000A6D61673A000000704708B525208DF8F8
:10114000000001208DF8010000208DF80200012030
:101150008DF80300684600F011F81C208DF800009F
:1011600001208DF8010003208DF8020001208DF888
:101170000300684600F002F808BD000070B50021C9
:1011800000230F22C4781CB3174C246804F4E064D5
:10119000C4F5E064C4F30721C1F10404E3B20A41D9
:1011A00044789C40E1B28478144021430C07210E1E
:1011B0000E4C05786155047804F01F050124AC40FD
:1011C00005786D11AD0005F1E025C5F8004109E095
:1011D000047804F01F050124AC40054D0678761113
:1011E00045F8264070BD00000CED00E000E400E092
:1011F00080E100E02DE9F0412DED028B06460D4621
:101200009FED1B0AF0EE408AA8464FEA880001F0E5
:1012100039FF07463A4629463046FFF7E9F80024E9
:1012200008E007EB840090ED000A30EE280AF0EEAB
:10123000408A641CAC42F4DBB0EE680A00F0B8F8F7
:10124000B0EE408A00240AE006EB840090ED000A2C
:1012500020EE080A06EB840080ED000A641CAC4214
:10126000F2DB384601F0EEFCBDEC028BBDE8F0810C
:1012700000000000704700000FB410B52DED0A8B80
:101280001A9C9DED171ADDED191A71EE211AB7EEB1
:10129000001AB0EE002A02EE611AF0EE410A9DED4E
:1012A000151ADDED131A31EE211AF0EE001A21EEB7
:1012B000211AB0EE410A00F023FEB0EE408A9DED07
:1012C000160ADDED120A30EE600AF0EE000A20EE9A
:1012D000200A10EE101A0846FFF702F941EC1C0B29
:1012E000B0EE4C0AF0EE6C0A00F05AFCB0EE40BAD8
:1012F000F0EE60BA51EC1B0B81F0004141EC1A0B8F
:10130000FFF701F909EE100A9DED141ADDED171A29
:1013100071EE211AB7EE001AB0EE002A02EE611A41
:10132000F0EE410A9DED181ADDED111A31EE211A89
:10133000F0EE001A21EE211AB0EE410A00F0E0FDB5
:10134000F0EE408AB5EEC08AF1EE10FA04D29FEDBD
:10135000150A30EE480A01E0B0EE480A9FED121A75
:10136000C0EE010A9FED110A20EE800A84ED000A0A
:10137000DFED0D0A89EE200ADFED0C0A20EE200ACF
:1013800084ED010ADFED080A88EEA00ADFED070A06
:1013900020EE200A84ED020ABDEC0A8B10BC5DF839
:1013A00014FB0000DB0FC940DB0F49400000344351
:1013B000F0EE400AB7EE082AF0EE421AB6EE002A26
:1013C00020EE822AB0EE421AB0EE600A10EE100A49
:1013D0000C49A1EB600000EE100A61EE002AB7EEA6
:1013E000082A02EEC02A22EE002AB0EE420A61EE7E
:1013F000002AB7EE082A02EEC02A22EE002AB0EE3A
:10140000420A7047865A375F29B1064A126802437A
:10141000044B1A6004E0034A12688243014B1A60CD
:10142000704700003038024029B1064A1268024372
:10143000044B1A6004E0034A12688243014B1A60AD
:10144000704700004038024029B1064A1268024342
:10145000044B1A6004E0034A12688243014B1A608D
:101460007047000044380240F0B5002100220024FB
:10147000022500260223324F3F6807F00C0121B1FC
:10148000042905D0082937D105E02E4F076036E042
:101490002D4F076033E02A4F3F1F3F68C7F3805648
:1014A000274F3F1F3F6807F03F036EB1264FB7FB42
:1014B000F3F7DFF88CC0ACF1040CDCF800C0CCF31F
:1014C000881C07FB0CF40CE01E4FB7FBF3F7DFF8AA
:1014D00070C0ACF1040CDCF800C0CCF3881C07FB36
:1014E0000CF4174F3F1F3F68C7F301477F1C7D0077
:1014F000B4FBF5F7076002E0124F076000BF00BFC2
:101500000F4F3F6807F0F0010909104F7A5C076838
:10151000D74047600A4F3F6807F4E051890A0B4FF4
:101520007A5C4768D7408760054F3F6807F46041A1
:10153000490B064F7A5C4768D740C760F0BD000092
:10154000083802400024F40000127A000000002055
:10155000704700000CB500200190009034480068EE
:1015600040F480303249086000BF3148006800F420
:10157000003000900198401C0190009818B9019823
:10158000B0F5A04FF1D12A48006800F4003010B146
:101590000120009001E0002000900098012846D131
:1015A00023484030006840F08050214940310860B5
:1015B0002048006840F440401E4908601C4808303C
:1015C00000681B49083108600846006840F4004084
:1015D00008600846006840F4805008601648091FFB
:1015E0000860081F006840F08070091F086000BF95
:1015F0000F48006800F000700028F9D040F2057034
:101600000E4908600A480830006820F003000849C5
:10161000083108600846006840F00200086000BF1A
:1016200003480830006800F00C000828F8D10CBD11
:10163000003802400070004008544007003C02405F
:1016400008480068401E07490860084600680128ED
:1016500007D14FF0E020006920F003004FF0E021B7
:10166000086170472400002010B51548006840F458
:101670007000134908601348006840F001001149E8
:10168000086000200F49083108600E4800680E49C4
:1016900008400C4908600D48091D0860081F0068D3
:1016A00020F48020091F0860002006490C310860E2
:1016B000FFF750FF4FF0006001498039086010BD0E
:1016C00088ED00E000380240FFFFF6FE10300024F5
:1016D00010B50121880700F017F808B101F0EEFFFE
:1016E0000121880700F001F810BDCA43028270474B
:1016F00021B1028842F00102028004E002884FF624
:10170000FE731A400280704730B502460020002365
:101710000024158A05EA0103958905EA010413B13D
:101720000CB1012000E0002030BD1AB183890B43C9
:10173000838102E083898B43838170470022028882
:10174000184B98420ED0184B98420BD0B0F1804FF6
:1017500008D0164B984205D0154B984202D0154B35
:10176000984204D14FF68F731A404B881A43124B9C
:10177000984207D0114B984204D04FF6FF431A40CD
:101780000B891A4302804B68C3620B880385054BA3
:10179000984202D0044B984201D18B7A03860123F0
:1017A00083827047000001400004014000040040B3
:1017B00000080040000C00400010004000140040F1
:1017C0004FF0FF3141600021018001814180817231
:1017D0007047000010B540F22551064800F0B9F8F6
:1017E00030B1044800F074F9C4B2204600F004F8A7
:1017F00010BD00000010014010B504462146054808
:1018000000F06BF900BF4021024800F095F8002875
:10181000F9D010BD0010014001F40072B2F5007F54
:1018200000D100BFCA430280704721B1828942F4CF
:101830000052828104E082894DF6FF731A40828152
:10184000704700001FB54FF4E13000900020ADF864
:101850000400ADF80600ADF80800ADF80C000C204F
:10186000ADF80A006946104800F0C2F8012240F2C3
:1018700025510D4800F097F801210B48FFF7D5FFDF
:1018800069460A4800F0B4F8012240F225510748A1
:1018900000F089F801210548FFF7C7FF4021034800
:1018A000FFF7BAFF1FBD00000010014000480040D4
:1018B0001CB501210846FFF7A7FD01211020FFF705
:1018C000C3FD01210220FFF79FFD01218804FFF7DE
:1018D000ABFD072209211648FFF7F8FA07220A2173
:1018E0001348FFF7F3FA07220B211248FFF7EEFA2D
:1018F00007220A210F48FFF7E9FA02208DF80500B8
:101900008DF8040000208DF8060001208DF80700F6
:101910004FF44060009069460648FFF78FFA4FF495
:10192000C060009069460248FFF788FA1CBD0000BD
:10193000000002400004024002460020B1F5007F92
:1019400000D100BF13880B400BB1012000E0002044
:10195000704770B50246002400230025002040F6A1
:101960006A16B14200D100BFC1F3421501F01F0356
:10197000012606FA03F3012D02D19689334006E0D1
:10198000022D02D1168A334001E0968A33400C12B0
:10199000012606FA04F41688344013B10CB1012074
:1019A00000E0002070BDF0B50346002400260025AD
:1019B000002040F66A17B94200D100BF1846C1F3B3
:1019C000421401F01F06012707FA06F5012C01D188
:1019D0000C3004E0022C01D1103000E014301AB1B8
:1019E00007682F43076002E00768AF430760F0BD58
:1019F0002DE9FF4705460E460024A14600BFA0463C
:101A0000B08900B100BF2C8A24F44054F08804430C
:101A10002C82AC8941F20C608443B0883189084340
:101A2000718908430443AC81AC8A24F44074B089C2
:101A30000443AC826846FFF717FD2048854202D078
:101A40001F48854202D1DDF80C9001E0DDF80890D6
:101A5000A88900F4004040B109EBC90000EB09106F
:101A600031684900B0FBF1F707E009EBC90000EB72
:101A7000091031688900B0FBF1F76420B7FBF0F082
:101A800004012009642101FB1078A88900F40040BA
:101A900040B1322000EBC800B0FBF1F000F00700CD
:101AA000044308E0322000EB08106421B0FBF1F0A1
:101AB00000F00F0004432C81BDE8FF8700100140B7
:101AC0000014014010B5FFF7F3FEFFF7BBFE10BD99
:101AD00001468888C0F308007047C1F3080282807D
:101AE000704700BFFEE770B586B004460D46164647
:101AF00023460322114604A8FEF7D8FB2B460122F9
:101B0000032102A8FEF7D2FB3346012203216846D7
:101B1000FEF7CCFB6A4602A904A8FEF7CBFB06B091
:101B200070BD00000FB4054B10B503A9044A02981C
:101B300000F09AFC10BC5DF814FB0000212C00089A
:101B40004000002003B401984100009850EAC120F1
:101B500018BF04204A0D18BF40F0010040F2FF7288
:101B6000B2EB515F08BF40F00200012808BF05201A
:101B700002B070474100080218BF04200A0E18BFC7
:101B800040F001004FF07F4232EA010108BF40F00F
:101B90000200012808BF0520704700000000000077
:101BA00070B5C1482DED020B2DED0E8B82B0119D4D
:101BB00025F000449FEDBEDB9FEDBFEB84423EDB92
:101BC000A4F140511098A1F17F6108430FD0BC48A7
:101BD000844202DC28D1109830B39DED100B02B086
:101BE000BDEC0E8B02B0BDE8704000F02DBB9DED4A
:101BF000100B53EC1D2B51EC100BFEF7C5FD9DEDAA
:101C0000100B41EC180B53EC1E2B51EC100BFEF794
:101C1000BBFD53EC182BFEF710FD41EC100B02B08E
:101C2000BDEC0E8B02B070BD012000F055FB02B080
:101C3000BDEC0E8B02B0BDE8704000F011BBA148B6
:101C40009FEDA18B844256DA9DED100BB4F1795FC4
:101C50000ADA51EC100BFFF775FF042808BF00F0FB
:101C60000FFB9DED100BDAE753EC102B51EC100B32
:101C7000FEF78AFD41EC190B95480621B0EE490AA2
:101C8000F0EE690A784400F063FA53EC192B51EC3A
:101C9000100BFEF779FD41EC1A0B8E48B0EE490AA5
:101CA000F0EE690A0421784400F052FA53EC192B43
:101CB00051EC100BFEF768FD53EC182BFEF7BDFC42
:101CC00041EC100B51EC1A0B53EC102BFEF7CEFD30
:101CD000CDE900019DED000B53EC102B9DED100B99
:101CE00051EC100BFEF750FD9DED101B53EC112B2A
:101CF000FEF7A3FCD2E09DED100B51EC100B00F0B1
:101D000083FF53EC182BFEF73CFD9FED730BCDE9E1
:101D1000000153EC102B9DED000B51EC100BFEF766
:101D200033FD41EC190B6E480621B0EE490AF0EE86
:101D3000690A784400F00CFA53EC192B51EC100BA3
:101D4000FEF722FD41EC1B0B6648B0EE490AF0EEAF
:101D5000690A0421784400F0FBF953EC192B51EC8B
:101D6000100BFEF711FD53EC182BFEF766FC41EC4F
:101D70001C0B51EC190B01F06AFC41EC180B5A4892
:101D80009FED5BABA04222DC53EC1C2B51EC1B0BF8
:101D9000FEF76CFDCDE900019DED000B51EC180B39
:101DA00053EC102BFEF7F0FC53EC182BFEF745FC20
:101DB00053EC1A2BFEF7E8FC53EC1D2BFEF7DEFC70
:101DC00053EC1E2BFEF7DDFC41EC100B5FE08DEDBC
:101DD000008B002000909DED000B51EC180B53EC94
:101DE000102BFEF72AFC9DED000B41EC1E0B53EC73
:101DF000102B51EC100BFEF7C7FC53EC192BFEF720
:101E0000C0FC53EC1E2BFEF731FD41EC190B53ECDB
:101E10001C2B51EC1B0BFEF729FD41EC1B0B53EC6B
:101E20001A2B51EC190BFEF7AFFC53EC1D2BFEF7F0
:101E3000A8FC41EC190B53EC1A2B51EC180BFEF7D4
:101E4000A3FC53EC1B2BFEF79FFC53EC192BFEF766
:101E500095FC9DED000B41EC180B53EC1A2B51EC4B
:101E6000100BFEF791FC9FED249B53EC192BFEF712
:101E700088FC41EC100B51EC180B53EC102BFEF7C7
:101E80007DFC53EC192BFEF77CFC41EC100B002D74
:101E90003FF7C5AE51EC100B81F0004141EC100B47
:101EA000BDE60000000000000000F03F0000000060
:101EB000075C143326A6913C182D4454FB21F93FAE
:101EC0000000F07F0000E03F000000000000F03F55
:101ED0002826000036260000000000000000E03F39
:101EE0007A250000882500003333EF3F0000000012
:101EF0000000000000000040182D4454FB21E93F81
:101F000010EE100A10B510EE901A4FF0684202EB76
:101F100040032DED028BB3F1654F3CBF02EB410254
:101F2000B2F1654F7CD200BFC0F3C753C1F3C752B3
:101F30009A1A1B2A09DD10F0004F14BF9FED6E0A9C
:101F40009FED6E0ABDEC028B10BD12F11A0F1BDA69
:101F500011F0004F09D010F0004F0CBF9FED680A40
:101F60009FED680ABDEC028B10BD80EE208A18EE52
:101F7000100AFFF7FFFD042808BF00F095F9B0EE46
:101F8000480ABDEC028B10BD4200B2EB410F37D9BD
:101F900010F0004F19BFDFED5C1A9FED5C1ADFED0A
:101FA0005C1A9FED5C1AB0EE602A0A46F1EE400A18
:101FB00080F00041B0EE420A10460A1A5200B2F117
:101FC000807F34D2484010F0004FDFED532A9FED60
:101FD000533A1DBFBEEE002A71EEE21A31EE431AEB
:101FE000B6EE002A04BF71EEA21A31EE031AF0EE2B
:101FF000402A42EE602A40EE020A82EEA02A18E051
:1020000011F0004F04BF9FED461AF0EE411AD4D0F4
:1020100010F0004F1CBFDFED431A9FED431A00E0A4
:1020200026E004BFDFED411A9FED411AC5E780EEBF
:10203000202A22EE020ADFED3F0ADFED3F2ABDEC47
:10204000028B40EE202ADFED3D0A40EE220ADFED52
:102050003C2A40EE202ADFED3B0A40EE220A22EE27
:10206000000A00EE201A31EE020A30EE210A10BDFD
:102070004FF07F42B2EB400F28BFB2EB410F05D2C9
:10208000BDEC028BBDE8104000F00AB940EA010344
:102090005B0008BF41F0FF410BD0B2EB400F08BF1F
:1020A000B2EB410F08D120F0804000EE100A21F081
:1020B000804100EE901A37E7B2EB400F12BF5FEAA3
:1020C000410240F0FF4001F000413FF42DAF4A00D3
:1020D00092EA40033FF528AF002AACBF9FED1A1AE1
:1020E0009FED1A1A20EE010A60EE810A10EE100A26
:1020F00010EE901A18E70000DB0FC9BFDB0FC93FD5
:10210000DB0F4940DB0F49C00000C9BF22AAFDB95F
:102110000000C93F22AAFD390060ED3EC30ACE3758
:1021200000000000000049C022AA7DBA000049401A
:1021300022AA7D3A2DAD65BD8FB8D53D0FB511BE34
:1021400061C84C3EA8AAAABE0000804F0000802FA4
:1021500070B504462DED028B4D1E00EBC500B0EEB0
:10216000408AF0EE608A90ED000B35F0060017D043
:1021700053EC182B51EC100BFEF706FB41EC100B47
:102180006D1E04EBC50090ED001B51EC100B53ECE1
:10219000112BFEF752FA41EC100B35F00600E7D197
:1021A000022D36D0042D1CD0062D1CBFBDEC028B99
:1021B00070BD53EC182B51EC100BFEF7E5FA94EDC3
:1021C0000A1B53EC112BFEF738FA53EC182BFEF7D1
:1021D000DBFA94ED081B53EC112BFEF72EFA41ECC1
:1021E000100B53EC182B51EC100BFEF7CDFA94EDBD
:1021F000061B53EC112BFEF720FA53EC182BFEF7BD
:10220000C3FA94ED040B53EC102BFEF716FA41ECD5
:10221000100B53EC182B51EC100BFEF7B5FA94EDA4
:10222000021B53EC112BFEF708FA53EC182BFEF7A8
:10223000ABFA94ED001B53EC112BFEF7FEF9BDEC4D
:10224000028B41EC100B70BD10B553EC102B51EC10
:10225000100BFEF7F2F941EC100B10BD000000006E
:102260009FED050B10B553EC102B51EC100BFEF746
:10227000FDFA41EC100B10BD000000000000000052
:102280009FED050B10B553EC102B51EC100BFEF726
:102290007BFA41EC100B10BD0000000000000010A4
:1022A00030EE200A704700009FED020A20EE000A7F
:1022B000704700000000001002E008C8121F08C1AB
:1022C000002AFAD170477047002001E001C1121FB7
:1022D000002AFBD1704700000149086070470000E8
:1022E0004C0000202DE9FF5F82B00021DDE90430C1
:1022F000020DDDF840B0034318D044F61050A2F2AE
:10230000FF3242431514119801281FD0A5EB0B0092
:10231000401C5FEA000A4FF000064E4FDFF838918C
:10232000B046504615D5CAF1000413E011980124B7
:102330004AA3012801D16FEA0B010298119AC0E962
:102340000031C0E9024206B0BDE8F09FCBF10000C9
:10235000DFE704460021404A491842EB0450CDE92A
:10236000001012E0E00707D032463B46404649469F
:10237000FEF70AFA8046894632463B461046194621
:10238000FEF702FA06460F466410002CEAD1DDE99A
:102390000401DDE90023BAF1000F06DAFEF7F4F9D3
:1023A00042464B46FEF7F0F905E0FEF75FFA42467B
:1023B0004B46FEF75BFA04460E460022284BFEF71A
:1023C000DDFA03D84FF0FF30014607E00022254B2D
:1023D00020463146FEF731F9FEF7B7FA102409E03E
:1023E000002C0ADB0A220023FEF7BFF8039B3032E1
:1023F0001A55641E50EA0102F2D1641C039AC4F11A
:1024000011031444119A012A03D0012208430DD16B
:102410000AE0084304D000204FF0110B119072E73E
:10242000A3EB0B056D1E0DE05B4504DD4FF00002D4
:1024300005F1010504E003DA4FF00002A5F1010502
:10244000002AECD002981199C0E90231C0E9004598
:1024500079E70000000014400000F03F3000000069
:102460000000F0430000E03F2DE9FF4F95B09B4690
:102470008946064600250FE2252877D10024274605
:10248000F84A0121059400E0044316F8013F203B7F
:1024900001FA03F01042F7D130782A2811D06FF0FA
:1024A0002F033078A0F13002092A16D8059A44F09B
:1024B000020402EB820203EB42021044761C0590F8
:1024C000EFE759F8042B0592002A03DA504244F44E
:1024D0000054059044F00204761C30782E2816D162
:1024E00016F8010F44F004042A280DD06FF02F02D3
:1024F0003078A0F13003092B09D807EB870302EBF2
:102500004303C718761CF3E759F8047B761C307830
:102510006C280FD006DC4C2817D068280DD06A280C
:1025200014D104E0742810D07A280FD10DE044F4BF
:1025300000140AE044F4801401E044F4401472787A
:10254000824202D104F58014761C761C307866280D
:102550000BD013DC582877D009DC002875D045282B
:10256000F6D04628F4D047281AD19DE118E0632818
:1025700035D0642879D0652812D195E1702873D0C0
:1025800008DC6728F1D069286FD06E280DD06F283D
:1025900006D1B5E073282CD0752875D0782874D072
:1025A0005A46179990476D1C75E1C4F302500228F2
:1025B00009D003280DD0D9F8001004280DD00D60E3
:1025C00009F1040967E1D9F80010EA17C1E90052DE
:1025D000F6E7D9F800100D80F2E70D70F0E719F872
:1025E000041B8DF8001000208DF80100EA46012040
:1025F00003E059F804AB4FF0FF3061074FF00001E2
:1026000002D40DE008F101018846B9420FDA804595
:10261000F8DB1AF808100029F4D108E008F10101EC
:1026200088468142FADB1AF808100029F6D105988D
:102630005B46A0EB080721463846179A00F094FA4B
:10264000284400EB080507E04DE029E10DE01AF809
:10265000010B5A4617999047B8F10108F7D25B462B
:1026600021463846179A13E142E00A220092C4F349
:1026700002524FF0000A022A08D059F804CB032A6C
:102680004FEAEC710AD00DE029E02AE009F10701D8
:1026900021F00702F2E802C1914609E00FFA8CFC32
:1026A0004FEAEC71042A03D14FFA8CFC4FEAEC712B
:1026B000002907DA0A460021DCF1000C61EB020177
:1026C0002D2202E0220504D52B228DF804200122C0
:1026D00003E0E20701D02022F7E7904659E00A2103
:1026E00002E010220DE010214FF0000A00910BE0F3
:1026F00010224FF0000A44F004040827009203E07F
:1027000008224FF0000A0092C4F30252022A05D0B8
:1027100059F804CB0021032A08D009E009F1070188
:1027200021F00702F2E802C1914605E01FFA8CFC95
:10273000042A01D10CF0FF0C4FF00008220728D525
:10274000702806D0009B83F0100353EA0A0305D0DB
:102750000EE040228DF80420012208E05CEA01022C
:1027600006D030228DF804208DF805000222904614
:10277000009B83F0080353EA0A030AD15CEA0102D2
:1027800001D1620705D530228DF804204FF00108F1
:102790007F1E582804D034A003900EA802900DE0AC
:1027A00036A0F9E753466046009AFDF7DEFE844600
:1027B0000398825C0298401E029002705CEA01005D
:1027C000F0D1029806A9081A00F1200A600702D584
:1027D00024F4803400E00127574502DDA7EB0A000E
:1027E00000E0002000EB0A01009005984144401AE7
:1027F0000590E00306D45B462146179A059800F041
:10280000B3F90544002706E001A85A46C05D1799B0
:1028100090476D1C7F1C4745F6DBE0030CD55B46FB
:102820002146179A059800F09FF9054404E03020EE
:102830005A46179990476D1C0099481E0090002930
:10284000F5DC08E0029802995A460078491C02918A
:10285000179990476D1CBAF10001AAF1010AF1DC49
:1028600065E1000009280100303132333435363754
:1028700038396162636465660000000030313233CC
:10288000343536373839414243444546000000006C
:1028900000F058F90544761C307800287FF4ECAD40
:1028A00019B02846BDE8F08F620700D4062709F169
:1028B000070222F0070CFCE80223E14603F000487F
:1028C0005FEA080C02D00FF2702C0DE05FEA045CA6
:1028D00002D50FF2682C07E05FEAC47C02D00FF249
:1028E000602C01E0AFF2700C4FF0FF3823F0004392
:1028F000CDF850C065280CD006DC452809D0462804
:102900001DD047283DD13DE0662818D067287ED1EC
:1029100038E00021112F01DB112000E0781CCDE907
:10292000000106A90EA8FFF7DDFCDDE90F010E9AF4
:1029300003910021009207F1010A04914DE04FF04C
:1029400000400097CDE9011006A90EA8FFF7CAFCC8
:10295000DDE90F0203920E9B11990022DDF80CA015
:102960000093049211B9791C00EB010AB7EB0A003D
:1029700004D4C0F1FF3007F1010A0490AAEB07006C
:10298000019044E0012F00DA01270021112F01DD21
:10299000112000E03846CDE9000106A90EA8FFF796
:1029A000A1FCDDE90F010E9A039100210491009230
:1029B000BA4621070CD40399514500DA8A46BAF188
:1029C000010F05DD009AAAF10101515C302908D000
:1029D000B84202DA10F1040F06DA0121CDE9011044
:1029E00015E0AAF10101E9E7002805DC049901449A
:1029F0000491AAEB000102E0411C514500DD8A462A
:102A00000499401A401C01904FF0004002902007AA
:102A100004D40198504501DBCDF8048000208DF8E6
:102A20004F0002980DF14F07B0F1004F25D02B2039
:102A30000E9002984FF0020800280CDA40420290F3
:102A40002D200E9007E00A210298FDF778FD303125
:102A5000029007F8011DB8F10001A8F10108F2DCAD
:102A600002980028EFD1791E0E980870307800F097
:102A7000200040F0450007F8020D12A8C01B00F12D
:102A800007081498007800B1012000EB0A010198B2
:102A900001EBE07105984144401A401E0590E003A7
:102AA00006D45B462146179A059800F05DF8054468
:102AB0001498007818B15A46179990476D1CE00396
:102AC00024D55B462146179A059800F04DF8054439
:102AD0001CE00498002807DBDDE90301884203DDE0
:102AE0000098405C179901E0179930205A469047AA
:102AF000049805F10105401C04900198401E0190C6
:102B000004D12E205A46179990476D1CBAF1000146
:102B1000AAF1010ADDDC05E017F8010B5A46179906
:102B200090476D1CB8F10001A8F10108F4DC5B4688
:102B30002146179A0598ABE62D0000002B000000F7
:102B4000200000002DE9F041044600251E461746EE
:102B5000880404D405E039462020B0476D1C641E6B
:102B6000F9D52846BDE8F0812DE9F041044600255D
:102B70001E469046C80301D5302700E02027880470
:102B800004D505E041463846B0476D1C641EF9D5B2
:102B90002846BDE8F081000010B50346002000E0A3
:102BA000401C0A2805DA0B4C04EB00142468002CA6
:102BB000F6D10A2800D110BD064C04EB00142360A6
:102BC000044C04EB0014A260024C04EB001461609E
:102BD00000BFF0E7480100200A2800DB7047002111
:102BE000084A02EB00121160064A02EB00129160E3
:102BF000044A02EB00125160024A02EB0012117308
:102C000000BFEBE74801002082B0CDE9000121F0D0
:102C1000004001909DED000B02B051EC100B70478D
:102C200070B504460D46A1B20548FEF756FF00BF39
:102C300040210348FEF780FE0028F9D0204670BDF1
:102C40000010014010B5002821D0114B0022001FB8
:102C5000196803E0814203D80A4649680029F9D17E
:102C600052B11368841A9C4204D100681844106061
:102C7000104602E0506000E0186039B102680B1A9B
:102C8000934203D10B681A4402604968416010BD49
:102C9000440000202DE9F04186B004460D4616465A
:102CA0001F46DDF8308003AA31462846FDF7C4FFF1
:102CB0006A4641463846FDF7BFFF9DED030ADDED4C
:102CC000000A30EE200A84ED000A9DED040ADDEDD5
:102CD000010A30EE200A84ED010A9DED050ADDEDC2
:102CE000020A30EE200A84ED020A06B0BDE8F08147
:102CF000D0ED000A60EEA00A90ED011AD0ED011AA5
:102D0000B0EE600A01EE210AB5EEC00AF1EE10FA4B
:102D100004DBF1EEC00AC1ED000A04E0DFED060AB3
:102D2000C1ED000A00BF9FED040A81ED010A90ED9C
:102D3000020A81ED020A70470000000070B50446E7
:102D40000D4600F08BF8204600F012F900F0DAF89A
:102D5000284600F00DF900F0D5F800F07FF8611C6E
:102D6000C8B200F005F900F0CDF800F045F80646CD
:102D700000F01EF800F09AF8304670BD1CB5012135
:102D80000220FEF741FBC020009001208DF80400D6
:102D900003208DF8050001208DF8060000208DF835
:102DA000070069460148FEF749F81CBD00040240CF
:102DB00000B51048006820F040000E490860FDF79B
:102DC00067FF0C48006840F080000A490860FDF782
:102DD0005FFF0848006840F0400006490860FDF7C2
:102DE00057FF0448006820F0400002490860FDF7E2
:102DF0004FFF00BD1404024070B50024164800685F
:102E000040F080001449086000251BE06006040EB5
:102E10001148006820F040000F490860FDF738FFB6
:102E20000D48006840F040000B490860FDF730FF96
:102E3000802109481438FEF76CF808B144F0010409
:102E4000681CC5B2082DE1DB0348006820F0400093
:102E500001490860204670BD1404024010B51248B4
:102E6000006840F08000104908600846006840F0A3
:102E700040000860FDF70CFF80210B481438FEF776
:102E800048F808B9002010BD0748006820F080000D
:102E900005490860FDF7FCFE0348006820F040008B
:102EA000014908600120EEE71404024000B514480F
:102EB000006820F0400012490860FDF7E9FE104864
:102EC000006820F080000E490860FDF7E1FE0C4824
:102ED000006840F040000A490860FDF7D9FE084844
:102EE000006840F0800006490860FDF7D1FE044804
:102EF000006820F0400002490860002000BD00008A
:102F00001404024010B51948006820F04000174929
:102F10000860FDF7BDFE1548006840F080001349C9
:102F20000860FDF7B5FE1148006840F040000F4909
:102F30000860FDF7ADFE80210C481438FDF7E9FF6D
:102F400048B10A48006820F0400008490860FDF7D1
:102F50009FFE002010BD0548006820F04000034996
:102F60000860FDF795FE0120F4E70000140402401C
:102F700000B50246002324E01648006820F0400017
:102F800014490860FDF784FE02F0800030B111485A
:102F9000006840F080000F49086005E00D480068B7
:102FA00020F080000B4908605006020EFDF770FE0D
:102FB0000848006840F0400006490860FDF768FED8
:102FC0005B1C082BD8DB0348006820F04000014957
:102FD000086000BD1404024010B510210148FDF73F
:102FE000A1FF10BD000802401CB5FDF7E7FD00F091
:102FF000D9FA01210420FEF707FA01208DF8040018
:1030000000208DF8060003208DF8050000208DF8C3
:1030100007001020009069461448FDF70FFFFFF7E6
:10302000ADFE4FF49671124890ED021AD0ED010AF0
:1030300090ED000A0F48FDF7D3FF002264210E48EF
:10304000FFF7AAFD0B4890ED280ADFED0C0A20EEF1
:10305000200ABCEEC00A10EE101A00220848FFF742
:103060009BFD01E000F078FAFCE700000008024058
:103070003C01002050000020D92F000800007A44B5
:10308000D10F0008F0B50B30154D20F007010024DA
:10309000144A0FE003688B420BD38B4205D95E1AAA
:1030A00043184768C3E9006700E04368136002C043
:1030B00004E0021D10680028ECD12046002802D14F
:1030C000286808B10020F0BD064A07481060074A8A
:1030D000121A22F00702C0E9002401202860D7E775
:1030E0004800002044000020EC010020E8030020FC
:1030F0002DE9F0439DB006460F4690468B49D1E935
:1031000000028968CDE912211190884A0C3207CA61
:103110000EAB07C300200B900C900D900890099007
:103120000A9014AA17A91AA800F02AF99DED1A0A04
:103130008DED110A9DED1B0A8DED120A9DED1C0A05
:103140008DED130A9DED170A8DED0B0A9DED180A02
:103150008DED0C0A9DED190A8DED0D0A4FF0000959
:1031600071E014AA17A91AA800F00AF9002566E070
:103170001AA800EB850090ED000A11A800EB85006D
:10318000D0ED000AB4EEE00AF1EE10FA0ADD1AA85A
:1031900000EB850090ED000A11A800EB850080EDA2
:1031A000000A18E01AA800EB850090ED000A0EA8AE
:1031B00000EB8500D0ED000AB4EEE00AF1EE10FA63
:1031C00009D21AA800EB850090ED000A0EA800EBCA
:1031D000850080ED000A17A800EB850090ED000A3D
:1031E0000BA800EB8500D0ED000AB4EEE00AF1EE8A
:1031F00010FA0ADD17A800EB850090ED000A0BA875
:1032000000EB850080ED000A18E017A800EB8500B0
:1032100090ED000A08A800EB8500D0ED000AB4EE9E
:10322000E00AF1EE10FA09D217A800EB850090ED44
:10323000000A08A800EB850080ED000A6D1C032D34
:1032400096DB09F10109B9F1C70F8ADB002449E0D7
:1032500011A800EB840090ED000A0EA800EB84009A
:10326000D0ED000A30EE200AF0EE000A80EE201ABF
:1032700005A800EB840080ED001A0BA800EB840089
:1032800090ED000A08A800EB8400D0ED000A30EEB3
:10329000200AF0EE000A80EE201A02A800EB84005B
:1032A00080ED001A022C01DB012000E0002000EE7E
:1032B000100AB8EEC00A05A800EB8400D0ED000AA1
:1032C00030EE600A06EB840080ED000A02A800EBF5
:1032D000840090ED000AB1EE400A07EB840080ED17
:1032E000000A641C032CB3DB01A8FDF750FC00248A
:1032F00017E001A8005D803800EE100AB8EEC00AA1
:10330000F6EE000A60EE200A9FED091A80EE810AAF
:10331000F7EE000A30EE200A08EB840080ED000A88
:10332000641C032CE5DB1DB0BDE8F083943A000873
:103330000000004310B500226B21D02000F06EF990
:1033400007221921D02000F069F906221A21D02085
:1033500000F064F918221B21D02000F05FF901224F
:103360001C21D02000F05AF900226A21D02000F060
:1033700055F902223721D02000F050F910BD00008D
:103380002DE9F04186B007460E4690466A4602A9EE
:1033900004A800F073F8002416E0012000EB4400BC
:1033A00004A9085C11F8141040EA012005B200EEEF
:1033B000105AB8EEC00ADFED2D0A80EE201A07EB96
:1033C000840080ED001A641C032CE6DB002426E058
:1033D000012000EB440002A9085C11F8141040EA37
:1033E000012005B200EE105AB8EEC00ADFED200A47
:1033F00080EE201A06EB840080ED001A06EB8400B4
:10340000D0ED000A9FED1B1A80EE810ADFED1A0A4B
:1034100020EE200A06EB840080ED000A641C032CD9
:10342000D6DB00241CE0012000EB44001DF8000066
:103430001DF8141040EA012005B2022C01D1E01E53
:1034400000E00120684300EE100AB8EEC00AF0EE7A
:10345000080A80EE201A08EB840080ED001A641C34
:10346000032CE0DB06B0BDE8F081000000008046E0
:103470003333834100003443DB0F49402DE9F041F1
:1034800004460D4616463B21D020FFF757FC20701E
:103490003C21D020FFF752FC60703D21D020FFF787
:1034A0004DFCA0703E21D020FFF748FCE0703F218A
:1034B000D020FFF743FC20714021D020FFF73EFCD5
:1034C00060714321D020FFF739FC28704421D020BF
:1034D000FFF734FC68704521D020FFF72FFCA8705F
:1034E0004621D020FFF72AFCE8704721D020FFF7C3
:1034F00025FC28714821D020FFF720FC68710122AB
:103500000A21182000F08AF800BF02211820FFF7D6
:1035100015FC07460128F8D106211820FFF70EFCFC
:10352000307005211820FFF709FC70700421182065
:10353000FFF704FCB07003211820FFF7FFFBF070C9
:1035400008211820FFF7FAFB307107211820FFF738
:10355000F5FB7071BDE8F08110B500241CE0104847
:1035600000EB04100068B0B10D4800EB0410007BC4
:1035700088B100200A4901EB04110873084901EBE6
:10358000041108688047064800EB0410406810B931
:10359000E0B2FFF721FB641C0A2CE0DB10BD000049
:1035A000480100203EB5002411E00020194901EB3C
:1035B00004114860174901EB04110873154901EB28
:1035C00004118860134901EB04110860641C0A2C83
:1035D000EBDB01210846FDF727FF6846FEF7F0F810
:1035E0000020ADF800001020ADF802000020ADF87A
:1035F00008000948019069464FF08040FEF79EF8A8
:10360000012211469007FEF790F801218807FEF786
:103610006FF83EBD480100203F90020070B506469D
:103620000C461546FFF71AFC3046FFF7A1FCFFF7E2
:1036300069FC2046FFF79CFCFFF764FC2846FFF777
:1036400097FCFFF75FFCFFF731FC012070BD00B570
:103650002DED048B83B041EC190BFDF747FA41ECDB
:10366000180B18EE100A18EE901A8DED008B00283A
:1036700018BF0120084320F00040C0F17F6000F136
:10368000E040C00F14D019EE101A19EE900A8DED1B
:10369000009B002918BF0121084320F00040C0F121
:1036A0007F6000F1E040C00F04BF0120FEF714FE70
:1036B00051EC180B03B0BDEC048B00BD002021E0E1
:1036C000124901EB00110968D9B1104901EB001151
:1036D000896869B901210D4A02EB001211730B4987
:1036E00001EB00114968094A02EB0012916008E001
:1036F000064901EB00118968491E044A02EB0012D9
:103700009160401C0A28DBDB704700004801002064
:1037100010B52DED0A8B92B0044694ED1D0AD4ED40
:103720001F0A70EE200AB7EE000AB0EE001A01EE92
:10373000600AB0EE408A94ED1B0AD4ED190A30EE0F
:10374000600AF0EE000A20EE200AF0EE408A94EDC6
:103750001C0AD4ED180A30EE200AF0EE000A20EE22
:10376000200AB0EE409A94ED1B0AD4ED190A30EE0F
:10377000200AF0EE000A20EE200AF0EE409A94EDC6
:103780001A0AD4ED1F0A70EE200AB7EE000AB0EE56
:10379000001A01EE600AB0EE40AA94ED1E0AD4EDC4
:1037A000170A30EE200AF0EE000A20EE200AF0EEB2
:1037B00040AA94ED1C0AD4ED180A30EE600AF0EE2F
:1037C000000A20EE200AB0EE40BA94ED1E0AD4EDB5
:1037D000170A30EE200AF0EE000A20EE200AF0EE82
:1037E00040BA94ED1A0AD4ED1D0A70EE200AB7EE25
:1037F000000AB0EE001A01EE600AB0EE40CA8DED8C
:10380000098ACDED0A8A8DED0B9ACDED0C9A8DEDDE
:103810000DAACDED0EAA8DED0FBACDED10BA8DED3E
:1038200011CA8DED008ACDED019A8DED02BACDED74
:10383000038A8DED04AACDED05BA8DED069ACDED86
:1038400007AA8DED08CA242209A904F1C800FCF7D3
:1038500035FE2422694604F1A400FCF72FFE12B0C5
:10386000BDEC0A8B10BD1FB5D0E91424D0E912318C
:10387000CDE90224CDE9003190ED280AF0EE000AEE
:1038800080EE201A90ED030AB1EE400AD0ED130A43
:1038900020EE200AD0ED040AD0ED141A00EEE10A61
:1038A000D0ED050AD0ED151A00EEE10ADDED000AB3
:1038B00041EE000AC0ED120A90ED280AF0EE000A6F
:1038C00080EE201A90ED030AD0ED120A20EE200AB5
:1038D000D0ED050AD0ED141A00EEA10AD0ED040ACD
:1038E000D0ED151A00EEE10ADDED010A41EE000A05
:1038F000C0ED130A90ED280AF0EE000A80EE201ABF
:1039000090ED040AD0ED120A20EE200AD0ED050A4F
:10391000D0ED131A00EEE10AD0ED030AD0ED151A2E
:1039200000EEA10ADDED020A41EE000AC0ED140A24
:1039300090ED280AF0EE000A80EE201A90ED050ABC
:10394000D0ED130A20EE200AD0ED040AD0ED131AB0
:1039500000EEA10AD0ED050AD0ED141A00EEE10A3E
:10396000DDED030A41EE000AC0ED150A90ED120AE2
:1039700020EE000A80ED160A90ED120AD0ED130A2F
:1039800020EE200A80ED170A90ED120AD0ED140AFD
:1039900020EE200A80ED180A90ED120AD0ED150AEB
:1039A00020EE200A80ED190A90ED130A20EE000A9D
:1039B00080ED1A0A90ED130AD0ED140A20EE200AC9
:1039C00080ED1B0A90ED130AD0ED150A20EE200AB7
:1039D00080ED1C0A90ED140A20EE000A80ED1D0A0D
:1039E00090ED140AD0ED150A20EE200A80ED1E0A93
:1039F00090ED150A20EE000A80ED1F0A1FBD0EB5DE
:103A00000146D1ED271AB0EE611AD1ED261AF0EE7B
:103A1000610AD1ED231AB0EE610AFDF74FF98DED81
:103A2000000AD1ED271AB0EE611AD1ED261AF0EE98
:103A3000610AD1ED241AB0EE610AFDF73FF98DED70
:103A4000010AD1ED271AB0EE611AD1ED261AF0EE77
:103A5000610AD1ED251AB0EE610AFDF72FF98DED5F
:103A6000020A91ED030ADDED000A30EE200A81ED35
:103A7000030A91ED040ADDED010A30EE200A81ED22
:103A8000040A91ED050ADDED020A30EE200A81ED0F
:103A9000050A0EBD00000000000000000000803F8D
:103AA00000000000000000000000803F0000000057
:103AB000920E493CB10AC93C2BC3163D2EFB483D32
:103AC000752B7B3D04A9963D80B6AF3D36BDC83D04
:103AD0002FBCE13D73B2FA3D87CF093E8340163ECD
:103AE000B5AB223EA2102F3ECF6E3B3EC2C5473E35
:103AF0000115543E135C603E7F9A6C3ECCCF783EFD
:103B0000C07D823E938E883E229A8E3E32A0943EA5
:103B100086A09A3EE59AA03E128FA63ED47CAC3E8B
:103B2000EF63B23E2A44B83E491DBE3E15EFC33E88
:103B300053B9C93ECA7BCF3E4136D53E80E8DA3E16
:103B40004F92E03E7533E63EBBCBEB3EEA5AF13E88
:103B5000CBE0F63E275DFC3EE4E7003F3D9C033FA3
:103B6000824B063F9BF5083F6B9A0B3FDA390E3FBD
:103B7000CDD3103F2A68133FD9F6153FC07F183FB9
:103B8000C6021B3FD17F1D3FCBF61F3F9967223FE7
:103B900025D2243F5636273F1594293F4AEB2B3F29
:103BA000DE3B2E3FBB85303FC9C8323FF304353F73
:103BB000233A373F4268393F3B8F3B3FF9AE3D3FA9
:103BC00067C73F3F70D8413F01E2433F03E4453FB1
:103BD00065DE473F12D1493FF8BB4B3F029F4D3F47
:103BE000207A4F3F3D4D513F4918533F31DB543F01
:103BF000E595563F5348583F6AF2593F1A945B3F48
:103C0000532D5D3F05BE5E3F2146603F97C5613F36
:103C10005A3C633F59AA643F880F663FD86B673FA1
:103C20003CBF683FA7096A3F0C4B6B3F5E836C3F0C
:103C300093B26D3F9ED86E3F73F56F3F0809713F99
:103C40005213723F4714733FDD0B743F0BFA743FFE
:103C5000C6DE753F07BA763FC58B773FF853783F8E
:103C60009812793F9DC7793F02737A3FBE147B3F1C
:103C7000CDAC7B3F283B7C3FC9BF7C3FAC3A7D3F0E
:103C8000CCAB7D3F23137E3FB0707E3F6DC47E3F43
:103C9000580E7F3F6D4E7F3FAB847F3F0FB17F3F1C
:103CA00097D37F3F43EC7F3F11FB7F3F0000803F76
:103CB00011FB7F3F43EC7F3F97D37F3F0FB17F3FA7
:103CC000AB847F3F6D4E7F3F580E7F3F6DC47E3F7C
:103CD000B0707E3F23137E3FCCAB7D3FAC3A7D3F3F
:103CE000C9BF7C3F283B7C3FCDAC7B3FBE147B3FB4
:103CF00002737A3F9DC7793F9812793FF853783F16
:103D0000C58B773F07BA763FC6DE753F0BFA743F27
:103D1000DD0B743F4714733F5213723F0809713F24
:103D200073F56F3F9ED86E3F93B26D3F5E836C3FDD
:103D30000C4B6B3FA7096A3F3CBF683FD86B673F9E
:103D4000880F663F59AA643F5A3C633F97C5613F5D
:103D50002146603F05BE5E3F532D5D3F1A945B3F99
:103D60006AF2593F5348583FE595563F31DB543F7F
:103D70004918533F3D4D513F207A4F3F029F4D3FE1
:103D8000F8BB4B3F12D1493F65DE473F03E4453F57
:103D900001E2433F70D8413F67C73F3FF9AE3D3F27
:103DA0003B8F3B3F4268393F233A373FF304353F6F
:103DB000C9C8323FBB85303FDE3B2E3F4AEB2B3F2D
:103DC0001594293F5636273F25D2243F9967223F35
:103DD000CBF61F3FD17F1D3FC6021B3FC07F183F60
:103DE000D9F6153F2A68133FCDD3103FDA390E3F7D
:103DF0006B9A0B3F9BF5083F824B063F3D9C033F70
:103E0000E4E7003F275DFC3ECBE0F63EEA5AF13E98
:103E1000BBCBEB3E7533E63E4F92E03E80E8DA3EA8
:103E20004136D53ECA7BCF3E53B9C93E15EFC33E9E
:103E3000491DBE3E2A44B83EEF63B23ED47CAC3E40
:103E4000128FA63EE59AA03E86A09A3E32A0943EEE
:103E5000229A8E3E938E883EC07D823ECCCF783EA5
:103E60007F9A6C3E135C603E0115543EC2C5473ECE
:103E7000CF6E3B3EA2102F3EB5AB223E8340163E96
:103E800087CF093E73B2FA3D2FBCE13D36BDC83D38
:103E900080B6AF3D04A9963D752B7B3D2EFB483D7A
:103EA0002BC3163DB10AC93C920E493C00000000EC
:103EB000920E49BCB10AC9BC2BC316BD2EFB48BD2E
:103EC000752B7BBD04A996BD80B6AFBD36BDC8BD00
:103ED0002FBCE1BD73B2FABD87CF09BE834016BEC9
:103EE000B5AB22BEA2102FBECF6E3BBEC2C547BE31
:103EF000011554BE135C60BE7F9A6CBECCCF78BEF9
:103F0000C07D82BE938E88BE229A8EBE32A094BEA1
:103F100086A09ABEE59AA0BE128FA6BED47CACBE87
:103F2000EF63B2BE2A44B8BE491DBEBE15EFC3BE84
:103F300053B9C9BECA7BCFBE4136D5BE80E8DABE12
:103F40004F92E0BE7533E6BEBBCBEBBEEA5AF1BE84
:103F5000CBE0F6BE275DFCBEE4E700BF3D9C03BF9F
:103F6000824B06BF9BF508BF6B9A0BBFDA390EBFB9
:103F7000CDD310BF2A6813BFD9F615BFC07F18BFB5
:103F8000C6021BBFD17F1DBFCBF61FBF996722BFE3
:103F900025D224BF563627BF159429BF4AEB2BBF25
:103FA000DE3B2EBFBB8530BFC9C832BFF30435BF6F
:103FB000233A37BF426839BF3B8F3BBFF9AE3DBFA5
:103FC00067C73FBF70D841BF01E243BF03E445BFAD
:103FD00065DE47BF12D149BFF8BB4BBF029F4DBF43
:103FE000207A4FBF3D4D51BF491853BF31DB54BFFD
:103FF000E59556BF534858BF6AF259BF1A945BBF44
:10400000532D5DBF05BE5EBF214660BF97C561BF32
:104010005A3C63BF59AA64BF880F66BFD86B67BF9D
:104020003CBF68BFA7096ABF0C4B6BBF5E836CBF08
:1040300093B26DBF9ED86EBF73F56FBF080971BF95
:10404000521372BF471473BFDD0B74BF0BFA74BFFA
:10405000C6DE75BF07BA76BFC58B77BFF85378BF8A
:10406000981279BF9DC779BF02737ABFBE147BBF18
:10407000CDAC7BBF283B7CBFC9BF7CBFAC3A7DBF0A
:10408000CCAB7DBF23137EBFB0707EBF6DC47EBF3F
:10409000580E7FBF6D4E7FBFAB847FBF0FB17FBF18
:1040A00097D37FBF43EC7FBF11FB7FBF000080BF72
:1040B00011FB7FBF43EC7FBF97D37FBF0FB17FBFA3
:1040C000AB847FBF6D4E7FBF580E7FBF6DC47EBF78
:1040D000B0707EBF23137EBFCCAB7DBFAC3A7DBF3B
:1040E000C9BF7CBF283B7CBFCDAC7BBFBE147BBFB0
:1040F00002737ABF9DC779BF981279BFF85378BF12
:10410000C58B77BF07BA76BFC6DE75BF0BFA74BF23
:10411000DD0B74BF471473BF521372BF080971BF20
:1041200073F56FBF9ED86EBF93B26DBF5E836CBFD9
:104130000C4B6BBFA7096ABF3CBF68BFD86B67BF9A
:10414000880F66BF59AA64BF5A3C63BF97C561BF59
:10415000214660BF05BE5EBF532D5DBF1A945BBF95
:104160006AF259BF534858BFE59556BF31DB54BF7B
:10417000491853BF3D4D51BF207A4FBF029F4DBFDD
:10418000F8BB4BBF12D149BF65DE47BF03E445BF53
:1041900001E243BF70D841BF67C73FBFF9AE3DBF23
:1041A0003B8F3BBF426839BF233A37BFF30435BF6B
:1041B000C9C832BFBB8530BFDE3B2EBF4AEB2BBF29
:1041C000159429BF563627BF25D224BF996722BF31
:1041D000CBF61FBFD17F1DBFC6021BBFC07F18BF5C
:1041E000D9F615BF2A6813BFCDD310BFDA390EBF79
:1041F0006B9A0BBF9BF508BF824B06BF3D9C03BF6C
:10420000E4E700BF275DFCBECBE0F6BEEA5AF1BE94
:10421000BBCBEBBE7533E6BE4F92E0BE80E8DABEA4
:104220004136D5BECA7BCFBE53B9C9BE15EFC3BE9A
:10423000491DBEBE2A44B8BEEF63B2BED47CACBE3C
:10424000128FA6BEE59AA0BE86A09ABE32A094BEEA
:10425000229A8EBE938E88BEC07D82BECCCF78BEA1
:104260007F9A6CBE135C60BE011554BEC2C547BECA
:10427000CF6E3BBEA2102FBEB5AB22BE834016BE92
:1042800087CF09BE73B2FABD2FBCE1BD36BDC8BD34
:1042900080B6AFBD04A996BD752B7BBD2EFB48BD76
:1042A0002BC316BDB10AC9BC920E49BC00000080E8
:1042B000555555555555C53F7D6FEB0312D6D4BFA7
:1042C0005544880E55C1C93F3B8F68B52882A4BFAD
:1042D00088B20175E0EF493F09F7FD0DE13D023F6E
:1042E0004B2D8A1C273A03C0C88A599CE52A0040F6
:1042F00059018D1B6C06E6BF82922EB1C5B8B33F43
:10430000204300080000002050000000B8220008F0
:10431000704300085000002098070000C8220008E1
:10432000000000000102030401020304060708095B
:10433000007A030A000000000000000001020304EC
:10434000060708090000000000000000000000004F
:104350000000803F00000000000000000000A041BD
:10436000000000000000000000000000000000004D
:040000050800018965
:00000001FF
