:020000040800F2
:10000000E80400209D010008490A000815080008BE
:10001000450A000831070008DF1100080000000051
:10002000000000000000000000000000710C00084B
:100030003507000800000000050B0008610D0008EE
:10004000B7010008B7010008B7010008B7010008B0
:10005000B7010008B7010008B7010008B7010008A0
:10006000B7010008B7010008B7010008B701000890
:10007000B7010008B7010008B7010008B701000880
:10008000B7010008B7010008B7010008B701000870
:10009000B7010008B7010008B7010008B701000860
:1000A000B7010008B7010008B7010008B701000850
:1000B000CD0D0008B7010008B7010008B70100081E
:1000C000B7010008B7010008B7010008B701000830
:1000D000B7010008D10E0008B7010008B7010008F9
:1000E000B7010008B7010008B7010008B701000810
:1000F000B7010008B7010008B7010008B701000800
:10010000B7010008B7010008B7010008B7010008EF
:10011000B7010008B7010008B7010008B7010008DF
:10012000B7010008B7010008B7010008B7010008CF
:10013000B7010008B7010008B7010008B7010008BF
:10014000B7010008B7010008B7010008B7010008AF
:10015000B7010008B7010008B7010008B70100089F
:10016000B7010008B7010008B7010008B70100088F
:10017000B7010008B7010008B7010008B70100087F
:10018000B7010008B7010008DFF80CD000F02AFA28
:1001900000480047991E0008E804002006488047F0
:1001A00006480047FEE7FEE7FEE7FEE7FEE7FEE75C
:1001B000FEE7FEE7FEE7FEE7650D0008890100089F
:1001C00000F0004230F000400AD0C10D01F560712E
:1001D000C0F3160042EA0151C208400711437047BC
:1001E00000200146704730B50B4601460020202212
:1001F000012409E021FA02F59D4205D303FA02F534
:10020000491B04FA02F52844151EA2F10102F1DC93
:1002100030BD2DE9F05F0546002092469B4688469A
:100220000646814640241BE0284641464746224672
:1002300000F0F9F953465A46C01A914110D31146BD
:100240001846224600F0E0F92D1A67EB01084F46E8
:1002500022460120002100F0D7F917EB00094E419A
:10026000201EA4F10104DFDC484631462A464346FD
:10027000BDE8F09F2DE9FE4F804681EA0300C00FE4
:100280000C46009021F0004123F00045B8EB02003D
:10029000A94105D24046214690461C460B460246DF
:1002A00023F00040104347D0270DC7F30A00C3F3E3
:1002B0000A510290401A019040286BDAC3F31300F0
:1002C00040F4801B0098924620B10023D2EB030A31
:1002D00063EB0B0B01985946C0F14002504600F009
:1002E00093F906460D4650465946019A00F0ABF97F
:1002F00010EB08006141002487EA115284EAE77399
:100300001A4340D0009A62B3019A012A4FEA075279
:1003100015DC001B61EB02014FF0004202EA0752BC
:10032000CDE90042001C41F5801132462B4600F019
:10033000ABF903B0BDE8F08F40462146F9E7001B5A
:1003400061EB0201001C41F5801300185B4120188D
:10035000A2F5001747EB030140EAD570B6196D41CD
:1003600011E06D084FEA360645EAC0754FEA0752BC
:10037000001B61EB0201001C41F5801149084FEAA6
:1003800030000019514132462B4603B0BDE8F04F12
:1003900000F06BB90098012240000023D0EB02026C
:1003A00063EBE073009821464FEAE074B8EB00007D
:1003B00061EB0401E9E783F000435BE781F0004172
:1003C00058E72DE9FE4F81EA030404F0004421F0D0
:1003D000004100944FF0000B23F0004350EA010469
:1003E0005ED052EA03045BD0C3F30A54C1F30A554A
:1003F0002C44A4F2F3340194A0FB0254C1F3130182
:1004000041F48011C3F3130343F4801301FB02444E
:1004100000FB034E840A970A44EA815447EA835753
:10042000A4FB076802958D0A05FB07854FEA932C0C
:1004300004FB0C542705029D4FEA065847EA16377D
:10044000B5EB08056EEB070C870E920E47EA811795
:1004500042EA8312A7FB0201B6EB0B0164EB000436
:100460002B0D43EA0C335E1844EB1C50DA46514620
:10047000E7FB0201C5F313044FEA0B3343EA1453BD
:100480004FEA0432019C43EA0603A4F10C040294EF
:10049000009CCDE900B400F0F7F803B0BDE8F08FA0
:1004A00000200146F9E72DE9F04D81EA030404F04C
:1004B000004B21F0004514464FF0000A23F00041A4
:1004C00050EA050220D054EA01021DD0C5F30A57B4
:1004D0000246C5F31303C1F31300C1F30A5640F4F7
:1004E000801543F48013A7EB0608101BD64608F2CC
:1004F000FD3873EB050002D308F1010801E0921802
:100500005B41B8F1000F03DA00200146BDE8F08D31
:1005100000204FF48011064684460EE0171B73EB53
:10052000050705D3121B63EB050306434CEA010CD8
:1005300049084FEA300092185B4150EA0107EDD1BB
:1005400052EA030012D082EA040083EA050108435C
:1005500005D0101BAB4106D20122002306E0002289
:100560004FF0004302E06FF0010253101AEB060057
:100570004CEB085110EB0A0041EB0B01BDE8F04DCC
:1005800000F073B8C1F30A52C1F3130140F2FF3314
:1005900041F480119A4202DA00200146704740F28D
:1005A00033439A42A2F2334202DC524200F03BB89B
:1005B00000F02AB830B5041E71F1000404DB4FF0DE
:1005C0000044404264EB0101141E73F1000405DB9A
:1005D0001C464FF00043524263EB0403994208BFAC
:1005E000904230BD064C074D06E0E06840F0010344
:1005F00094E8070098471034AC42F6D3FFF7C8FDE3
:10060000F821000818220008202A04DB203A00FA0A
:1006100002F1002070479140C2F1200320FA03F359
:10062000194390407047202A04DB203A21FA02F057
:100630000021704721FA02F3D040C2F1200291401C
:10064000084319467047202A06DBCB17203A41FAA7
:1006500002F043EAE07306E041FA02F3D040C2F14F
:100660002002914008431946704710B5141E73F1DB
:10067000000408DA401C41F1000192185B411A4362
:1006800001D120F0010010BD2DE9F04D92469B46AE
:1006900011B1B1FA81F202E0B0FA80F22032904654
:1006A000FFF7B2FF04460F4640EA0A0041EA0B0199
:1006B00053465A46084313D0114653EA010019D055
:1006C000C8F140025046FFF7AEFF05460E465046C1
:1006D00059464246FFF798FF084305D0012004E041
:1006E00020463946BDE8F08D0020054346EAE07615
:1006F0002C4337430A986305E40AA0EB0800002264
:10070000FD0A44EA47540A3002D500200146E9E7D1
:10071000010510196941DDE9084500196941BDE885
:10072000F04DA2E710B500F090F900F049FD10BDC2
:1007300000BFFEE77047F0B50A4600210023002401
:1007400000BF3DE0012505FA01F3156805EA030441
:100750009C4234D105684F000326BE40B543056076
:1007600015794E00B5400668354305601579012DB1
:1007700002D01579022D16D185684F000326BE40A0
:10078000B543856055794E00B54086683543856030
:10079000456801268E40B5434560456896798E4090
:1007A000B6B235434560C5684F000326BE40B54329
:1007B000C560D5794E00B540C6683543C560491C53
:1007C0001029BFD3F0BDF0B5002300244D07ED0E76
:1007D00002FA05F3CE1000F1200555F826504E0719
:1007E000F70E0F26BE40B543CF1000F1200646F8A5
:1007F0002750CE1000F1200555F8265045EA030495
:10080000CE1000F1200545F82640F0BD42694A406F
:100810004261704700BFFEE721B1028842F4806266
:10082000028004E002884FF6FF331A4002807047CE
:1008300070B502460024002500230020958A138B02
:100840001B0445EA030626F07F4404EA01068E42B3
:1008500001D1012000E0002070BD21B1028842F0EA
:100860000102028004E002884FF6FE731A40028003
:100870007047000010B504461348844209D1012195
:10088000480500F061F900214FF4001000F05CF918
:1008900018E00E48844209D10121880500F054F97E
:1008A00000214FF4800000F04FF90BE0084884422B
:1008B00008D10121C80500F047F900214FF40000DC
:1008C00000F042F910BD0000005400400058004004
:1008D000005C004021B1028842F48072028004E092
:1008E00002884FF6FF631A400280704721B10288E8
:1008F00042F40072028004E002884FF6FF531A406F
:10090000028070470CB5024600200023019300933B
:1009100000920B0F019321F07F41019B1BB1009BC3
:100920001433009303E0090C009B18330093009BE1
:100930001B680B400BB1012000E000200CBD000043
:100940002DE9FF4704460D460026B1460427DFF88F
:10095000CC80A6884FF6C0700640684600F014F9B7
:10096000DDF808802E48B8FBF0F01FFA80F946EA5F
:100970000906A68020884FF6FE71084020800026D8
:100980002849286888420CD828684000B8FBF0F055
:1009900087B2042F00DA04273E4309F101002084C6
:1009A00027E0E8884BF6FF71884206D1286800EB03
:1009B0004000B8FBF0F087B209E0286800EBC00106
:1009C00001EB0010B8FBF0F087B247F48047C7F3A3
:1009D0000B0008B947F0010747F4004006434FF405
:1009E000967009FB00F04FF47A7190FBF1F0401C17
:1009F0002084A683208840F00100208026884FF6BE
:100A0000F5300640A8886989084306432680A889EE
:100A1000298908432081BDE8FF87000000127A0081
:100A200040420F00A08601000146088AC0B270470C
:100A300012B141F0010101E001F0FE0101827047B5
:100A40000182704700BFFEE7704708B525208DF88A
:100A5000000001208DF8010000208DF80200012027
:100A60008DF80300684600F011F81C208DF8000096
:100A700001208DF8010003208DF8020001208DF87F
:100A80000300684600F002F808BD000070B50021C0
:100A900000230F22C4781CB3174C246804F4E064CC
:100AA000C4F5E064C4F30721C1F10404E3B20A41D0
:100AB00044789C40E1B28478144021430C07210E15
:100AC0000E4C05786155047804F01F050124AC40F4
:100AD00005786D11AD0005F1E025C5F8004109E08C
:100AE000047804F01F050124AC40054D067876110A
:100AF00045F8264070BD00000CED00E000E400E089
:100B000080E100E07047000029B1064A1268024304
:100B1000044B1A6004E0034A12688243014B1A60D6
:100B2000704700003038024029B1064A126802437B
:100B3000044B1A6004E0034A12688243014B1A60B6
:100B4000704700004038024029B1064A126802434B
:100B5000044B1A6004E0034A12688243014B1A6096
:100B6000704700002038024029B1064A126802434B
:100B7000044B1A6004E0034A12688243014B1A6076
:100B80007047000044380240F0B5002100220024E4
:100B9000022500260223324F3F6807F00C0121B1E5
:100BA000042905D0082937D105E02E4F076036E02B
:100BB0002D4F076033E02A4F3F1F3F68C7F3805631
:100BC000274F3F1F3F6807F03F036EB1264FB7FB2B
:100BD000F3F7DFF88CC0ACF1040CDCF800C0CCF308
:100BE000881C07FB0CF40CE01E4FB7FBF3F7DFF893
:100BF00070C0ACF1040CDCF800C0CCF3881C07FB1F
:100C00000CF4174F3F1F3F68C7F301477F1C7D005F
:100C1000B4FBF5F7076002E0124F076000BF00BFAA
:100C20000F4F3F6807F0F0010909104F7A5C076821
:100C3000D74047600A4F3F6807F4E051890A0B4FDD
:100C40007A5C4768D7408760054F3F6807F460418A
:100C5000490B064F7A5C4768D740C760F0BD00007B
:100C6000083802400024F40000127A00000000203E
:100C7000704700000CB500200190009034480068D7
:100C800040F480303249086000BF3148006800F409
:100C9000003000900198401C0190009818B901980C
:100CA000B0F5A04FF1D12A48006800F4003010B12F
:100CB0000120009001E0002000900098012846D11A
:100CC00023484030006840F080502149403108609E
:100CD0002048006840F440401E4908601C48083025
:100CE00000681B49083108600846006840F400406D
:100CF00008600846006840F4805008601648091FE4
:100D00000860081F006840F08070091F086000BF7D
:100D10000F48006800F000700028F9D040F205701C
:100D20000E4908600A480830006820F003000849AE
:100D3000083108600846006840F00200086000BF03
:100D400003480830006800F00C000828F8D10CBDFA
:100D5000003802400070004008544007003C024048
:100D60007047000010B51548006840F47000134942
:100D700008601348006840F0010011490860002035
:100D80000F49083108600E4800680E4908400C49B8
:100D900008600D48091D0860081F006820F48020C5
:100DA000091F0860002006490C310860FFF762FF48
:100DB0004FF0006001498039086010BD88ED00E007
:100DC00000380240FFFFF6FE1030002410B501216C
:100DD000880700F017F808B101F0E4F9012188074D
:100DE00000F001F810BDCA430282704721B10288A9
:100DF00042F00102028004E002884FF6FE731A40BE
:100E00000280704730B50246002000230024158A76
:100E100005EA0103958905EA010413B10CB101202B
:100E200000E0002030BD1AB183890B43838102E0CA
:100E300083898B438381704700220288184B984234
:100E40000ED0184B98420BD0B0F1804F08D0164B03
:100E5000984205D0154B984202D0154B984204D1C8
:100E60004FF68F731A404B881A43124B984207D0A3
:100E7000114B984204D04FF6FF431A400B891A4396
:100E800002804B68C3620B880385054B984202D0F1
:100E9000044B984201D18B7A0386012383827047E9
:100EA0000000014000040140000400400008004030
:100EB000000C004000100040001400404FF0FF31D3
:100EC00041600021018001814180817270470000F2
:100ED00010B540F22551064800F0B9F830B1044889
:100EE00000F074F9C4B2204600F004F810BD000010
:100EF0000010014010B504462146054800F06BF98A
:100F000000BF4021024800F095F80028F9D010BD3C
:100F10000010014001F40072B2F5007F00D100BF63
:100F2000CA430280704721B1828942F40052828113
:100F300004E082894DF6FF731A40828170470000F9
:100F40001FB54FF4E13000900020ADF80400ADF87B
:100F50000600ADF80800ADF80C000C20ADF80A0052
:100F60006946104800F0C2F8012240F225510D48B0
:100F700000F097F801210B48FFF7D5FF69460A48B2
:100F800000F0B4F8012240F22551074800F089F83A
:100F900001210548FFF7C7FF40210348FFF7BAFFCB
:100FA0001FBD000000100140004800401CB5012199
:100FB0000846FFF7A9FD01211020FFF7D5FD01210B
:100FC0000220FFF7A1FD01218804FFF7ADFD0722F4
:100FD00009211648FFF7F7FB07220A211348FFF7FC
:100FE000F2FB07220B211248FFF7EDFB07220A2133
:100FF0000F48FFF7E8FB02208DF805008DF804008C
:1010000000208DF8060001208DF807004FF44060A5
:10101000009069460648FFF78EFB4FF4C0600090D1
:1010200069460248FFF787FB1CBD00000000024034
:101030000004024002460020B1F5007F00D100BF4D
:1010400013880B400BB1012000E00020704770B501
:101050000246002400230025002040F66A16B14213
:1010600000D100BFC1F3421501F01F03012606FAAB
:1010700003F3012D02D19689334006E0022D02D1FF
:10108000168A334001E0968A33400C12012606FA94
:1010900004F41688344013B10CB1012000E00020A4
:1010A00070BDF0B50346002400260025002040F660
:1010B0006A17B94200D100BF1846C1F3421401F0CB
:1010C0001F06012707FA06F5012C01D10C3004E0B8
:1010D000022C01D1103000E014301AB107682F4300
:1010E000076002E00768AF430760F0BD2DE9FF47E6
:1010F00005460E460024A14600BFA046B08900B1B7
:1011000000BF2C8A24F44054F08804432C82AC891C
:1011100041F20C608443B0883189084371890843E7
:101120000443AC81AC8A24F44074B0890443AC829B
:101130006846FFF729FD2048854202D01F488542B6
:1011400002D1DDF80C9001E0DDF80890A88900F4E8
:10115000004040B109EBC90000EB091031684900BB
:10116000B0FBF1F707E009EBC90000EB09103168AB
:101170008900B0FBF1F76420B7FBF0F0040120090F
:10118000642101FB1078A88900F4004040B13220AE
:1011900000EBC800B0FBF1F000F00700044308E0EA
:1011A000322000EB08106421B0FBF1F000F00F00DA
:1011B00004432C81BDE8FF8700100140001401406A
:1011C00010B5FFF7F3FEFFF7BBFE10BD01468888A0
:1011D000C0F308007047C1F308028280704700BF67
:1011E000FEE700000FB4054B10B503A9044A0298AE
:1011F00000F0CAF810BC5DF814FB0000291B0008C1
:101200002800002002E008C8121F08C1002AFAD1F5
:1012100070477047002001E001C1121F002AFBD176
:10122000704700002DE9FF5FDDE90220010DDDF8C8
:1012300038B0024318D044F61050A1F2FF314143B8
:101240000D140F98012820D0A5EB0B00401C5FEA7D
:10125000000A4FF00004474EDFF81C91A0465046AC
:1012600016D5CAF1000728E00F98012443A20128EF
:1012700008D0002100980F9BC0E90021C0E902437B
:10128000BDE8FF9F6FEA0B01F4E7CBF10000DEE75A
:10129000074612E0F80707D0224633464046494643
:1012A000FFF78FF880468946224633461046194696
:1012B000FFF787F804460E467F10002FEAD1DDE9DC
:1012C0000201BAF1000F42464B4602DAFFF779F805
:1012D00001E0FFF7E8F804460E460022284BFFF72E
:1012E00069F903D84FF0FF30014607E00022254B93
:1012F00020463146FEF7BEFFFFF744F9102409E00F
:10130000002C0ADB0A220023FEF783FF019B303208
:101310001A55641E50EA0102F2D1641C019AC4F10C
:10132000110314440F9A012A03D0012208430DD15E
:101330000AE0084304D000204FF0110B0F9080E723
:10134000A3EB0B056D1E0DE05B4504DD4FF00002C5
:1013500005F1010504E003DA4FF00002A5F10105F3
:10136000002AECD000980F99C0E90231C0E900458D
:1013700086E70000000024400000F03F300000003D
:101380000000F0430000E03F2DE9FF4F95B09B4681
:101390008946064600250FE2252877D100242746F6
:1013A000F84A0121059400E0044316F8013F203B70
:1013B00001FA03F01042F7D130782A2811D06FF0EB
:1013C0002F033078A0F13002092A16D8059A44F08C
:1013D000020402EB820203EB42021044761C0590E9
:1013E000EFE759F8042B0592002A03DA504244F43F
:1013F0000054059044F00204761C30782E2816D153
:1014000016F8010F44F004042A280DD06FF02F02C3
:101410003078A0F13003092B09D807EB870302EBE2
:101420004303C718761CF3E759F8047B761C307821
:101430006C280FD006DC4C2817D068280DD06A28FD
:1014400014D104E0742810D07A280FD10DE044F4B0
:1014500000140AE044F4801401E044F4401472786B
:10146000824202D104F58014761C761C30786628FE
:101470000BD013DC582877D009DC002875D045281C
:10148000F6D04628F4D047281AD19DE118E0632809
:1014900035D0642879D0652812D195E1702873D0B1
:1014A00008DC6728F1D069286FD06E280DD06F282E
:1014B00006D1B5E073282CD0752875D0782874D063
:1014C0005A46179990476D1C75E1C4F302500228E3
:1014D00009D003280DD0D9F8001004280DD00D60D4
:1014E00009F1040967E1D9F80010EA17C1E90052CF
:1014F000F6E7D9F800100D80F2E70D70F0E719F863
:10150000041B8DF8001000208DF80100EA46012030
:1015100003E059F804AB4FF0FF3061074FF00001D2
:1015200002D40DE008F101018846B9420FDA804586
:10153000F8DB1AF808100029F4D108E008F10101DD
:1015400088468142FADB1AF808100029F6D105987E
:101550005B46A0EB080721463846179A00F094FA3C
:10156000284400EB080507E04DE029E10DE01AF8FA
:10157000010B5A4617999047B8F10108F7D25B461C
:1015800021463846179A13E142E00A220092C4F33A
:1015900002524FF0000A022A08D059F804CB032A5D
:1015A0004FEAEC710AD00DE029E02AE009F10701C9
:1015B00021F00702F2E802C1914609E00FFA8CFC23
:1015C0004FEAEC71042A03D14FFA8CFC4FEAEC711C
:1015D000002907DA0A460021DCF1000C61EB020168
:1015E0002D2202E0220504D52B228DF804200122B1
:1015F00003E0E20701D02022F7E7904659E00A21F4
:1016000002E010220DE010214FF0000A00910BE0E3
:1016100010224FF0000A44F004040827009203E06F
:1016200008224FF0000A0092C4F30252022A05D0A9
:1016300059F804CB0021032A08D009E009F1070179
:1016400021F00702F2E802C1914605E01FFA8CFC86
:10165000042A01D10CF0FF0C4FF00008220728D516
:10166000702806D0009B83F0100353EA0A0305D0CC
:101670000EE040228DF80420012208E05CEA01021D
:1016800006D030228DF804208DF805000222904605
:10169000009B83F0080353EA0A030AD15CEA0102C3
:1016A00001D1620705D530228DF804204FF00108E2
:1016B0007F1E582804D034A003900EA802900DE09D
:1016C00036A0F9E753466046009AFEF7A2FD84462D
:1016D0000398825C0298401E029002705CEA01004E
:1016E000F0D1029806A9081A00F1200A600702D575
:1016F00024F4803400E00127574502DDA7EB0A00FF
:1017000000E0002000EB0A01009005984144401AD7
:101710000590E00306D45B462146179A059800F031
:10172000B3F90544002706E001A85A46C05D1799A1
:1017300090476D1C7F1C4745F6DBE0030CD55B46EC
:101740002146179A059800F09FF9054404E03020DF
:101750005A46179990476D1C0099481E0090002921
:10176000F5DC08E0029802995A460078491C02917B
:10177000179990476D1CBAF10001AAF1010AF1DC3A
:1017800065E1000009280100303132333435363745
:1017900038396162636465660000000030313233BD
:1017A000343536373839414243444546000000005D
:1017B00000F058F90544761C307800287FF4ECAD31
:1017C00019B02846BDE8F08F620700D4062709F15A
:1017D000070222F0070CFCE80223E14603F0004870
:1017E0005FEA080C02D00FF2702C0DE05FEA045C97
:1017F00002D50FF2682C07E05FEAC47C02D00FF23A
:10180000602C01E0AFF2700C4FF0FF3823F0004382
:10181000CDF850C065280CD006DC452809D04628F4
:101820001DD047283DD13DE0662818D067287ED1DD
:1018300038E00021112F01DB112000E0781CCDE9F8
:10184000000106A90EA8FFF7EDFCDDE90F010E9AD5
:1018500003910021009207F1010A04914DE04FF03D
:1018600000400097CDE9011006A90EA8FFF7DAFCA9
:10187000DDE90F0203920E9B11990022DDF80CA006
:101880000093049211B9791C00EB010AB7EB0A002E
:1018900004D4C0F1FF3007F1010A0490AAEB07005D
:1018A000019044E0012F00DA01270021112F01DD12
:1018B000112000E03846CDE9000106A90EA8FFF787
:1018C000B1FCDDE90F010E9A039100210491009211
:1018D000BA4621070CD40399514500DA8A46BAF179
:1018E000010F05DD009AAAF10101515C302908D0F1
:1018F000B84202DA10F1040F06DA0121CDE9011035
:1019000015E0AAF10101E9E7002805DC049901448A
:101910000491AAEB000102E0411C514500DD8A461A
:101920000499401A401C01904FF00040029020079B
:1019300004D40198504501DBCDF8048000208DF8D7
:101940004F0002980DF14F07B0F1004F25D02B202A
:101950000E9002984FF0020800280CDA40420290E4
:101960002D200E9007E00A210298FEF73CFC303152
:10197000029007F8011DB8F10001A8F10108F2DC9E
:1019800002980028EFD1791E0E980870307800F088
:10199000200040F0450007F8020D12A8C01B00F11E
:1019A00007081498007800B1012000EB0A010198A3
:1019B00001EBE07105984144401A401E0590E00398
:1019C00006D45B462146179A059800F05DF8054459
:1019D0001498007818B15A46179990476D1CE00387
:1019E00024D55B462146179A059800F04DF805442A
:1019F0001CE00498002807DBDDE90301884203DDD1
:101A00000098405C179901E0179930205A4690479A
:101A1000049805F10105401C04900198401E0190B6
:101A200004D12E205A46179990476D1CBAF1000137
:101A3000AAF1010ADDDC05E017F8010B5A461799F7
:101A400090476D1CB8F10001A8F10108F4DC5B4679
:101A50002146179A0598ABE62D0000002B000000E8
:101A6000200000002DE9F041044600251E461746DF
:101A7000880404D405E039462020B0476D1C641E5C
:101A8000F9D52846BDE8F0812DE9F041044600254E
:101A90001E469046C80301D5302700E02027880461
:101AA00004D505E041463846B0476D1C641EF9D5A3
:101AB0002846BDE8F081000010B50346002000E094
:101AC000401C0A2805DA0B4C04EB00142468002C97
:101AD000F6D10A2800D110BD064C04EB0014236097
:101AE000044C04EB0014A260024C04EB001461608F
:101AF00000BFF0E7440000200A2800DB7047002107
:101B0000084A02EB00121160064A02EB00129160D3
:101B1000044A02EB00125160024A02EB00121173F8
:101B200000BFEBE74400002070B504460D46A1B2AB
:101B30000548FFF750FB00BF40210348FFF77AFA42
:101B40000028F9D0204670BD0010014070B52DED81
:101B5000028B3549354800F0F5F935A0FFF742FB17
:101B6000002428E0012000EB44003049085C11F813
:101B7000141040EA012005B200EE105AB8EEC00A77
:101B8000DFED2C0A80EE201A2B4800EB840080ED5C
:101B9000001A294800EB840090ED000A10EE101A9C
:101BA0000846FEF70DFB41EC180B53EC182B23A055
:101BB000FFF718FB641C032CD4DB21A0FFF712FBFA
:101BC000002428E0012000EB44001749085C11F8CC
:101BD000141040EA012005B200EE105AB8EEC00A17
:101BE000DFED190A80EE201A184800EB840080ED22
:101BF000001A164800EB840090ED000A10EE101A4F
:101C00000846FEF7DDFA41EC180B53EC182B0BA03D
:101C1000FFF7E8FA641C032CD4DB0DA0FFF7E2FA0F
:101C2000BDEC028B70BD00001F00002019000020D9
:101C300061633A00000080462C0000202566090000
:101C40000A67793A000000003333834138000020EE
:101C50000A0000002DE9F04106460F46154655489A
:101C6000046800BF601E040006D04FF40031304607
:101C7000FEF748FE0028F5D12CB901204E49087026
:101C8000FF20BDE8F08101213046FEF723FE4948E0
:101C9000046800BF601E040005D048493046FEF7C6
:101CA000C7FD0028F6D024B9012043490870FF2061
:101CB000E7E7002239463046FEF7BAFE3D480468A1
:101CC00000BF601E040005D03D493046FEF7B0FD60
:101CD0000028F6D024B9012037490870FF20D0E74A
:101CE00029463046FEF7ACFE3248046800BF601E4D
:101CF000040006D03249891C3046FEF799FD0028C1
:101D0000F5D024B901202C490870FF20B9E7012142
:101D10003046FEF7DFFD2748046800BF601E040060
:101D200005D026493046FEF783FD0028F6D024B9B9
:101D3000012021490870FF20A3E7012239463046DF
:101D4000FEF776FE1B48046800BF601E040006D044
:101D50001A49491C3046FEF76BFD0028F5D024B91E
:101D6000012015490870FF208BE700213046FEF75F
:101D700053FD01213046FEF7B9FD0E48046800BF4F
:101D8000601E040006D00D493F313046FEF750FD7D
:101D90000028F5D024B9012007490870FF2070E71A
:101DA0003046FEF741FE804601213046FEF734FD05
:101DB000404666E7140000201800002001000300E0
:101DC0008200070000B58BB001210720FEF79CFEC2
:101DD00001214805FEF7A8FE01214805FEF7B4FEE3
:101DE00000214FF40010FEF7AFFE04220621224826
:101DF000FEF7E9FC042207211F48FEF7E4FCC0209F
:101E0000099002208DF828008DF8290001208DF816
:101E10002A0000208DF82B0009A91748FEF78BFC3B
:101E20001648FEF727FD0020ADF818004BF6FF70AE
:101E3000ADF81A000020ADF81C004FF48060ADF83A
:101E40001E000F4805904FF48040ADF8200005A912
:101E50000A48FEF775FD01210848FEF7FEFC01A8BF
:101E6000FEF792FE42F210710198B0FBF1F00549C5
:101E700008600BB000BD00000004024000540040A8
:101E8000A08601001400002010B510210148FEF7C3
:101E9000BDFC10BD000802401CB5FEF743FC00F07D
:101EA000CDF801210420FEF72FFE01208DF804005B
:101EB00000208DF8060003208DF8050000208DF825
:101EC00007001020009069460A48FEF734FCFFF72F
:101ED00079FF00F015F8002264210748FFF7ECFDB8
:101EE000002264210548FFF7E7FD01E000F080F8DB
:101EF000FCE7000000080240891E00084D1B000896
:101F000010B500236B22D0210D4800F0D3F8072331
:101F10001922D0210A4800F0CDF806231A22D02138
:101F2000074800F0C7F818231B22D021044800F00E
:101F3000C1F801231C22D021014800F0BBF810BDDC
:101F40000054004070B504460D462946204600F076
:101F500001F870BD70B504460D463B22D0212348E0
:101F6000FFF778FE20703C22D0212048FFF772FE58
:101F700060703D22D0211D48FFF76CFEA0703E220C
:101F8000D0211A48FFF766FEE0703F22D0211748A3
:101F9000FFF760FE20714022D0211448FFF75AFE5F
:101FA00060714322D0211148FFF754FE287044226B
:101FB000D0210E48FFF74EFE68704522D0210B4815
:101FC000FFF748FEA8704622D0210848FFF742FEDE
:101FD000E8704722D0210548FFF73CFE28714822CF
:101FE000D0210248FFF736FE687170BD00540040F2
:101FF00010B500241CE0104800EB04100068B0B1DC
:102000000D4800EB0410007B88B100200A4901EB69
:1020100004110873084901EB041108688047064859
:1020200000EB0410406810B9E0B2FFF765FD641CD6
:102030000A2CE0DB10BD0000440000203EB5002467
:1020400011E00020194901EB04114860174901EB28
:1020500004110873154901EB04118860134901EB61
:1020600004110860641C0A2CEBDB01210846FEF712
:102070005BFD6846FEF722FF0020ADF8000010204F
:10208000ADF802000020ADF808000948019069464B
:102090004FF08040FEF7D0FE012211469007FEF778
:1020A000C2FE01218807FEF7A1FE3EBD44000020CC
:1020B0003F9002002DE9F0410746884615461E462E
:1020C0003448046800BF601E040006D04FF400319D
:1020D0003846FEF717FC0028F5D114B901202E4927
:1020E000087001213846FEF7F5FB2A48046800BF56
:1020F000601E040005D029493846FEF799FB0028E8
:10210000F6D014B90120244908700022414638460F
:10211000FEF78EFC1F48046800BF601E040005D057
:102120001F493846FEF784FB0028F6D014B9012079
:102130001949087029463846FEF782FC154804689C
:1021400000BF601E040006D01549891C3846FEF702
:102150006FFB0028F5D014B901200F4908703146F3
:102160003846FEF76DFC0B48046800BF601E040093
:1021700006D00B49891C3846FEF75AFB0028F5D0DB
:1021800014B901200449087001213846FEF7AEFB5E
:10219000BDE8F081140000201800002001000300B9
:1021A00082000700002021E0124901EB00110968BC
:1021B000D9B1104901EB0011896869B901210D4AB3
:1021C00002EB001211730B4901EB00114968094A37
:1021D00002EB0012916008E0064901EB00118968EA
:1021E000491E044A02EB00129160401C0A28DBDB06
:1021F0007047000044000020182200080000002062
:102200002C00000004120008442200082C000020CA
:10221000BC040000141200080000000001020304C6
:102220000102030406070809010000000000000085
:10223000000000000000000000000000000000009E
:04224000000000009A
:040000050800018965
:00000001FF
