:020000040800F2
:10000000D8090020C10100086D2000084F15000824
:10001000D1150008D10C0008AF3500080000000021
:10002000000000000000000000000000892A000815
:100030002B0D000800000000B5240008D52B000897
:10004000DB010008DB010008DB010008DB01000820
:10005000DB010008DB010008DB010008DB01000810
:10006000DB010008DB010008DB010008DB01000800
:10007000DB010008DB010008DB010008DB010008F0
:10008000DB010008DB010008DB010008DB010008E0
:10009000DB010008DB010008DB010008DB010008D0
:1000A000DB010008DB010008DB010008DB010008C0
:1000B000DB010008E92D0008DB010008DB01000876
:1000C000DB010008DB010008DB010008DB010008A0
:1000D000DB01000855310008DB010008153200087B
:1000E000DB010008DB010008DB010008DB01000880
:1000F000DB010008DB010008DB010008DB01000870
:10010000DB010008DB010008DB010008DB0100085F
:10011000DB010008DB010008DB010008DB0100084F
:10012000DB010008DB010008DB010008DB0100083F
:10013000DB010008DB010008DB010008DB0100082F
:10014000DB010008DB010008DB010008DB0100081F
:10015000DB010008DB010008DB010008DB0100080F
:10016000DB010008DB010008DB010008DB010008FF
:10017000DB010008DB010008DB010008DB010008EF
:10018000DB010008DB010008DB010008DB010008DF
:10019000DB010008DB010008DB010008DB010008CF
:1001A000DB010008DB010008DB010008DFF80CD0F0
:1001B00000F044FD004800475D4C0008D8090020CD
:1001C0000648804706480047FEE7FEE7FEE7FEE7F1
:1001D000FEE7FEE7FEE7FEE7FEE7FEE7812D00080B
:1001E000AD0100089FED1A1AF5EE000A40EE010A73
:1001F000BDEEE00AF5EEC00A10EE100AF1EE10FABC
:1002000038BF401E00EE100A1349F7EE001AB8EE90
:10021000C00A30EEC00ADFED0F0A20EE200AFCEE25
:10022000C00A10EE900AC0F3080000EE900A01EB3D
:100230008000F8EE600A90ED011A70EE600A90ED11
:10024000000A71EEE01A21EE800A00EE810A704782
:1002500083F9223E000000443C580008DFED190AF3
:10026000B5EEC00A60EE200ABDEEE01A11EE100AEB
:10027000F1EE10FA38BF401E00EE100A1349F7EEF7
:10028000001AB8EEC00A30EEC00ADFED0F0A60EEC9
:10029000200ABCEEE00A10EE100AC0F3080000EEDF
:1002A000100A01EB8000B8EE400A90ED011A70EEE2
:1002B000C00A90ED000A71EEE01A21EE800A00EE0D
:1002C000810A704783F9223E000000443C58000830
:1002D00001804280436070472DE9F04F82B046684C
:1002E00053680193058847884B8800200090088850
:1002F000874201BFB2F800C06545528893421EBFD5
:100300006FF0020002B0BDE8F08F9FED412A4FEA86
:10031000970EC7F3400B00BFDDE9000202EB800A35
:100320004A6898464FF00009B0EE420AB4465FEAC8
:100330000E0025D092ED001ADCED001A02EB8302CC
:10034000DCED010A01EE810A92ED001A02EB830254
:10035000401ED2ED001A02EB830200EE810A9CEDF2
:10036000021ADCED030A00040CF1100C000C01EE83
:10037000210A92ED001A02EB830200EE810AD9D124
:1003800017F0030026D0ACF10404A2EB830210F0B6
:10039000010F08D002EB8302D4ED010A92ED001A9E
:1003A000241D00EE810A5FEA0B0013D002EB830CE0
:1003B000D4ED010A9CED001A02EBC302401E00EED0
:1003C000810AD4ED020A92ED001A04F1080400EE4D
:1003D000810AEBD109F10100AAEC010A1FFA80F9A8
:1003E000486800EB8902A8F101001FFA80F8B8F113
:1003F000000F99D1009806EB8706184480B2009050
:10040000681E05042D0C87D102B00020BDE8F08FD6
:100410000000000010B49FED310A5FEA910C1ED07D
:10042000BCF1004F3DD2BCF1000FC4BF034664468F
:1004300015DD00BFD3ED000A00EEA00AD3ED010ADE
:1004400000EEA00AD3ED020A00EEA00AD3ED030AE3
:100450001033641E00EEA00AECD100EB0C1011F07A
:1004600003011AD0B1F1004F30D2002915DD001F71
:1004700011F0010F04D0D0ED010A001D00EEA00A1A
:1004800049080AD0D0ED010A00EEA00AD0ED020A18
:100490000830491E00EEA00AF4D182ED000A10BC1B
:1004A0007047D0ED000A00EEA00AD0ED010A00EE80
:1004B000A00AD0ED020A00EEA00AD0ED030A103027
:1004C000BCF1010C00EEA00AEBD1C8E7F0EC010A88
:1004D000491E00EEA00AF9D1DFE70000000000008D
:1004E0002DE9F0410024061B254671F1000605DACE
:1004F00001240027D0EB070067EB0101161E73F102
:10050000000605DA0027D2EB0702012567EB03039B
:1005100000F044FA86460E4617469C46AC4204D08C
:100520000025D0EB050E65EB010624B10020D2EBCF
:10053000000760EB030C704631463A466346BDE85F
:10054000F08140EA01039B0703D009E008C9121FAC
:1005500008C0042AFAD203E011F8013B00F8013B7D
:10056000521EF9D270472DE9FE4F804681EA030002
:10057000C00F0C46009021F0004123F00045B8EB7D
:100580000200A94105D24046214690461C460B4632
:10059000024623F00040104347D0270DC7F30A005E
:1005A000C3F30A510290401A019040286BDAC3F35A
:1005B000130040F4801B0098924620B10023D2EB38
:1005C000030A63EB0B0B01985946C0F140025046F9
:1005D00000F015FA06460D4650465946019A00F0BD
:1005E0001DFA10EB08006141002487EA115284EAE9
:1005F000E7731A4340D0009A62B3019A012A4FEA86
:10060000075215DC001B61EB02014FF0004202EAC9
:100610000752CDE90042001C41F5801132462B46BD
:1006200000F054FA03B0BDE8F08F40462146F9E7E8
:10063000001B61EB0201001C41F5801300185B41B7
:100640002018A2F5001747EB030140EAD570B61950
:100650006D4111E06D084FEA360645EAC0754FEA74
:100660000752001B61EB0201001C41F58011490893
:100670004FEA30000019514132462B4603B0BDE825
:10068000F04F00F014BA0098012240000023D0EB94
:10069000020263EBE073009821464FEAE074B8EB86
:1006A000000061EB0401E9E783F000435BE781F0C0
:1006B000004158E72DE9FE4F81EA030404F00044AD
:1006C00021F0004100944FF0000B23F0004350EA6A
:1006D00001045ED052EA03045BD0C3F30A54C1F3B1
:1006E0000A552C44A4F2F3340194A0FB0254C1F344
:1006F000130141F48011C3F3130343F4801301FB8E
:10070000024400FB034E840A970A44EA815447EAF4
:100710008357A4FB076802958D0A05FB07854FEAFE
:10072000932C04FB0C542705029D4FEA065847EA18
:100730001637B5EB08056EEB070C870E920E47EAED
:10074000811742EA8312A7FB0201B6EB0B0164EBAF
:1007500000042B0D43EA0C335E1844EB1C50DA46C0
:100760005146E7FB0201C5F313044FEA0B3343EA9A
:1007700014534FEA0432019C43EA0603A4F10C042B
:100780000294009CCDE900B400F0A0F903B0BDE8EC
:10079000F08F00200146F9E72DE9F04D81EA0304CE
:1007A00004F0004B21F0004514464FF0000A23F0FE
:1007B000004150EA050220D054EA01021DD0C5F3E1
:1007C0000A570246C5F31303C1F31300C1F30A56D7
:1007D00040F4801543F48013A7EB0608101BD6469F
:1007E00008F2FD3873EB050002D308F1010801E0BF
:1007F00092185B41B8F1000F03DA00200146BDE812
:10080000F08D00204FF48011064684460EE0171B41
:1008100073EB050705D3121B63EB050306434CEA94
:10082000010C49084FEA300092185B4150EA010779
:10083000EDD152EA030012D082EA040083EA0501F6
:10084000084305D0101BAB4106D20122002306E06D
:1008500000224FF0004302E06FF0010253101AEB48
:1008600006004CEB085110EB0A0041EB0B01BDE810
:10087000F04D00F01CB90EB5C10F80EAE0700844DD
:10088000CA07002140F233438DE80E000A460B46AA
:1008900000F01CF903B000BD0EB540F233420292E5
:1008A0000022CDE90022134600F010F903B000BD8C
:1008B00000F0004230F000400AD0C10D01F5607137
:1008C000C0F3160042EA0151C208400711437047C5
:1008D000002001467047000030B5041E71F100048D
:1008E00004DB4FF00044404264EB0101141E73F13D
:1008F000000405DB1C464FF00043524263EB040347
:100900008B4208BF824230BD30B5041E71F1000435
:1009100004DB4FF00044404264EB0101141E73F10C
:10092000000405DB1C464FF00043524263EB040316
:10093000994208BF904230BD01F0004330B421F02D
:10094000004150EA010206D00A0DA2F56072C1F31F
:100950001301002A02DC30BC00207047440F44EA37
:10096000C104C100E01830BC00EBC25000F068B810
:1009700030B50B46014600202022012409E021FA6F
:1009800002F59D4205D303FA02F5491B04FA02F56C
:100990002844151EA2F10102F1DC30BD2DE9F05F03
:1009A0000546002092469B468846064681464024DE
:1009B0001BE0284641464746224600F051F953467F
:1009C0005A46C01A914110D311461846224600F0EB
:1009D00016F82D1A67EB01084F4622460120002128
:1009E00000F00DF817EB00094E41201EA4F10104A0
:1009F000DFDC484631462A464346BDE8F09F202AC0
:100A000004DB203A00FA02F1002070479140C2F165
:100A1000200320FA03F3194390407047202A06DB95
:100A2000CB17203A41FA02F043EAE07306E041FABC
:100A300002F3D040C2F120029140084319467047AA
:100A40000029A8BF7047401C490008BF20F00100E2
:100A5000704710B4B0FA80FC00FA0CF050EA0104C0
:100A600004BF10BC704749B1CCF1200421FA04F452
:100A700011FA0CF118BF012121430843A3EB0C012B
:100A8000CB1D4FEA00614FEA102042BF002010BC8E
:100A9000704700EBC35010440029A4BF10BC70473E
:100AA000401C490008BF20F0010010BC704710B581
:100AB000141E73F1000408DA401C41F10001921881
:100AC0005B411A4301D120F0010010BD2DE9F04D2A
:100AD00092469B4611B1B1FA81F202E0B0FA80F27F
:100AE00020329046FFF78BFF04460F4640EA0A008B
:100AF00041EA0B0153465A46084313D0114653EAC4
:100B0000010019D0C8F14002504600F0A9F805468E
:100B10000E46504659464246FFF771FF084305D03E
:100B2000012004E020463946BDE8F08D0020054351
:100B300046EAE0762C4337430A986305E40AA0EBC3
:100B400008000022FD0A44EA47540A3002D500207A
:100B50000146E9E7010510196941DDE90845001979
:100B60006941BDE8F04DA2E72DE9F04D00231A469A
:100B70001B1A8A4103DB00200146BDE8F08DC1F35A
:100B80000A52C1F3130141F480154FF0000BD10755
:100B900002D100186D41521E0027044640F2FF1199
:100BA000384601EB620A3E468046024600204FF47A
:100BB000801100F055F8C2197141BB1846EB0100D5
:100BC000B4EB030C75EB000C04D3E41A65EB0005E1
:100BD00017460E46241908F101006D41804634285D
:100BE000E3DDF91946EB0600091BA84103D24FF0DB
:100BF000FF32134601E0002213461BEB070046EBD1
:100C00000A51BDE8F04DFFF752BFC1F30A52C1F3DC
:100C1000130140F2FF3341F480119A4202DA0020BE
:100C20000146704740F233439A42A2F2334202DC5B
:100C3000524200F015B8FFF7E2BE0000064C074D27
:100C400006E0E06840F0010394E80700984710349C
:100C5000AC42F6D3FFF7AEFA90600008B06000082F
:100C6000202A04DB203A21FA02F00021704721FA01
:100C700002F3D040C2F12002914008431946704768
:100C800010B504460F220A21182004F09BFB102106
:100C9000182003F007FE20701121182003F002FE37
:100CA00060701121182003F0FDFDA07010BD000040
:100CB00010B501F0DCF902F065FC02F001F8034820
:100CC0000068002101F0C4FF10BD000010000020EA
:100CD00000BFFEE790ED010AD1ED020A20EE200AE6
:100CE000D0ED020A91ED011A00EEC10A82ED000A70
:100CF00090ED020AD1ED000A20EE200AD0ED000AA4
:100D000091ED021A00EEC10A82ED010A90ED000A8F
:100D1000D1ED010A20EE200AD0ED010A91ED001A72
:100D200000EEC10A82ED020A7047704730B52DED22
:100D3000028B81B07B48007800287CD00020794964
:100D40000870E5E0784800F05FFB0546002D7BDD8C
:100D50000D2D79DA032095FBF0F100FB11500028EE
:100D60004AD0012802D002286DD122E0002405E0FB
:100D70006D4800F049FB0DF80400641C042CF7DBFF
:100D8000032095FBF0F1694800EB41109DED000A4E
:100D900080ED000A9DED000A10EE101A0846FFF7DC
:100DA00087FD41EC180B53EC182B61A002F020FCDE
:100DB00049E0002405E05C4800F026FB0DF8040043
:100DC000641C042CF7DB032095FBF0F1574800EB83
:100DD00041109DED000A80ED010A9DED000A10EE24
:100DE000101A0846FFF764FD41EC180B53EC182B62
:100DF0004FA002F0FDFB26E0002405E04A4800F089
:100E000003FB0DF80400641C042CF7DB032095FBA6
:100E1000F0F0401E454901EB40109DED000A80EDC9
:100E2000020A9DED000A10EE101A0846FFF740FD79
:100E300041EC180B01E070E006E053EC182B3CA0ED
:100E400002F0D6FB00BF00BF0D2D1CD1002405E031
:100E5000354800F0D9FA0DF80400641C042CF7DBC7
:100E60009DED000A344880ED250A9DED000A10EE44
:100E7000101A0846FFF71CFD41EC180B53EC182B19
:100E80002BA002F0B5FB05BB00202C490870B1EE89
:100E9000080A2B48806880ED000AB1EE080A28484D
:100EA000806880ED010AB1EE080A2548806880ED6F
:100EB000020AB1EE080A2248806880ED030A204841
:100EC00001F0AAFA1FA002F093FBFF2D20D1012010
:100ED0001A490870B1EE040A1948806880ED000ACA
:100EE000B1EE040A1648806880ED010AB1EE040AEA
:100EF0001348806880ED020AB1EE040A1048806849
:100F000080ED030A0E4801F087FA11A002F070FB91
:100F10000548C06800283FF415AF01B0BDEC028B56
:100F200030BD00008200002018030020D401002002
:100F3000723A25660A000000C00000207000002000
:100F4000000300204F4B205455524E204F4E0A00B4
:100F50004F4B2053485554444F574E0A0000000051
:100F60002DE9F0412DED068B5548046841681825A0
:100F70000026A4FB050701FB057104FB0616514979
:100F80000C684D6801460C1946EB05001825002633
:100F9000A4FB051700FB057004FB06004A4D2C68F6
:100FA0006D68091968413C25A1FB054700FB0570E8
:100FB00001FB0600454D29686D68611845414FF4F5
:100FC0007A760024A1FB060705FB067501FB045693
:100FD0003F4C216864680546691846EB04004FF4ED
:100FE0007A750026A1FB054700FB057001FB060092
:100FF000384D29686D68621840EB05011046FFF70F
:101000004BFC41EC180B00BF2D48046845681826BE
:101010000020A4FB061705FB067504FB0050294DB4
:101020002C686D680C196841354600210646284633
:101030000D46A4FB001706FB007004FB0500224DC3
:101040002C686D68091968413C250026A1FB0547FD
:1010500000FB057001FB06001C490D684968641916
:1010600048414FF47A75A4FB051700FB057004FB9B
:101070000600174C25686468491960414FF47A7678
:101080000025A1FB064700FB067001FB0500114D82
:1010900029686D68621840EB05011046FFF7FCFBFC
:1010A00053EC182BFFF700FB9FED0B0B53EC102BB1
:1010B000FFF712FCA8D3BDEC068BBDE8F081000061
:1010C0005800002050000020480000204000002070
:1010D0003000002038000020000000000000004028
:1010E0002DE9F0412DED068B46480168446818252E
:1010F0000026A1FB050704FB057401FB0646424CD4
:101100002168646805466D1846EB04001824002623
:10111000A5FB041700FB047005FB06003B4C25688B
:101120006468491960413C2534460646A1FB050721
:1011300006FB057501FB045535490C6849680646F0
:1011400028460D46311945414FF47A760020A1FB1F
:10115000064705FB067501FB00502E490D684968DE
:10116000621941411046FFF797FB41EC180B00BF95
:10117000244908684C6818250026A0FB051704FBC5
:10118000057400FB0640204D2C686E680D197041F7
:1011900018240026A5FB041700FB047005FB0600BD
:1011A0001A4C25686468491960413C253446A1FB06
:1011B000056700FB057001FB0400154C216864689D
:1011C000751844414FF47A760021A5FB060704FB0D
:1011D000067405FB01460F490D68496842197141C3
:1011E0001046FFF759FB53EC182BFFF75DFA9FED04
:1011F0000A0B53EC102BFFF76FFBB9D1BDEC068B3C
:10120000BDE8F08158000020500000204800002078
:1012100040000020300000200000000000002440BA
:1012200031B52DED040B2DED0A8B0446DDED0C0AD6
:101230009FED6B1A80EE810ADFED6A0A20EE200A2C
:10124000B0EE40BADDED0B0A9FED651A80EE810A23
:10125000DFED640A20EE200AF0EE40BADDED0A0A66
:101260009FED5F1A80EE810ADFED5E0A20EE200A14
:10127000B0EE40CAB0EE000ACBEE000AF0EE60CA53
:10128000B0EE6C0AFEF7AEFFB0EE408AB0EE000A98
:10129000CBEE000AF0EE60CAB0EE6C0AFEF7DEFF9D
:1012A000F0EE408AB0EE000ACBEE800AF0EE60CAA3
:1012B000B0EE6C0AFEF796FFB0EE409AB0EE000A70
:1012C000CBEE800AF0EE60CAB0EE6C0AFEF7C6FF05
:1012D000F0EE409AB0EE000ACCEE000AF0EE60CAE2
:1012E000B0EE6C0AFEF77EFFB0EE40AAB0EE000A48
:1012F000CCEE000AF0EE60CAB0EE6C0AFEF7AEFF6C
:10130000F0EE40AA28EE090A20EE0A0A68EEA90AC1
:1013100000EEAA0A84ED000A28EE890A20EE0A0AE5
:1013200068EE290A00EEEA0A84ED010A28EE290A8D
:1013300020EE0A0A68EE890A00EEAA0A84ED020A83
:1013400028EE090A20EE2A0A68EEA90A00EE8A0AA7
:1013500084ED030A94ED000AD4ED010A20EE200A80
:1013600084ED050A94ED000AD4ED020A20EE200A6D
:1013700084ED060A94ED000AD4ED030A20EE200A5B
:1013800084ED070A94ED010A20EE000A84ED080AB4
:1013900094ED010AD4ED020A20EE200A84ED090A38
:1013A00094ED010AD4ED030A20EE200A84ED0A0A26
:1013B00094ED020A20EE000A84ED0B0A94ED020A75
:1013C000D4ED030A20EE200A84ED0C0A94ED030A02
:1013D00020EE000A84ED0D0ABDEC0A8B05B030BD8D
:1013E00000003443DB0F494070B504460D46A5713B
:1013F000642003F017FD206000206071207101203F
:10140000E0600020A06070BD10B501460B790A684D
:10141000D05C0A79521C8B7992FBF3F403FB142203
:101420000A710A794B799A4201D10122CA608A680D
:101430000AB100228A6010BD10B543790268D15408
:101440004279521C837992FBF3F403FB142242711C
:10145000427903799A4201D101228260C2680AB1BD
:101460000022C26010BDF0B50A460021002300240E
:1014700000BF3DE0012505FA01F3156805EA030404
:101480009C4234D105684F000326BE40B543056039
:1014900015794E00B5400668354305601579012D74
:1014A00002D01579022D16D185684F000326BE4063
:1014B000B543856055794E00B540866835438560F3
:1014C000456801268E40B5434560456896798E4053
:1014D000B6B235434560C5684F000326BE40B543EC
:1014E000C560D5794E00B540C6683543C560491C16
:1014F0001029BFD3F0BDF0B5002300244D07ED0E39
:1015000002FA05F3CE1000F1200555F826504E07DB
:10151000F70E0F26BE40B543CF1000F1200646F867
:101520002750CE1000F1200555F8265045EA030457
:10153000CE1000F1200545F82640F0BD02460020FF
:1015400013690B400BB1012000E00020704700BF81
:10155000FEE730B50246002009E0135C4C1E241A59
:10156000145D1454155C4C1E241A1555401C4C1E59
:1015700004EBD475B0EB650FEFDB30BD38B51E2141
:10158000EE2003F0D3F9FFF7ABFD002413E00120B8
:10159000A02141EA4401CBB20B49009001EB440089
:1015A000EE22022103F002FB074901EB4400022175
:1015B000FFF7CFFF641C072CE9DB034840890012CA
:1015C0000249086038BD0000280300209000002078
:1015D00000BFFEE710B52DED0A8B044694ED240AFA
:1015E000D4ED210A30EE600AB0EE408A94ED250A6F
:1015F000D4ED220A30EE600AF0EE408A94ED260A1D
:10160000D4ED230A30EE600AB0EE409A18EE100ACC
:10161000FFF74EF941EC1B0BB0EE4B0AF0EE6B0AF4
:1016200002F0FAFAB0EE40AAF0EE60AA9FEDBB0B12
:1016300053EC102B51EC1A0BFFF766F90ED2B5EEF6
:10164000C08AF1EE10FA04DD9FEDB60A38EE000A0A
:1016500022E09FEDB50A38EE000A1DE018EE100AF0
:10166000FFF726F941EC1B0BB0EE4B0AF0EE6B0ACC
:1016700002F0D2FAB0EE40AAF0EE60AA9FEDAB0BFA
:1016800053EC102B51EC1A0BFFF726F902D29FED09
:10169000A90A01E0B0EE480AB0EE408A18EE900ABE
:1016A000FFF706F941EC1B0BB0EE4B0AF0EE6B0AAC
:1016B00002F0B2FAB0EE40AAF0EE60AA9FED9E0BE7
:1016C00053EC102B51EC1A0BFFF71EF90DD2F5EE6F
:1016D000C08AF1EE10FA01DD3C2001E06FF03B0022
:1016E00000EE100AB8EEC00A1DE018EE900AFFF7EF
:1016F000DFF841EC1B0BB0EE4B0AF0EE6B0A02F088
:101700008BFAB0EE40AAF0EE60AA9FED8D0B53EC81
:10171000102B51EC1A0BFFF7DFF802D29FED850A70
:1017200001E0B0EE680AF0EE408A19EE100AFFF709
:10173000BFF841EC1B0BB0EE4B0AF0EE6B0A02F067
:101740006BFAB0EE40AAF0EE60AA9FED7B0B53EC73
:10175000102B51EC1A0BFFF7D7F80DD2B5EEC09A4B
:10176000F1EE10FA01DD3C2001E06FF03B0000EEED
:10177000100AB8EEC00A1DE019EE100AFFF798F83B
:1017800041EC1B0BB0EE4B0AF0EE6B0A02F044FA90
:10179000B0EE40AAF0EE60AA9FED690B53EC102B5F
:1017A00051EC1A0BFFF798F802D29FED620A01E0A4
:1017B000B0EE490AB0EE409AB0EE480A04F58A70DD
:1017C00000F0F8FC84ED750AB0EE680A04F59A7032
:1017D00000F0F0FC84ED760AB0EE490A04F5AA7038
:1017E00000F0E8FC84ED770A94ED750A10EE101A0B
:1017F0000846FFF75DF841EC1C0BB0EE4C0AF0EE2A
:101800006C0A02F009FAB0EE40BAF0EE60BA9FED51
:101810004E0B53EC102B51EC1B0BFFF775F802D25B
:101820009FED490B08E094ED750A10EE101A08467A
:10183000FFF73EF841EC100BB0EE40AAF0EE60AAC4
:1018400051EC1A0BFFF778F8C4F8D40194ED760A3E
:1018500010EE101A0846FFF72BF841EC1C0BB0EE07
:101860004C0AF0EE6C0A02F0D7F9B0EE40BAF0EE96
:1018700060BA9FED350B53EC102B51EC1B0BFFF7AF
:1018800043F802D29FED300B08E094ED760A10EE9B
:10189000101A0846FFF70CF841EC100BB0EE40AA06
:1018A000F0EE60AA51EC1A0BFFF746F8C4F8D80125
:1018B00094ED770A10EE101A0846FEF7F9FF41EC96
:1018C0001C0BB0EE4C0AF0EE6C0A02F0A5F9B0EE7B
:1018D00040BAF0EE60BA9FED1C0B53EC102B51ECAC
:1018E0001B0BFFF711F802D29FED170B08E094EDE8
:1018F000770A10EE101A0846FEF7DAFF41EC100BDB
:10190000B0EE40AAF0EE60AA51EC1A0BFFF714F803
:10191000C4F8DC01BDEC0A8B10BD00000000000023
:10192000008066400000B4C30000B4430000000023
:1019300000000840000000000000000000004E40D1
:10194000000000000000F03F000000000000044024
:1019500070B52DED068B83480078002872D182483F
:1019600090F83C0200286DD07F4890ED280A10EED8
:10197000101A0846FEF79CFF41EC180B7A4890EDD0
:10198000220A10EE101A0846FEF792FF41EC1A0BDD
:10199000B0EE4A0AF0EE6A0A02F03EF9B0EE409A62
:1019A000F0EE609A53EC182B51EC190BFEF7ACFFDC
:1019B00001D2012500E000256B4890ED290A10EEC8
:1019C000101A0846FEF774FF41EC180B664890EDBC
:1019D000230A10EE101A0846FEF76AFF41EC1A0BB4
:1019E000B0EE4A0AF0EE6A0A02F016F9B0EE409A3A
:1019F000F0EE609A53EC182B51EC190BFEF784FFB4
:101A000001D2012000E000200543E5B1B1EE040A57
:101A10005648806880ED000AB1EE040A5348806899
:101A200080ED010AB1EE040A5048806880ED020A98
:101A3000B1EE040A4D48806880ED030A012049494F
:101A4000087088E08AE04848FFF7C4FD474880688E
:101A500090ED000A4448D0ED770A30EE200AD0ED30
:101A6000760A30EE200AD0ED750A30EE600A3F4863
:101A7000806880ED000A3D48806890ED010A3A4890
:101A8000D0ED770A30EE200AD0ED760A30EE600A0B
:101A9000D0ED750A30EE200A3448806880ED010AE6
:101AA0003248806890ED020A2F48D0ED770A30EE78
:101AB000600AD0ED760A30EE600AD0ED750A30EE9D
:101AC000600A2A48806880ED020A2848806890ED04
:101AD000030A2548D0ED770A30EE600AD0ED760A89
:101AE00030EE200AD0ED750A30EE200A1F488068DB
:101AF00080ED030A00242CE01C48806800EB840081
:101B000090ED000AF2EE040AB4EEE00AF1EE10FAEB
:101B100002DDB2EE040A15E01448806800EB840090
:101B200090ED000AF1EE040AB4EEE00AF1EE10FACC
:101B300002D2B1EE040A05E00C48806800EB840094
:101B400090ED000A0948806800EB840080ED000AEF
:101B5000641C042CD0DB054800F05EFCBDEC068B59
:101B600070BD000070000020C000002000030020B5
:101B700010B52DED028B9EB00446204600F0B6F95C
:101B80000321204600F0D6FA032104F1180000F0EA
:101B9000D1FA1BAA314904F5FA7001F00AFD18AA1E
:101BA00004F1180104F5067001F003FD15A918A849
:101BB00002F052FE12AA15A904F5FA7001F0F9FC20
:101BC0000FAA1BA92046FFF785F80CAA12A904F159
:101BD0001800FFF77FF80CAA0FA904F1A80002F083
:101BE00021FE204603F0DFFD204603F010FD042116
:101BF00004F14C0000F09EFA04F18400282204F164
:101C00005C010A906846FEF79CFC04F14C000FC88A
:101C100000F052FC94ED210ADFED110A30EEC00A0B
:101C200084ED210A94ED220AB1EE400A84ED220AE5
:101C3000204603F041FC94ED220A10EE101A0846EB
:101C4000FEF736FE41EC180B53EC182B05A001F003
:101C5000CFFC1EB0BDEC028B10BD00009C0000202C
:101C60000000B443643A25660A0000002DE9F04103
:101C70002DED048B5D48FFF77BFF5C4890F83C023C
:101C800000283AD15A480078C0BB5A4804684168D5
:101C900018250026A4FB050701FB057104FB0616A9
:101CA00055490C68496805462C1946EB0105182072
:101CB0000026A4FB001705FB007004FB06004F4D37
:101CC0002C686D68091968413C253446064628464B
:101CD0002546A1FB004706FB007001FB0500484DAF
:101CE00029686D68621840EB05011046FEF7D4FDC7
:101CF000444A03C201203E49087072E0FFE73D49B3
:101D00000868496818250026A0FB054701FB0571F6
:101D100000FB061038490D684E68641946411825C5
:101D20000021A4FB050706FB057504FB015433499C
:101D30000D684968064620460C46711960413C25ED
:101D40000026A1FB054700FB057001FB06002C4D9A
:101D500029686D68621840EB05011046FEF79CFD8E
:101D600041EC190B274890ED000B53EC102B51EC74
:101D7000190BFEF799FC9FED240B53EC102BFEF78B
:101D8000C3FD2ED2194890ED210A80ED240A90ED72
:101D9000220A80ED250A90ED230A80ED260A012013
:101DA000124981F83C02B1EE080A1948806880EDBA
:101DB000000AB1EE080A1648806880ED010AB1EE0B
:101DC000080A1348806880ED020AB1EE080A10483C
:101DD000806880ED030A0E4800F01EFB0DA001F0A4
:101DE00007FCBDEC048BBDE8F0810000C0000020C2
:101DF0007100002058000020500000204800002002
:101E00004000002078000020000000000000244076
:101E1000000300204F4B0A0030B59BB004460D462E
:101E2000002084F83C0204F14C0094ED231AD4ED18
:101E3000220A94ED210AFFF7F3F9204603F03CFB58
:101E400000EE105AB8EE400AF7EE000A80EE801A53
:101E500084ED7C1A03F03EF904F13C0204F13001F8
:101E600004F1240003F014F8204600F03FF80321A9
:101E7000204600F05FF9032104F1180000F05AF940
:101E800015AA04F118012046FEF724FF18AA2146DE
:101E900015A8FEF71FFF18A807C80CAB07C315A8A5
:101EA00007C80FAB07C394E8070012AB07C304F1E0
:101EB0004C010CA800F0C8FB04F18400282204F1B6
:101EC0005C010A906846FEF73CFB04F14C000FC829
:101ED00000F0F2FA94ED210ADFED030A30EEC00AB9
:101EE00084ED210A1BB030BD0000B4432DE9F04160
:101EF0002DED0A8B044651490868496818264FF0B1
:101F0000000CA0FB067801FB068100FB0C104C4E78
:101F100031687668791870411827A1FB076800FBC3
:101F2000078001FB0C00474F39687F6876187841BD
:101F30004FF03C0C0021A6FB0C7800FB0C8006FB4C
:101F4000010041490E68D1F804C0B91940EB0C0CEE
:101F50004FF47A770026A1FB07080CFB078701FBEB
:101F6000067C3A490F684E68C2194CEB06011046D0
:101F7000FEF792FC41EC1C0B04F1180204F10C0179
:101F8000204603F0CFF832480068FEF774FC9FED5E
:101F9000310B53EC102BFEF7FFFB9FED300B53EC96
:101FA000102BFEF784FB9FED2F0B53EC102BFEF74D
:101FB00081FBFEF7C1FCA064002538E004EB85003E
:101FC00090ED000A04F1240000EB8500D0ED000A3A
:101FD00030EE200A04EB850080ED000A04F10C00CD
:101FE00000EB850090ED000A04F1300000EB850065
:101FF000D0ED000A30EE200A04F10C0000EB850061
:1020000080ED000A04F1180000EB850090ED000A55
:1020100004F13C0000EB8500D0ED000A20EE200A20
:1020200004F1180000EB850080ED000A6D1C032D03
:10203000C4DBBDEC0A8BBDE8F08100005800002035
:102040005000002048000020400000203000002008
:10205000980000200000000000005940000000002F
:1020600000AA8F400000000000002240704708B521
:1020700025208DF8000001208DF8010000208DF84A
:10208000020001208DF80300684600F017F82720B1
:102090008DF80000684600F011F81D208DF8000052
:1020A00001208DF8010003208DF8020001208DF839
:1020B0000300684600F002F808BD000070B500217A
:1020C00000230F22C4781CB3174C246804F4E06486
:1020D000C4F5E064C4F30721C1F10404E3B20A418A
:1020E00044789C40E1B28478144021430C07210ECF
:1020F0000E4C05786155047804F01F050124AC40AE
:1021000005786D11AD0005F1E025C5F8004109E045
:10211000047804F01F050124AC40054D06787611C3
:1021200045F8264070BD00000CED00E000E400E042
:1021300080E100E02DE9F0412DED028B06460D46D1
:102140009FED1B0AF0EE408AA8464FEA880002F095
:1021500069FE07463A4629463046FEF75BF90024F9
:1021600008E007EB840090ED000A30EE280AF0EE5C
:10217000408A641CAC42F4DBB0EE680A00F038FA26
:10218000B0EE408A00240AE006EB840090ED000ADD
:1021900020EE080A06EB840080ED000A641CAC42C5
:1021A000F2DB384602F016FBBDEC028BBDE8F08195
:1021B0000000000010B52DED0C8B0446B0EE408AF7
:1021C00094ED050A38EE400AF0EE408AC4ED078A25
:1021D000B3EE040A04F1180002F029FD84ED060AAA
:1021E000F0EE408A94ED030AD4ED000A00EE880A6E
:1021F000D4ED020A00EEA80AB0EE409A94ED040A6B
:1022000010EE101A0846FEF753FB41EC1A0B94ED42
:10221000030A10EE101A0846FEF74AFB41EC1C0BAD
:10222000B0EE4C0AF0EE6C0A01F0F6FCB0EE40BAEB
:10223000F0EE60BA53EC1A2B51EC1B0BFEF74CFB83
:1022400001D2012000E00020B5EEC08AF1EE10FAC4
:1022500008DD94ED030AB5EEC00AF1EE10FA01D2E2
:10226000012100E000210843B5EEC08AF1EE10FA2A
:1022700008D294ED030AB5EEC00AF1EE10FA01DDC2
:10228000012100E00021084320B394ED010A20EE73
:10229000080A10EE101A0846FEF70AFB41EC1D0B67
:1022A0009FED100B53EC102BFEF704FA41EC1B0BC7
:1022B00094ED030A10EE101A0846FEF7F9FA41EC05
:1022C0001C0B53EC1B2BFEF74EF941EC1A0BFEF7DF
:1022D00033FBE06084ED058AB0EE490ABDEC0C8B5F
:1022E00010BD0000FA7E6ABC7493683F9FED082A17
:1022F00080ED032A9FED062A80ED052A80ED000A75
:10230000C0ED010A80ED021AC0ED041A704700000A
:102310000000000010B58AB004460121084600F014
:102320001FFB0121084600F00BFB0122002137486A
:10233000FFF7E1F8012211463448FFF7DCF80122EB
:1023400002213248FFF7D7F8012203212F48FFF777
:10235000D2F802208DF8040000208DF8060003203A
:102360008DF805000F20009069462848FFF77BF89C
:102370000020ADF81C00ADF81E00ADF82400244983
:1023800020680968B1FBF0F0089007A94FF0804081
:1023900000F094FE6020ADF808000020ADF81400B5
:1023A0001B4920680968B1FBF0F000EE100AB8EE96
:1023B000400AA068D0ED000A9FED161AC0EE811AFF
:1023C00020EE210ABCEEC00A8DED040A0120ADF812
:1023D0000A0002A9800700F055FD02A94FF08040D5
:1023E00000F08EFD02A94FF0804000F0DBFD02A955
:1023F0004FF0804000F026FE0121880700F00DFD1F
:102400000121880700F015FD0AB010BD0000024050
:10241000100000200000C842244A01681268B2FB84
:10242000F1F100EE101A816891ED001ADFED201A2B
:10243000C1EE210AB8EEC01A60EE810AFCEEE00A95
:1024400010EE901A4FF080425163816891ED011AAD
:10245000DFED171AC1EE210AB8EEC01A60EE810A4C
:10246000FCEEE00A10EE901A9163816891ED021A79
:10247000DFED0F1AC1EE210AB8EEC01A60EE810A34
:10248000FCEEE00A10EE901AD163816891ED031A18
:10249000DFED071AC1EE210AB8EEC01A60EE810A1C
:1024A000FCEEE00A10EE901A116470471000002054
:1024B0000000C842704700000FB410B52DED0A8B24
:1024C0001A9C9DED171ADDED191A71EE211AB7EE5F
:1024D000001AB0EE002A02EE611AF0EE410A9DEDFC
:1024E000151ADDED131A31EE211AF0EE001A21EE65
:1024F000211AB0EE410A01F067FAB0EE408A9DED74
:10250000160ADDED120A30EE600AF0EE000A20EE47
:10251000200A10EE101A0846FEF7CAF941EC1C0B0F
:10252000B0EE4C0AF0EE6C0A01F09EF8B0EE40BA44
:10253000F0EE60BA51EC1B0B81F0004141EC1A0B3C
:10254000FEF7FAF909EE100A9DED141ADDED171ADF
:1025500071EE211AB7EE001AB0EE002A02EE611AEF
:10256000F0EE410A9DED181ADDED111A31EE211A37
:10257000F0EE001A21EE211AB0EE410A01F024FA21
:10258000F0EE408AB5EEC08AF1EE10FA04D29FED6B
:10259000150A38EE000A01E0B0EE480A9FED121A63
:1025A000C0EE010A9FED110A20EE800A84ED000AB8
:1025B000DFED0D0A89EE200ADFED0C0A20EE200A7D
:1025C00084ED010ADFED080A88EEA00ADFED070AB4
:1025D00020EE200A84ED020ABDEC0A8B10BC5DF8E7
:1025E00014FB0000DB0FC940DB0F494000003443FF
:1025F000F0EE400AB7EE082AF0EE421AB6EE002AD4
:1026000020EE822AB0EE421AB0EE600A10EE100AF6
:102610000C49A1EB600000EE100A61EE002AB7EE53
:10262000082A02EEC02A22EE002AB0EE420A61EE2B
:10263000002AB7EE082A02EEC02A22EE002AB0EEE7
:10264000420A7047865A375F2DE9F0412DED088B1D
:1026500088B005460C46B74A07CA01AB07C395EDDB
:10266000000AD5ED040A30EE200AD5ED080A30EE56
:10267000200AF0EE408AF5EEC08AF1EE10FA47DD4E
:1026800018EE900AFEF714F941EC1B0B9FEDAA0B14
:1026900053EC102BFDF767FF41EC1A0BFEF74CF9DA
:1026A00009EE100AB0EE490A01F0FDFAB0EE408AD8
:1026B000B0EE000AC8EE000AC4ED000AB5EEC08A0A
:1026C000F1EE10FA05D0B6EE000AC0EE080AB0EE40
:1026D000608A95ED070AD5ED050A30EE600A20EE16
:1026E000080A84ED010A95ED020AD5ED060A30EEDE
:1026F000600A20EE080A84ED020A95ED030AD5ED82
:10270000010A30EE600A20EE080A84ED030AC4E0F4
:10271000002695ED040AD5ED000AB4EEE00AF1EECC
:1027200010FA00DD012606EB460005EB800000EB09
:10273000860090ED000AD5ED080AB4EEE00AF1EE4D
:1027400010FA00D2022601A850F8267050F827800F
:1027500007EB470005EB800000EB870090ED000AD7
:1027600008EB480005EB800000EB8800D0ED000A84
:1027700030EE200A06EB460005EB800000EB8600F9
:10278000D0ED000A30EEC00AF7EE000A30EE200A63
:1027900010EE101A0846FEF78BF841EC1A0BB0EE5B
:1027A0004A0AF0EE6A0A01F041FAB0EE409AF0EE01
:1027B000609A51EC190BFEF7BFF808EE100AB6EE5E
:1027C000000A28EE000A04A800EB860080ED000A4B
:1027D000B5EEC08AF1EE10FA05D0B6EE000AC0EEF2
:1027E000080AB0EE608A07EB470005EB800000EBBB
:1027F000880090ED000AB1EE400A08EB480005EBB6
:10280000800000EB8700D0ED000A30EE600A20EE79
:10281000080A8DED070A06EB460005EB800000EB89
:10282000870090ED000A07EB470005EB800000EB06
:102830008600D0ED000A30EE200A20EE080A04A837
:1028400000EB870080ED000A06EB460005EB8000F8
:1028500000EB880090ED000A08EB480005EB8000D3
:1028600000EB8600D0ED000A30EE200A20EE080AC8
:1028700004A800EB880080ED000A9DED040A84EDB9
:10288000010A9DED050A84ED020A9DED060A84ED1C
:10289000030A9DED070A84ED000A94ED000A20EE7C
:1028A000000A84ED040A94ED000AD4ED010A20EE3A
:1028B000200A84ED050A94ED000AD4ED020A20EE08
:1028C000200A84ED060A94ED000AD4ED030A20EEF6
:1028D000200A84ED070A94ED010A20EE000A84ED37
:1028E000080A94ED010AD4ED020A20EE200A84EDD4
:1028F000090A94ED010AD4ED030A20EE200A84EDC2
:102900000A0A94ED020A20EE000A84ED0B0A94ED07
:10291000020AD4ED030A20EE200A84ED0C0A94ED9D
:10292000030A20EE000A84ED0D0A08B0BDEC088B06
:10293000BDE8F08130580008000000000000F03FC2
:1029400029B1064A12680243044B1A6004E0034AA4
:1029500012688243014B1A60704700003038024011
:1029600029B1064A12680243044B1A6004E0034A84
:1029700012688243014B1A607047000040380240E1
:1029800029B1064A12680243044B1A6004E0034A64
:1029900012688243014B1A607047000044380240BD
:1029A000F0B5002100220024022500260223324F28
:1029B0003F6807F00C0121B1042905D0082937D15F
:1029C00005E02E4F076036E02D4F076033E02A4FB9
:1029D0003F1F3F68C7F38056274F3F1F3F6807F0F0
:1029E0003F036EB1264FB7FBF3F7DFF88CC0ACF1B5
:1029F000040CDCF800C0CCF3881C07FB0CF40CE0E2
:102A00001E4FB7FBF3F7DFF870C0ACF1040CDCF835
:102A100000C0CCF3881C07FB0CF4174F3F1F3F6826
:102A2000C7F301477F1C7D00B4FBF5F7076002E0A8
:102A3000124F076000BF00BF0F4F3F6807F0F00163
:102A40000909104F7A5C0768D74047600A4F3F6812
:102A500007F4E051890A0B4F7A5C4768D7408760DA
:102A6000054F3F6807F46041490B064F7A5C4768A1
:102A7000D740C760F0BD0000083802400024F400D1
:102A800000127A0000000020704700000CB5002002
:102A9000019000904148006840F480303F49086050
:102AA00000BF3E48006800F4003000900198401CD0
:102AB0000190009818B90198B0F5A04FF1D13748AE
:102AC000006800F4003010B10120009001E0002007
:102AD00000900098012860D130484030006840F0F4
:102AE00080502E49403108602D48006840F4404035
:102AF0002B490860294808300068284908310860D7
:102B00000846006840F4004008600846006840F449
:102B1000805008602348091F0860081F006840F0C3
:102B20008070091F086000BF1C48006800F000703A
:102B30000028F9D01A48006840F48030184908602D
:102B400000BF1748406800F480300028F9D01448CE
:102B5000006840F400301249086000BF1048406827
:102B600000F400300028F9D040F205700E490860EA
:102B70000A480830006820F003000849083108605E
:102B80000846006840F00200086000BF03480830B3
:102B9000006800F00C000828F8D10CBD0038024095
:102BA00000700040085A4007003C0240042808D149
:102BB0004FF0E021096941F004014FF0E02211617A
:102BC00007E04FF0E021096921F004014FF0E02215
:102BD000116170471B480368406840F2E7329A1A57
:102BE00070F1000009D2174802684068521C40F199
:102BF000000014490A60486023E00021114A116076
:102C0000516011480368406840F2E731591A70F189
:102C1000000009D20C4803684068591C40F10000CC
:102C2000094A116050600CE00021074A11605160B0
:102C3000064801684068491C40F10000034A1160E1
:102C40005060704738000020300000204000002015
:102C50002DE9F04105460E46164A00232846314626
:102C6000FDF73EFC0446601EB0F1807F00D31BE000
:102C7000601E4FF0E021486148170F21002807DA55
:102C80000A07170E0C4A00F00F031B1FD75403E06E
:102C90000A07130E094A135400BF00204FF0E02129
:102CA00088610720086100BF0420FFF77FFFBDE8AF
:102CB000F081000040420F0018ED00E000E400E069
:102CC00070B500200022022300240221274D2D6828
:102CD00005F00C0020B1042806D0082834D107E004
:102CE000234D244E356033E0234D224E35602FE0D6
:102CF0001E4D2D1F2D68C5F380541C4D2D1F2D68B2
:102D000005F03F0154B11C4DB5FBF1F5174E361FD0
:102D10003668C6F3881605FB06F209E0144DB5FBCC
:102D2000F1F5124E361F3668C6F3881605FB06F21B
:102D30000E4D2D1F2D68C5F301456D1C6B00B2FBB8
:102D4000F3F50C4E356003E0094D0A4E356000BFC7
:102D500000BF064D2D68C5F30315084E705D054D87
:102D60002D68C540034E356070BD00000838024034
:102D70000024F4001000002000127A00140000204B
:102D800010B51548006840F47000134908601348F6
:102D9000006840F001001149086000200F49083127
:102DA00008600E4800680E4908400C4908600D484C
:102DB000091D0860081F006820F48020091F0860B2
:102DC000002006490C310860FFF760FE4FF00060FC
:102DD00001498039086010BD88ED00E000380240EC
:102DE000FFFFF6FE1030002410B50121074800F067
:102DF0002FF830B106480068401C0549086002F011
:102E000031FB0121014800F005F810BD000400402D
:102E100088000020CA430282704721B1028842F034
:102E20000102028004E002884FF6FE731A4002801D
:102E3000704731B1B0F8442042F40042A0F8442079
:102E400005E0B0F84420C2F30E02A0F84420704719
:102E500030B50246002000230024158A05EA01034C
:102E6000958905EA010413B10CB1012000E00020AE
:102E700030BD1AB183890B43838102E083898B4380
:102E80008381704770B5002400220023058C4FF623
:102E9000FE7635400584028C8388048B4FF68F754F
:102EA0002C40B51E2C400D882C43751E2A408D8960
:102EB0002A434D882A43104DA84202D00F4DA84204
:102EC00013D14FF6F7752A40CD892A434FF6FB758B
:102ED0002A408D882A434FF6FF652B404FF6FF5559
:102EE0002B400D8A2B434D8A2B43838004838D68AE
:102EF0004563028470BD00000000014000040140F1
:102F000070B5002400220023058C4FF6EF76354083
:102F10000584028C8388048B48F6FF752C404FF69D
:102F2000FF452C400D884FF6FF7606EA05252C4319
:102F30004FF6DF752A408D8906EA05152A434D882C
:102F400006EA05152A43154DA84202D0144DA842A1
:102F50001DD14FF67F752A40CD894FF6FF7606EAE0
:102F600005152A434FF6BF752A408D8806EA0515D8
:102F70002A434FF6FF352B404FF2FF752B400D8A49
:102F800006EA85052B434D8A06EA85052B43838097
:102F900004838D688563028470BD000000000140D9
:102FA0000004014070B5002400220023058C4FF678
:102FB000FF6635400584028C8388848B4FF68F75BD
:102FC0002C404FF6FC752C400D882C434FF6FF55D6
:102FD0002A408D894FF6FF7606EA05252A434D885B
:102FE00006EA05252A43154DA84202D0144DA842F1
:102FF0001DD14FF2FF752A40CD894FF6FF7606EAC4
:1030000005252A434FF6FF352A408D8806EA052517
:103010002A434EF6FF752B404DF6FF752B400D8A67
:1030200006EA05152B434D8A06EA05152B438380D6
:1030300084838D68C563028470BD00000000014078
:103040000004014070B5002200230024058C4EF6D8
:10305000FF7635400584038C8488828B48F6FF75A3
:103060002A404FF6FF452A400D884FF6FF7606EAC4
:1030700005252A434DF6FF752B408D8906EA053557
:103080002B434D8806EA05352B430A4DA84202D052
:10309000094DA84208D14BF6FF752C400D8A4FF61A
:1030A000FF7606EA85152C43848082838D6805644B
:1030B000038470BD0000014000040140002202882A
:1030C000184B98420ED0184B98420BD0B0F1804F5D
:1030D00008D0164B984205D0154B984202D0154B9C
:1030E000984204D14FF68F731A404B881A43124B03
:1030F000984207D0114B984204D04FF6FF431A4034
:103100000B891A4302804B68C3620B880385054B09
:10311000984202D0044B984201D18B7A0386012356
:103120008382704700000140000401400004004019
:1031300000080040000C0040001000400014004057
:103140004FF0FF3141600021018001814180817297
:103150007047000010B540F225512A4800F059F997
:1031600000284ED0274800F019FAC4B2204600F0DB
:10317000AFF82548007830B101280AD0022812D0D3
:10318000032839D11DE0AA2C02D101201E49087064
:1031900036E0552C03D102201B49087002E00020C4
:1031A000194908702CE01D2C03D103201649087022
:1031B00006E01648806818B921461448FEF73CF925
:1031C0001EE01A2C06D100200F490870012010497A
:1031D000087010E00D48806818B90D210B48FEF703
:1031E0002BF90A48806818B921460848FEF724F9E7
:1031F00002200549087003E000200349087000BF61
:1032000000BF10BD00100140850000201803002001
:103210008200002010B540F22551294800F0F9F84D
:1032200000284BD0264800F0B9F9C4B225480078F0
:1032300030B101280AD0022812D0032839D11DE06C
:10324000AA2C02D101201F49087036E0552C03D169
:1032500002201C49087002E000201A4908702CE086
:103260001D2C03D103201749087006E0164880681A
:1032700018B921461448FEF7DFF81EE01A2C06D1D3
:1032800000201049087001201049087010E00E4815
:10329000806818B90D210C48FEF7CEF80A488068FE
:1032A00018B921460848FEF7C7F8022005490870FA
:1032B00003E000200349087000BF00BF10BD0000FC
:1032C000004800408C0000201803002082000020ED
:1032D00010B504462146054800F065F900BF4021BD
:1032E000024800F089F80028F9D010BD00480040DD
:1032F00021B1828942F40052828104E082894DF634
:10330000FF731A40828170471FB54FF4E13000907F
:103310000020ADF80400ADF80600ADF80800ADF8E7
:103320000C000C20ADF80A0069460F4800F0C0F808
:10333000012240F225510C4800F095F801210A487D
:10334000FFF7D6FF4FF4165000906946074800F08B
:10335000AFF8012240F22551044800F084F8012121
:103360000248FFF7C5FF1FBD0010014000480040A4
:103370001CB501210846FFF7E3FA01211020FFF7F1
:10338000FFFA01210220FFF7DBFA01218804FFF791
:10339000E7FA072209211648FEF7ADF807220A21AD
:1033A0001348FEF7A8F807220B211248FEF7A3F8EE
:1033B00007220A210F48FEF79EF802208DF805002B
:1033C0008DF8040000208DF8060001208DF807001C
:1033D0004FF44060009069460648FEF744F84FF409
:1033E000C060009069460248FEF73DF81CBD000031
:1033F000000002400004024002460020B1F5007FB8
:1034000000D100BF13880B400BB1012000E0002069
:10341000704770B50246002400230025002040F6C6
:103420006A16B14200D100BFC1F3421501F01F037B
:10343000012606FA03F3012D02D19689334006E0F6
:10344000022D02D1168A334001E0968A33400C12D5
:10345000012606FA04F41688344013B10CB1012099
:1034600000E0002070BDF0B50346002400260025D2
:10347000002040F66A17B94200D100BF1846C1F3D8
:10348000421401F01F06012707FA06F5012C01D1AD
:103490000C3004E0022C01D1103000E014301AB1DD
:1034A00007682F43076002E00768AF430760F0BD7D
:1034B0002DE9FF4705460E460024A14600BFA04661
:1034C000B08900B100BF2C8A24F44054F088044332
:1034D0002C82AC8941F20C608443B0883189084366
:1034E000718908430443AC81AC8A24F44074B089E8
:1034F0000443AC826846FFF753FA2048854202D065
:103500001F48854202D1DDF80C9001E0DDF80890FB
:10351000A88900F4004040B109EBC90000EB091094
:1035200031684900B0FBF1F707E009EBC90000EB97
:10353000091031688900B0FBF1F76420B7FBF0F0A7
:1035400004012009642101FB1078A88900F40040DF
:1035500040B1322000EBC800B0FBF1F000F00700F2
:10356000044308E0322000EB08106421B0FBF1F0C6
:1035700000F00F0004432C81BDE8FF8700100140DC
:103580000014014010B564210348FDF72DFFFFF73B
:10359000EFFEFFF7B9FE10BD180300200146888832
:1035A000C0F308007047C1F308028280704700BF73
:1035B000FEE770B586B004460D4616462346032244
:1035C000114604A8FCF784FE2B460122032102A821
:1035D000FCF77EFE3346012203216846FCF778FEA5
:1035E0006A4602A904A8FCF777FE06B070BD000089
:1035F0000FB4054B10B503A9044A029800F0FCFC77
:1036000010BC5DF814FB0000B1470008B0000020BA
:1036100003B401984100009850EAC12018BF04206B
:103620004A0D18BF40F0010040F2FF72B2EB515F4B
:1036300008BF40F00200012808BF052002B0704713
:103640004100080218BF04200A0E18BF40F0010014
:103650004FF07F4232EA010108BF40F0020001282A
:1036600008BF05207047000070B5C1482DED020B62
:103670002DED0E8B82B0119D25F000449FEDBEDB39
:103680009FEDBFEB84423EDBA4F140511098A1F1C5
:103690007F6108430FD0BC48844202DC28D11098D7
:1036A00030B39DED100B02B0BDEC0E8B02B0BDE847
:1036B000704000F091BB9DED100B53EC1D2B51ECB5
:1036C000100BFCF7F7FF9DED100B41EC180B53ECC2
:1036D0001E2B51EC100BFCF7EDFF53EC182BFCF7F5
:1036E00042FF41EC100B02B0BDEC0E8B02B070BD7E
:1036F000012000F0B9FB02B0BDEC0E8B02B0BDE8BA
:10370000704000F075BBA1489FEDA18B844256DA52
:103710009DED100BB4F1795F0ADA51EC100BFFF755
:1037200077FF042808BF00F073FB9DED100BDAE76C
:1037300053EC102B51EC100BFCF7BCFF41EC190BB8
:1037400095480621B0EE490AF0EE690A784400F087
:10375000C7FA53EC192B51EC100BFCF7ABFF41EC03
:103760001A0B8E48B0EE490AF0EE690A042178443B
:1037700000F0B6FA53EC192B51EC100BFCF79AFF42
:1037800053EC182BFCF7EFFE41EC100B51EC1A0B2D
:1037900053EC102BFDF700F8CDE900019DED000B77
:1037A00053EC102B9DED100B51EC100BFCF782FF2E
:1037B0009DED101B53EC112BFCF7D5FED2E09DEDD7
:1037C000100B51EC100B00F0E7FF53EC182BFCF73B
:1037D0006EFF9FED730BCDE9000153EC102B9DEDB7
:1037E000000B51EC100BFCF765FF41EC190B6E4818
:1037F0000621B0EE490AF0EE690A784400F070FA4A
:1038000053EC192B51EC100BFCF754FF41EC1B0B44
:103810006648B0EE490AF0EE690A0421784400F0E7
:103820005FFA53EC192B51EC100BFCF743FF53ECF0
:10383000182BFCF798FE41EC1C0B51EC190B01F016
:10384000DAFD41EC180B5A489FED5BABA04222DC3D
:1038500053EC1C2B51EC1B0BFCF79EFFCDE9000138
:103860009DED000B51EC180B53EC102BFCF722FFD5
:1038700053EC182BFCF777FE53EC1A2BFCF71AFFCE
:1038800053EC1D2BFCF710FF53EC1E2BFCF70FFF26
:1038900041EC100B5FE08DED008B002000909DED62
:1038A000000B51EC180B53EC102BFCF75CFE9DED5C
:1038B000000B41EC1E0B53EC102B51EC100BFCF7E2
:1038C000F9FE53EC192BFCF7F2FE53EC1E2BFCF720
:1038D00063FF41EC190B53EC1C2B51EC1B0BFCF759
:1038E0005BFF41EC1B0B53EC1A2B51EC190BFCF753
:1038F000E1FE53EC1D2BFCF7DAFE41EC190B53EC07
:103900001A2B51EC180BFCF7D5FE53EC1B2BFCF7D4
:10391000D1FE53EC192BFCF7C7FE9DED000B41ECDB
:10392000180B53EC1A2B51EC100BFCF7C3FE9FED58
:10393000249B53EC192BFCF7BAFE41EC100B51EC15
:10394000180B53EC102BFCF7AFFE53EC192BFCF7C4
:10395000AEFE41EC100B002D3FF7C5AE51EC100B45
:1039600081F0004141EC100BBDE6000000000000BA
:103970000000F03F00000000075C143326A6913CD5
:10398000182D4454FB21F93F0000F07F0000E03F78
:10399000000000000000F03FF0280000FE280000BA
:1039A000000000000000E03F422800005028000016
:1039B0003333EF3F00000000000000000000004033
:1039C000182D4454FB21E93F10EE100A10B510EEFB
:1039D000901A4FF0684202EB40032DED028BB3F1D9
:1039E000654F3CBF02EB4102B2F1654F7CD200BF94
:1039F000C0F3C753C1F3C7529A1A1B2A09DD10F04E
:103A0000004F14BF9FED6E0A9FED6E0ABDEC028B56
:103A100010BD12F11A0F1BDA11F0004F09D010F08F
:103A2000004F0CBF9FED680A9FED680ABDEC028B4A
:103A300010BD80EE208A18EE100AFFF701FE042860
:103A400008BF00F0F9F9B0EE480ABDEC028B10BDDA
:103A50004200B2EB410F37D910F0004F19BFDFED34
:103A60005C1A9FED5C1ADFED5C1A9FED5C1AB0EEFC
:103A7000602A0A46F1EE400A80F00041B0EE420AA8
:103A800010460A1A5200B2F1807F34D2484010F03A
:103A9000004FDFED532A9FED533A1DBFBEEE002AC3
:103AA00071EEE21A31EE431AB6EE002A04BF71EE4F
:103AB000A21A31EE031AF0EE402A42EE602A40EEDE
:103AC000020A82EEA02A18E011F0004F04BF9FED19
:103AD000461AF0EE411AD4D010F0004F1CBFDFEDB3
:103AE000431A9FED431A00E026E004BFDFED411AC0
:103AF0009FED411AC5E780EE202A22EE020ADFED93
:103B00003F0ADFED3F2ABDEC028B40EE202ADFEDBD
:103B10003D0A40EE220ADFED3C2A40EE202ADFED8E
:103B20003B0A40EE220A22EE000A00EE201A31EE95
:103B3000020A30EE210A10BD4FF07F42B2EB400F77
:103B400028BFB2EB410F05D2BDEC028BBDE810409F
:103B500000F06EB940EA01035B0008BF41F0FF418D
:103B60000BD0B2EB400F08BFB2EB410F08D120F0F1
:103B7000804000EE100A21F0804100EE901A37E7F5
:103B8000B2EB400F12BF5FEA410240F0FF4001F08C
:103B900000413FF42DAF4A0092EA40033FF528AFC1
:103BA000002AACBF9FED1A1A9FED1A1A20EE010AE7
:103BB00060EE810A10EE100A10EE901A18E700006D
:103BC000DB0FC9BFDB0FC93FDB0F4940DB0F49C02B
:103BD0000000C9BF22AAFDB90000C93F22AAFD39D1
:103BE0000060ED3EC30ACE3700000000000049C06F
:103BF00022AA7DBA0000494022AA7D3A2DAD65BDBA
:103C00008FB8D53D0FB511BE61C84C3EA8AAAABE5B
:103C10000000804F0000802F2DED020B019820F056
:103C2000004001909DED000B02B0704700B52DEDF6
:103C3000048BB0EE409AF0EE609A83B051EC190B11
:103C4000FCF792FF41EC180B18EE100A18EE901AD0
:103C50008DED008B002818BF0120084320F00040A4
:103C6000C0F17F6000F1E040C00F14D019EE101ACF
:103C700019EE900A8DED009B002918BF0121084321
:103C800020F00040C0F17F6000F1E040C00F04BFB1
:103C9000012000F0E9F8B0EE480A03B0F0EE680A3F
:103CA000BDEC048B00BD10B52DED028BB1EEC08ACA
:103CB00018EE100A20F00040C0F1FF40C00F0AD0FB
:103CC00010EE100A20F00040C0F1FF40C00F04BF0A
:103CD000012000F0C9F8B0EE480ABDEC028B10BD1F
:103CE00070B504462DED028B4D1E00EBC500B0EE05
:103CF000408AF0EE608A90ED000B35F0060017D098
:103D000053EC182B51EC100BFCF7D4FC41EC100BCE
:103D10006D1E04EBC50090ED001B51EC100B53EC35
:103D2000112BFCF720FC41EC100B35F00600E7D11D
:103D3000022D36D0042D1CD0062D1CBFBDEC028BED
:103D400070BD53EC182B51EC100BFCF7B3FC94ED49
:103D50000A1B53EC112BFCF706FC53EC182BFCF759
:103D6000A9FC94ED081B53EC112BFCF7FCFB41EC78
:103D7000100B53EC182B51EC100BFCF79BFC94ED43
:103D8000061B53EC112BFCF7EEFB53EC182BFCF746
:103D900091FC94ED040B53EC102BFCF7E4FB41EC8D
:103DA000100B53EC182B51EC100BFCF783FC94ED2B
:103DB000021B53EC112BFCF7D6FB53EC182BFCF732
:103DC00079FC94ED001B53EC112BFCF7CCFBBDEC04
:103DD000028B41EC100B70BD10B553EC102B51EC65
:103DE000100BFCF7C0FB41EC100B10BD00000000F5
:103DF0009FED050B10B553EC102B51EC100BFCF79D
:103E0000CBFC41EC100B10BD0000000000000000D6
:103E10009FED050B10B553EC102B51EC100BFCF77C
:103E200049FC41EC100B10BD000000000000001028
:103E300030EE200A704700009FED020A20EE000AD3
:103E4000704700000000001002E008C8121F08C1FF
:103E5000002AFAD170477047002001E001C1121F0B
:103E6000002AFBD17047000001490860704700003C
:103E7000BC0000202DE9FF5F82B00021DDE90430A5
:103E8000020DDDF840B0034318D044F61050A2F202
:103E9000FF3242431514119801281FD0A5EB0B00E7
:103EA000401C5FEA000A4FF000064E4FDFF83891E1
:103EB000B046504615D5CAF1000413E0119801240C
:103EC0004AA3012801D16FEA0B010298119AC0E9B7
:103ED0000031C0E9024206B0BDE8F09FCBF100001E
:103EE000DFE704460021404A491842EB0450CDE97F
:103EF000001012E0E00707D032463B4640464946F4
:103F0000FCF7D8FB8046894632463B4610461946A8
:103F1000FCF7D0FB06460F466410002CEAD1DDE921
:103F20000401DDE90023BAF1000F06DAFCF7C2FB59
:103F300042464B46FCF7BEFB05E0FCF72DFC424633
:103F40004B46FCF729FC04460E460022284BFCF7A2
:103F5000DBFC03D84FF0FF30014607E00022254B81
:103F600020463146FCF7FFFAFCF74FFE102409E02B
:103F7000002C0ADB0A220023FCF710FD039B3032E1
:103F80001A55641E50EA0102F2D1641C039AC4F16E
:103F900011031444119A012A03D0012208430DD1C0
:103FA0000AE0084304D000204FF0110B119072E793
:103FB000A3EB0B056D1E0DE05B4504DD4FF0000229
:103FC00005F1010504E003DA4FF00002A5F1010557
:103FD000002AECD002981199C0E90231C0E90045ED
:103FE00079E70000000014400000F03F30000000BE
:103FF0000000F0430000E03F2DE9FF4F95B09B46E5
:104000008946064600250FE2252877D10024274659
:10401000F84A0121059400E0044316F8013F203BD3
:1040200001FA03F01042F7D130782A2811D06FF04E
:104030002F033078A0F13002092A16D8059A44F0EF
:10404000020402EB820203EB42021044761C05904C
:10405000EFE759F8042B0592002A03DA504244F4A2
:104060000054059044F00204761C30782E2816D1B6
:1040700016F8010F44F004042A280DD06FF02F0227
:104080003078A0F13003092B09D807EB870302EB46
:104090004303C718761CF3E759F8047B761C307885
:1040A0006C280FD006DC4C2817D068280DD06A2861
:1040B00014D104E0742810D07A280FD10DE044F414
:1040C00000140AE044F4801401E044F440147278CF
:1040D000824202D104F58014761C761C3078662862
:1040E0000BD013DC582877D009DC002875D0452880
:1040F000F6D04628F4D047281AD19DE118E063286D
:1041000035D0642879D0652812D195E1702873D014
:1041100008DC6728F1D069286FD06E280DD06F2891
:1041200006D1B5E073282CD0752875D0782874D0C6
:104130005A46179990476D1C75E1C4F30250022846
:1041400009D003280DD0D9F8001004280DD00D6037
:1041500009F1040967E1D9F80010EA17C1E9005232
:10416000F6E7D9F800100D80F2E70D70F0E719F8C6
:10417000041B8DF8001000208DF80100EA46012094
:1041800003E059F804AB4FF0FF3061074FF0000136
:1041900002D40DE008F101018846B9420FDA8045EA
:1041A000F8DB1AF808100029F4D108E008F1010141
:1041B00088468142FADB1AF808100029F6D10598E2
:1041C0005B46A0EB080721463846179A00F094FAA0
:1041D000284400EB080507E04DE029E10DE01AF85E
:1041E000010B5A4617999047B8F10108F7D25B4680
:1041F00021463846179A13E142E00A220092C4F39E
:1042000002524FF0000A022A08D059F804CB032AC0
:104210004FEAEC710AD00DE029E02AE009F107012C
:1042200021F00702F2E802C1914609E00FFA8CFC86
:104230004FEAEC71042A03D14FFA8CFC4FEAEC717F
:10424000002907DA0A460021DCF1000C61EB0201CB
:104250002D2202E0220504D52B228DF80420012214
:1042600003E0E20701D02022F7E7904659E00A2157
:1042700002E010220DE010214FF0000A00910BE047
:1042800010224FF0000A44F004040827009203E0D3
:1042900008224FF0000A0092C4F30252022A05D00D
:1042A00059F804CB0021032A08D009E009F10701DD
:1042B00021F00702F2E802C1914605E01FFA8CFCEA
:1042C000042A01D10CF0FF0C4FF00008220728D57A
:1042D000702806D0009B83F0100353EA0A0305D030
:1042E0000EE040228DF80420012208E05CEA010281
:1042F00006D030228DF804208DF805000222904669
:10430000009B83F0080353EA0A030AD15CEA010226
:1043100001D1620705D530228DF804204FF0010845
:104320007F1E582804D034A003900EA802900DE000
:1043300036A0F9E753466046009AFCF72FFB844607
:104340000398825C0298401E029002705CEA0100B1
:10435000F0D1029806A9081A00F1200A600702D5D8
:1043600024F4803400E00127574502DDA7EB0A0062
:1043700000E0002000EB0A01009005984144401A3B
:104380000590E00306D45B462146179A059800F095
:10439000B3F90544002706E001A85A46C05D179905
:1043A00090476D1C7F1C4745F6DBE0030CD55B4650
:1043B0002146179A059800F09FF9054404E0302043
:1043C0005A46179990476D1C0099481E0090002985
:1043D000F5DC08E0029802995A460078491C0291DF
:1043E000179990476D1CBAF10001AAF1010AF1DC9E
:1043F00065E10000092801003031323334353637A9
:104400003839616263646566000000003031323320
:1044100034353637383941424344454600000000C0
:1044200000F058F90544761C307800287FF4ECAD94
:1044300019B02846BDE8F08F620700D4062709F1BD
:10444000070222F0070CFCE80223E14603F00048D3
:104450005FEA080C02D00FF2702C0DE05FEA045CFA
:1044600002D50FF2682C07E05FEAC47C02D00FF29D
:10447000602C01E0AFF2700C4FF0FF3823F00043E6
:10448000CDF850C065280CD006DC452809D0462858
:104490001DD047283DD13DE0662818D067287ED141
:1044A00038E00021112F01DB112000E0781CCDE95C
:1044B000000106A90EA8FFF7DDFCDDE90F010E9A49
:1044C00003910021009207F1010A04914DE04FF0A1
:1044D00000400097CDE9011006A90EA8FFF7CAFC1D
:1044E000DDE90F0203920E9B11990022DDF80CA06A
:1044F0000093049211B9791C00EB010AB7EB0A0092
:1045000004D4C0F1FF3007F1010A0490AAEB0700C0
:10451000019044E0012F00DA01270021112F01DD75
:10452000112000E03846CDE9000106A90EA8FFF7EA
:10453000A1FCDDE90F010E9A039100210491009284
:10454000BA4621070CD40399514500DA8A46BAF1DC
:10455000010F05DD009AAAF10101515C302908D054
:10456000B84202DA10F1040F06DA0121CDE9011098
:1045700015E0AAF10101E9E7002805DC04990144EE
:104580000491AAEB000102E0411C514500DD8A467E
:104590000499401A401C01904FF0004002902007FF
:1045A00004D40198504501DBCDF8048000208DF83B
:1045B0004F0002980DF14F07B0F1004F25D02B208E
:1045C0000E9002984FF0020800280CDA4042029048
:1045D0002D200E9007E00A210298FCF7C9F930312E
:1045E000029007F8011DB8F10001A8F10108F2DC02
:1045F00002980028EFD1791E0E980870307800F0EC
:10460000200040F0450007F8020D12A8C01B00F181
:1046100007081498007800B1012000EB0A01019806
:1046200001EBE07105984144401A401E0590E003FB
:1046300006D45B462146179A059800F05DF80544BC
:104640001498007818B15A46179990476D1CE003EA
:1046500024D55B462146179A059800F04DF805448D
:104660001CE00498002807DBDDE90301884203DD34
:104670000098405C179901E0179930205A469047FE
:10468000049805F10105401C04900198401E01901A
:1046900004D12E205A46179990476D1CBAF100019B
:1046A000AAF1010ADDDC05E017F8010B5A4617995B
:1046B00090476D1CB8F10001A8F10108F4DC5B46DD
:1046C0002146179A0598ABE62D0000002B0000004C
:1046D000200000002DE9F041044600251E46174643
:1046E000880404D405E039462020B0476D1C641EC0
:1046F000F9D52846BDE8F0812DE9F04104460025B2
:104700001E469046C80301D5302700E020278804C4
:1047100004D505E041463846B0476D1C641EF9D506
:104720002846BDE8F081000010B50346002000E0F7
:10473000401C0A2805DA0B4C04EB00142468002CFA
:10474000F6D10A2800D110BD064C04EB00142360FA
:10475000044C04EB0014A260024C04EB00146160F2
:1047600000BFF0E7380300200A2800DB7047002173
:10477000084A02EB00121160064A02EB0012916037
:10478000044A02EB00125160024A02EB001211735C
:1047900000BFEBE73803002082B0CDE9000121F033
:1047A000004001909DED000B02B051EC100B7047E2
:1047B00070B504460D46A1B20548FEF7F4FE00BFF1
:1047C00040210348FEF718FE0028F9D0204670BDAE
:1047D0000048004010B5002821D0114B0022001FD6
:1047E000196803E0814203D80A4649680029F9D1D3
:1047F00052B11368841A9C4204D1006818441060B6
:10480000104602E0506000E0186039B102680B1AEF
:10481000934203D10B681A4402604968416010BD9D
:10482000B400002091ED000AD2ED000A30EE200A1B
:1048300080ED000A91ED010AD2ED010A30EE200A66
:1048400080ED010A91ED020AD2ED020A30EE200A53
:1048500080ED020A70470000D0ED000A60EEA00A69
:1048600090ED011AD0ED011AB0EE600A01EE210AB6
:10487000B5EEC00AF1EE10FA04DBF1EEC00AC1EDAC
:10488000000A04E0DFED060AC1ED000A00BF9FED5B
:10489000040A81ED010A90ED020A81ED020A7047D7
:1048A0000000000070B504460D4600F0C1F8204637
:1048B00000F048F900F010F9284600F043F900F044
:1048C0000BF900F0B5F8611CC8B200F03BF900F03C
:1048D00003F900F07BF8064600F054F800F0D0F839
:1048E000304670BD10B51048006820F040000E49F9
:1048F0000860FCF735FB0C48006820F080000A498E
:104900000860FCF72DFB0848006840F040000649AD
:104910000860FCF725FB0448006820F040000249CD
:104920000860FCF71DFB10BD1404024070B505467D
:104930000C4600F07DF8284600F004F900F0CCF8B1
:10494000204600F0FFF800F0C7F800F099F870BDBD
:104950001CB501210220FDF7F3FFC02000900120CB
:104960008DF8040003208DF8050001208DF8060065
:1049700000208DF8070069460148FCF774FD1CBD56
:104980000004024010B51048006820F040000E49B5
:104990000860FCF7E5FA0C48006840F080000A491E
:1049A0000860FCF7DDFA0848006840F0400006495E
:1049B0000860FCF7D5FA0448006820F0400002497E
:1049C0000860FCF7CDFA10BD1404024070B5002455
:1049D0001648006840F080001449086000251BE07C
:1049E0006006040E1148006820F040000F4908607E
:1049F000FCF7B6FA0D48006840F040000B4908602B
:104A0000FCF7AEFA802109481438FCF797FD08B18D
:104A100044F00104681CC5B2082DE1DB03480068BE
:104A200020F0400001490860204670BD1404024097
:104A300010B51248006840F0800010490860084630
:104A4000006840F040000860FCF78AFA80210B48BB
:104A50001438FCF773FD08B9002010BD0748006842
:104A600020F0800005490860FCF77AFA03480068E6
:104A700020F04000014908600120EEE714040240E4
:104A800010B51448006820F0400012490860FCF797
:104A900067FA1048006820F080000E490860FCF7B3
:104AA0005FFA0C48006840F040000A490860FCF7D3
:104AB00057FA0848006840F0800006490860FCF793
:104AC0004FFA0448006820F04000024908600020C6
:104AD00010BD00001404024010B51948006820F011
:104AE000400017490860FCF73BFA1548006840F0A1
:104AF000800013490860FCF733FA1148006840F061
:104B000040000F490860FCF72BFA80210C4814384C
:104B1000FCF714FD48B10A48006820F0400008493D
:104B20000860FCF71DFA002010BD0548006820F061
:104B3000400003490860FCF713FA0120F4E7000085
:104B40001404024070B50446002524E016480068AD
:104B500020F0400014490860FCF702FA04F08000DD
:104B600030B11148006840F080000F49086005E04E
:104B70000D48006820F080000B4908606006040EB4
:104B8000FCF7EEF90848006840F04000064908606C
:104B9000FCF7E6F96D1C082DD8DB0348006820F00F
:104BA00040000149086070BD140402402DE9F0473F
:104BB00005460E4617469846DDF82090FFF738FF69
:104BC0003846FFF7BFFFFFF787FF4046FFF7BAFF02
:104BD000FFF782FFFFF72CFF791CC8B2FFF7B2FF87
:104BE000FFF77AFFB9F1000F0CD1002406E0FFF7C0
:104BF000EDFE2855FFF776FE601CC4B2701EA04281
:104C0000F5DC0BE0701EC4B206E0FFF7DFFE2855AE
:104C1000FFF768FE601EC4B2002CF6DCFFF7D6FE7C
:104C20002855FFF7AFFEFFF72BFFBDE8F087F0EE4A
:104C3000400AF7EE001A81EEA02AB0EE421AF7EE13
:104C4000001A71EEC11A90ED012A61EE821A90ED00
:104C5000002A41EE021AB0EE610A70471CB5FCF75B
:104C600027F800F071FB01210420FDF769FE012007
:104C70008DF8040000208DF8060003208DF8050053
:104C800000208DF807001020009069465748FCF777
:104C9000EAFBFFF75DFE32205549086004204860BA
:104CA000102000F0BFF852498860B1EE040A0846AF
:104CB000806880ED000AB1EE040A0846806880ED45
:104CC000010AB1EE040A0846806880ED020AB1EEDE
:104CD000040A0846806880ED030A0846FDF71AFBBF
:104CE0004FF496714348FDF797F89FED430A41480A
:104CF00080ED280A9FED400A80ED290ADFED3F1A7A
:104D00009FED3F1ADFED3F0A9FED3F0AB430FDF7FC
:104D1000EDFADFED3A1A9FED3A1ADFED3A0A9FED10
:104D20003A0A3448D430FDF7E1FADFED341A9FED4A
:104D3000341ADFED340A9FED340A2E48F430FDF7C3
:104D4000D5FADFED2E1A9FED2E1ADFED2D0A9FED1D
:104D50002F0A2F48FDF7CAFADFED281A9FED281A0F
:104D6000DFED270A9FED290A29482030FDF7BEFA1A
:104D7000DFED221A9FED221ADFED210A9FED230AB3
:104D800023484030FDF7B2FA1A4890ED7C0ADFED77
:104D9000210A20EE200ABCEEC00A10EE101A0022F2
:104DA0001D48FFF7C1FC134890ED7C0ADFED190A9E
:104DB00020EE200ABCEEC00A10EE101A002217489E
:104DC000FFF7B2FC0B4890ED7C0ADFED120A20EEF3
:104DD000200ABCEEC00A10EE101A00221048FFF79D
:104DE000A3FC01E000F08AFAFCE7000000080240A2
:104DF00000030020C0000020000082420000804725
:104E0000000000000AD7233C0000704217B7D138D9
:104E1000D401002000007A446D1C000851190008DC
:104E20002D0D0008F0B50B30154D20F007010024C2
:104E3000144A0FE003688B420BD38B4205D95E1AEC
:104E400043184768C3E9006700E04368136002C085
:104E500004E0021D10680028ECD12046002802D191
:104E6000286808B10020F0BD064A07481060074ACC
:104E7000121A22F00702C0E9002401202860D7E7B7
:104E8000B8000020B4000020DC030020D80500207A
:104E90002DE9F0439DB006460F4690468B49D1E977
:104EA00000028968CDE912211190884A0C3207CAA4
:104EB0000EAB07C300200B900C900D90089009904A
:104EC0000A9014AA17A91AA800F02CF99DED1A0A45
:104ED0008DED110A9DED1B0A8DED120A9DED1C0A48
:104EE0008DED130A9DED170A8DED0B0A9DED180A45
:104EF0008DED0C0A9DED190A8DED0D0A4FF000099C
:104F000071E014AA17A91AA800F00CF9002566E0B0
:104F10001AA800EB850090ED000A11A800EB8500AF
:104F2000D0ED000AB4EEE00AF1EE10FA0ADD1AA89C
:104F300000EB850090ED000A11A800EB850080EDE4
:104F4000000A18E01AA800EB850090ED000A0EA8F0
:104F500000EB8500D0ED000AB4EEE00AF1EE10FAA5
:104F600009D21AA800EB850090ED000A0EA800EB0C
:104F7000850080ED000A17A800EB850090ED000A7F
:104F80000BA800EB8500D0ED000AB4EEE00AF1EECC
:104F900010FA0ADD17A800EB850090ED000A0BA8B7
:104FA00000EB850080ED000A18E017A800EB8500F3
:104FB00090ED000A08A800EB8500D0ED000AB4EEE1
:104FC000E00AF1EE10FA09D217A800EB850090ED87
:104FD000000A08A800EB850080ED000A6D1C032D77
:104FE00096DB09F10109B9F1C70F8ADB002449E01A
:104FF00011A800EB840090ED000A0EA800EB8400DD
:10500000D0ED000A30EE200AF0EE000A80EE201A01
:1050100005A800EB840080ED001A0BA800EB8400CB
:1050200090ED000A08A800EB8400D0ED000A30EEF5
:10503000200AF0EE000A80EE201A02A800EB84009D
:1050400080ED001A022C01DB012000E0002000EEC0
:10505000100AB8EEC00A05A800EB8400D0ED000AE3
:1050600030EE600A06EB840080ED000A02A800EB37
:10507000840090ED000AB1EE400A07EB840080ED59
:10508000000A641C032CB3DB01A8FBF7F9FD002424
:1050900017E001A8005D803800EE100AB8EEC00AE3
:1050A000F6EE000A60EE200A9FED091A80EE810AF2
:1050B000F7EE000A30EE200A08EB840080ED000ACB
:1050C000641C032CE5DB1DB0BDE8F0831858000814
:1050D0000000004310B500226B21D02000F072F9CF
:1050E00007221921D02000F06DF906221A21D020C4
:1050F00000F068F918221B21D02000F063F901228A
:105100001C21D02000F05EF900226A21D02000F09E
:1051100059F902223721D02000F054F9FCF72EFA79
:1051200010BD00002DE9F04186B007460E469046BE
:105130006A4602A904A800F073F8002416E00120D2
:1051400000EB440004A9085C11F8141040EA0120A7
:1051500005B200EE105AB8EEC00ADFED2D0A80EE5F
:10516000201A07EB840080ED001A641C032CE6DB98
:10517000002426E0012000EB440002A9085C11F89D
:10518000141040EA012005B200EE105AB8EEC00A31
:10519000DFED200A80EE201A06EB840080ED001A75
:1051A00006EB8400D0ED000A9FED1B1A80EE810A09
:1051B000DFED1A0A20EE200A06EB840080ED000ADB
:1051C000641C032CD6DB00241CE0012000EB44000F
:1051D0001DF800001DF8141040EA012005B2022C51
:1051E00001D1E01E00E00120684300EE100AB8EE95
:1051F000C00AF0EE080A80EE201A08EB840080ED69
:10520000001A641C032CE0DB06B0BDE8F08100004E
:10521000000080463333834100003443DB0F4940B4
:105220002DE9F04104460D4616463B21D020FFF7FC
:1052300039FB20703C21D020FFF734FB60703D210A
:10524000D020FFF72FFBA0703E21D020FFF72AFBD4
:10525000E0703F21D020FFF725FB20714021D020B6
:10526000FFF720FB60714321D020FFF71BFB287064
:105270004421D020FFF716FB68704521D020FFF7AE
:1052800011FBA8704621D020FFF70CFBE8704721E6
:10529000D020FFF707FB28714821D020FFF702FB41
:1052A000687101220A21182000F08CF800BF022149
:1052B0001820FFF7F7FA07460128F8D10621182031
:1052C000FFF7F0FA307005211820FFF7EBFA707045
:1052D00004211820FFF7E6FAB07003211820FFF729
:1052E000E1FAF07008211820FFF7DCFA307107218D
:1052F0001820FFF7D7FA7071BDE8F08110B50024CF
:105300001CE0104800EB04100068B0B10D4800EB41
:105310000410007B88B100200A4901EB04110873D6
:10532000084901EB041108688047064800EB0410A7
:10533000406810B9E0B2FFF717FA641C0A2CE0DBF2
:1053400010BD0000380300203EB5002411E000200D
:10535000194901EB04114860174901EB0411087366
:10536000154901EB04118860134901EB0411086031
:10537000641C0A2CEBDB01210220FDF7F1FA6846E0
:10538000FDF7DEFE0020ADF800001020ADF80200B1
:105390000020ADF808000948019069460848FDF76B
:1053A0008DFE012211460648FDF763FD01210448E8
:1053B000FDF733FD3EBD0000380300203F900200A2
:1053C0000004004070B506460C461546FFF730FB5A
:1053D0003046FFF7B7FBFFF77FFB2046FFF7B2FB36
:1053E000FFF77AFB2846FFF7ADFBFFF775FBFFF7EA
:1053F00047FB012070BD00B52DED048B83B041EC5F
:10540000190BFBF7B1FB41EC180B18EE100A18EE64
:10541000901A8DED008B002818BF0120084320F062
:105420000040C0F17F6000F1E040C00F14D019EEE1
:10543000101A19EE900A8DED009B002918BF01216A
:10544000084320F00040C0F17F6000F1E040C00F51
:1054500004BF0120FEF708FD51EC180B03B0BDECB2
:10546000048B00BD002021E0124901EB0011096806
:10547000D9B1104901EB0011896869B901210D4AC0
:1054800002EB001211730B4901EB00114968094A44
:1054900002EB0012916008E0064901EB00118968F7
:1054A000491E044A02EB00129160401C0A28DBDB13
:1054B000704700003803002010B52DED0A8B92B024
:1054C000044694ED1E0AD4ED200A70EE200AB7EED1
:1054D000000AB0EE001A01EE600AB0EE408A94EDC8
:1054E0001C0AD4ED1A0A30EE600AF0EE000A20EE33
:1054F000200AF0EE408A94ED1D0AD4ED190A30EE30
:10550000200AF0EE000A20EE200AB0EE409A94ED58
:105510001C0AD4ED1A0A30EE200AF0EE000A20EE42
:10552000200AF0EE409A94ED1B0AD4ED200A70EEAA
:10553000200AB7EE000AB0EE001A01EE600AB0EEE3
:1055400040AA94ED1F0AD4ED180A30EE200AF0EEBE
:10555000000A20EE200AF0EE40AA94ED1D0AD4EDD8
:10556000190A30EE600AF0EE000A20EE200AB0EED2
:1055700040BA94ED1F0AD4ED180A30EE200AF0EE7E
:10558000000A20EE200AF0EE40BA94ED1B0AD4ED9A
:105590001E0A70EE200AB7EE000AB0EE001A01EE05
:1055A000600AB0EE40CA8DED098ACDED0A8A8DED14
:1055B0000B9ACDED0C9A8DED0DAACDED0EAA8DEDC9
:1055C0000FBACDED10BA8DED11CA8DED008ACDED7B
:1055D000019A8DED02BACDED038A8DED04AACDEDD1
:1055E00005BA8DED069ACDED07AA8DED08CA2422E5
:1055F00009A904F50670FAF7A4FF2422694604F508
:10560000FA70FAF79EFF12B0BDEC0A8B10BD1FB501
:10561000D0E91524D0E91331CDE90224CDE90031D8
:1056200090ED7C0AF0EE000A80EE201A90ED030A5D
:10563000B1EE400AD0ED140A20EE200AD0ED040AA3
:10564000D0ED151A00EEE10AD0ED050AD0ED161ADC
:1056500000EEE10ADDED000A41EE000AC0ED130A9A
:1056600090ED7C0AF0EE000A80EE201A90ED030A1D
:10567000D0ED130A20EE200AD0ED050AD0ED151A60
:1056800000EEA10AD0ED040AD0ED161A00EEE10AF0
:10569000DDED010A41EE000AC0ED140A90ED7C0A2E
:1056A000F0EE000A80EE201A90ED040AD0ED130A05
:1056B00020EE200AD0ED050AD0ED141A00EEE10A22
:1056C000D0ED030AD0ED161A00EEA10ADDED020AB4
:1056D00041EE000AC0ED150A90ED7C0AF0EE000ADA
:1056E00080EE201A90ED050AD0ED140A20EE200A73
:1056F000D0ED040AD0ED141A00EEA10AD0ED050A8F
:10570000D0ED151A00EEE10ADDED030A41EE000AC4
:10571000C0ED160A90ED130A20EE000A80ED170A7C
:1057200090ED130AD0ED140A20EE200A80ED180A3D
:1057300090ED130AD0ED150A20EE200A80ED190A2B
:1057400090ED130AD0ED160A20EE200A80ED1A0A19
:1057500090ED140A20EE000A80ED1B0A90ED140A69
:10576000D0ED150A20EE200A80ED1C0A90ED140AF7
:10577000D0ED160A20EE200A80ED1D0A90ED150AE4
:1057800020EE000A80ED1E0A90ED150AD0ED160AF3
:1057900020EE200A80ED1F0A90ED160A20EE000A86
:1057A00080ED200A1FBD3EB50446D4ED2A0AB0EEB6
:1057B000600A04F1B400FCF7FDFC8DED000AD4EDA5
:1057C0002B0AB0EE600A04F1D400FCF7F3FC8DED77
:1057D000010AD4ED2C0AB0EE600A04F1F400FCF7E3
:1057E000E9FC8DED020A94ED030ADDED000A30EECE
:1057F000200A84ED030A94ED040ADDED010A30EE7F
:10580000200A84ED040A94ED050ADDED020A30EE6B
:10581000200A84ED050A3EBD0000000000000000E3
:105820000000803F00000000000000000000803FFA
:105830000100000002000000000000000000000065
:10584000920E493CB10AC93C2BC3163D2EFB483D84
:10585000752B7B3D04A9963D80B6AF3D36BDC83D56
:105860002FBCE13D73B2FA3D87CF093E8340163E1F
:10587000B5AB223EA2102F3ECF6E3B3EC2C5473E87
:105880000115543E135C603E7F9A6C3ECCCF783E4F
:10589000C07D823E938E883E229A8E3E32A0943EF8
:1058A00086A09A3EE59AA03E128FA63ED47CAC3EDE
:1058B000EF63B23E2A44B83E491DBE3E15EFC33EDB
:1058C00053B9C93ECA7BCF3E4136D53E80E8DA3E69
:1058D0004F92E03E7533E63EBBCBEB3EEA5AF13EDB
:1058E000CBE0F63E275DFC3EE4E7003F3D9C033FF6
:1058F000824B063F9BF5083F6B9A0B3FDA390E3F10
:10590000CDD3103F2A68133FD9F6153FC07F183F0B
:10591000C6021B3FD17F1D3FCBF61F3F9967223F39
:1059200025D2243F5636273F1594293F4AEB2B3F7B
:10593000DE3B2E3FBB85303FC9C8323FF304353FC5
:10594000233A373F4268393F3B8F3B3FF9AE3D3FFB
:1059500067C73F3F70D8413F01E2433F03E4453F03
:1059600065DE473F12D1493FF8BB4B3F029F4D3F99
:10597000207A4F3F3D4D513F4918533F31DB543F53
:10598000E595563F5348583F6AF2593F1A945B3F9A
:10599000532D5D3F05BE5E3F2146603F97C5613F89
:1059A0005A3C633F59AA643F880F663FD86B673FF4
:1059B0003CBF683FA7096A3F0C4B6B3F5E836C3F5F
:1059C00093B26D3F9ED86E3F73F56F3F0809713FEC
:1059D0005213723F4714733FDD0B743F0BFA743F51
:1059E000C6DE753F07BA763FC58B773FF853783FE1
:1059F0009812793F9DC7793F02737A3FBE147B3F6F
:105A0000CDAC7B3F283B7C3FC9BF7C3FAC3A7D3F60
:105A1000CCAB7D3F23137E3FB0707E3F6DC47E3F95
:105A2000580E7F3F6D4E7F3FAB847F3F0FB17F3F6E
:105A300097D37F3F43EC7F3F11FB7F3F0000803FC8
:105A400011FB7F3F43EC7F3F97D37F3F0FB17F3FF9
:105A5000AB847F3F6D4E7F3F580E7F3F6DC47E3FCE
:105A6000B0707E3F23137E3FCCAB7D3FAC3A7D3F91
:105A7000C9BF7C3F283B7C3FCDAC7B3FBE147B3F06
:105A800002737A3F9DC7793F9812793FF853783F68
:105A9000C58B773F07BA763FC6DE753F0BFA743F7A
:105AA000DD0B743F4714733F5213723F0809713F77
:105AB00073F56F3F9ED86E3F93B26D3F5E836C3F30
:105AC0000C4B6B3FA7096A3F3CBF683FD86B673FF1
:105AD000880F663F59AA643F5A3C633F97C5613FB0
